:020000040000FA
:030000000200E11A
:03003300020AF2CC
:100083000217A800000080FB1200F3B9000302006E
:10009300DBE479127807B800028004F709D8FCE49E
:1000A300900F00788679098002F0A3D8FCD9FA90E2
:1000B3001785AA82AB839000F9781179018015E442
:1000C30093A3AC82AD838A828B83F0A3AA82AB8392
:1000D3008C828D83D8E9D9E71217DF12008675D099
:1000E300007581BF75100075110F5392FE02008BCE
:1000F30079015392FE220901AC01AC01AC01AC01C0
:10010300B4010600000012010002020000205104A5
:10011300A81609000102030109024300020100803D
:100123001909040000010202010005240010010462
:1001330024020205240600010524010001070582AB
:100143000340004009040100020A0000000705847F
:1001530002400001070504024000010403090424CE
:100163000354006500780061007300200049006EAD
:100173000073007400720075006D0065006E0074FA
:100183000073001E03430043003200350033003187
:100193000020005500530042002000430044004368
:1001A3000008033000300031002401000047010043
:1001B30000BB0102E722C0925392FEC082C0838932
:1001C300828A83BB0003E08002E493D083D082D091
:1001D3009222BB0015C0925392FEC082C0838A83D1
:1001E3008982F0D083D082D09222BB0101F722E032
:1001F300F608A3E0F608A3E0F608A3E0F622E6F08B
:1002030008A3E6F008A3E6F008A3E6F022CAC0E0DC
:10021300E6F0A308DAFAD0E0FA22CAC0E0E0A305C8
:1002230092F0A30592DAF6D0E0CA22600C08C6C3A6
:1002330013C618C613C6D5E0F422700422600D1845
:10024300C6C333C608C633C6D5E0F418222510103A
:10025300AF08F510400215118008F5104002151182
:10026300D2AF22C0D0251010AF08F51050020511EF
:100273008008F51050020511D2AFD0D0222510F519
:100283008210AF08F510400215118008F5104002E6
:100293001511D2AF851183222510F582E43511F5AE
:1002A30083222510F584E43511F58522E4735392F6
:1002B300FE2510C582C0E0E51134FFC583C0E0E52B
:1002C30010C3958224F9F8E4C5A8858311858210AB
:1002D300C5A8E8CEF0A3E520F0A37808E608F0A3CC
:1002E300DEFAEFF0A3E58124FBF8E608F0A3E608C5
:1002F300F0A30808E608F0A3E608F0A3158115812A
:10030300D0E0FED0E0F815811581E8C0E0EEC0E052
:10031300225392FE851183851082E0A3FEE0A3F5AC
:10032300207808E0A3F608DFFAE0A3FFE0A3C0E02B
:10033300E0A3C0E0E0A3C0E0E0A3C0E0E4C5A8857B
:100343008210858311C5A8D083D0825392FE22C028
:10035300925392FEC0D02510C582C0E0E51134FF50
:10036300C583C0E0E510C3958224F210AF088583EE
:10037300118582108008858311858210D2AFC8F061
:10038300A3E9F0A3EAF0A3EBF0A37908E709F0A34C
:10039300D8FAECF0A3EDF0A3EEF0A3EFF0A3D0E0D6
:1003A300F0A3D0E0F0A3D0E0F0A3E520F0A3E5F0C4
:1003B300F0A3D0E0F0225392FE851183851082E0F2
:1003C300C0E0A3E0F9A3E0FAA3E0FBA37808E0F61A
:1003D30008A3DFFAE0FCA3E0FDA3E0FEA3E0FFA394
:1003E300E0C0E0A3E0C0E0A3E0F5D0A3E0F520A3E4
:1003F300E0A3F5F0E0A3C0E0E4C5A88583118582FE
:1004030010C5A8D0E0D082D083F592D0E0F8D0E038
:1004130032E584F0A3E585F022E0A3F584E0F585D9
:10042300227403800474028000C0E0F4041202808A
:10043300D0E01202102274038000C0E0F404120220
:1004430080D0E012021D22D083D082C5F0E493A3B2
:10045300C5F0C395F0F5F0E493A3C395F04005E52B
:10046300F0048001E475F002A42582F582E5F035FD
:1004730083F583E493A3C0E0E493C0E022D083D068
:1004830082CCC0E0E493A360061204AA1470FAE4D9
:1004930093A360061204C91470FAD0E0FCE493A39A
:1004A300C0E0E493C0E022C0E0E493A3D39C5010E7
:1004B300E493A3C39C400AD0E0D0E0D0E002049DC3
:1004C300A3A3A3D0E022C0E0E493A36C7009D0E01F
:0C04D300D0E0D0E002049DA3A3D0E02202
:1004E0007587010022D2AF5392FE22C2AF5392FE13
:1004F00022C082C0835392FE900F1CE0FA74226ADD
:10050000700C900F09E0701EC28074028017742076
:100510006A700D900F09E0700D120555740280028B
:100520007404900F09F0804CC082C0835392FE90F7
:100530000F1CE064217016900F09E070161205552B
:10054000900F197407F0A3E4F07401800274049012
:100550000F09F0801F900F167429F0A3740FF0A3F9
:10056000E4F02280028000C082C08374045392FEB3
:10057000900F09F0D083D0822280ECC082C083E942
:100580005392FE12044A01099E059E059E059E0592
:100590009E059E059E059E059E059E059E05D08393
:1005A000D0825392FE225392FE22D083D0822253D5
:1005B00092FE901785E0F8A3E0F9900F00E8F0A311
:1005C000E9F02274F81202B174FE120280120414CF
:1005D000E9FCEAFD7A007B00901787E0FEA3E0FFCC
:1005E00080050592120636900F00E0F8A3E0F9EEC0
:1005F000687002EF696029900F00E0F584A3E0F5D0
:10060000850592A3E4936C700F0592900F00E0FAB9
:10061000A3E0FB1206368008E4936D70C5ED60C25E
:100620008510828511835392FE12041C74021202FB
:10063000667F01020314900F00E0F584A3E0F585C6
:10064000E4059293F80592900F00E028F8A3E034B7
:1006500000F9900F00E8F0A3E9F022C082C08312F5
:1006600005AF7A0079011205C30205AA74F71202D8
:10067000B1E9FFEAFE1205B280011E7A007902128A
:1006800005C3EA7001EB6016EF60108A828B83A3CA
:10069000A3A3A3A3E4936F70E28003EE70DC7F0258
:1006A00002031474F51202B1EAFF8B087A001206F5
:1006B0006C7A0279041205C3EA7001EB60188A8231
:1006C0008B83A3A3E4936F70E88A828B83A3A3A395
:1006D000E493650870DB7F0402031474F71202B11F
:1006E000E9FE1205B27A0079031205C3EE1E70F519
:1006F00080ACC082C0837A00790112066C8A828B3A
:1007000083A3A3A3A3A3A3A3E493A2E65004740129
:100710008001E4900F15F0E4900F14F074039062E0
:100720000FF0E0A2E750FB90620BE0D2E1F0D08343
:10073000D08222C082C08374025392FE900F02F0D6
:10074000E4900F03F0900F09F079031209BF7512BE
:100750000075130080D874F51202B174FE12028085
:1007600012041490620EE0FEE4F0906211E0FFA229
:10077000E4501F7480F07407900F09F0E5127002C6
:10078000E51360098512828513831202AFE4900F8E
:1007900009F0EFA2E2500CE4906211F0900F09F022
:1007A00002083A900F09E0FA74026A7076906216B5
:1007B000E0F50A0592900F16120439A90A7A207BF7
:1007C00062120A227403120266850A08900F191237
:1007D00009A0120993250A1209ABE07002A3E06098
:1007E00004744080027448906211F0900F19E07018
:1007F00002A3E07016E5127002E51360098512820B
:100800008513831202AFE4900F09F0EE90620EF0B0
:1008100085108285118312041C74021202667F0403
:1008200002031474066A700985128285138312020A
:10083000AF900F09E06003020922EFA2E050CC75EF
:10084000081B75090F750A00780812042479087AC4
:10085000207B62120A22740312026675120075135D
:1008600000900F1BE054E012048000060080082076
:10087000060940F00880BD08A01109C0FB08E8087F
:10088000900F1CE0120480000501AE0803A90805C2
:100890009A0809B3080BB808E808120D8C900F09E4
:1008A000E06404707774608075120D8080EF120D23
:1008B0007480EA12116580E51212B180E0900F1C7D
:1008C000E0120480000400D40806D90808DE080AF3
:1008D000E308E808120B9D80C4120DE880BF1211D6
:1008E0002780BA12125180B57404900F09F080B5B8
:1008F00075126375130512056380A2751265751371
:100900000512056580977512F17513041204F180C4
:100910008C75122875130512052880817440906229
:1009200011F0900F09E0FA74016A70537F02900F82
:1009300019E0F8A3E0F9C3E89420E994005007E82F
:10094000F50A7F0A8003750A200592900F1612049B
:1009500039A90A7A207B62120A6174031202668541
:100960000A0812099325081209AB1209A0EF906238
:1009700011F0E50AC39420400302080B0207F57446
:10098000056A600302080B8512828513831202AF89
:1009900002080B900F16E0F9A3E0FAA3E0FBE922AE
:1009A000C3E09508F0A3E09400F022F9EA3400FADD
:1009B000900F16E9F0A3EAF0A3EBF0900F19227460
:1009C000F81202B174FE12028012041475840275CA
:1009D000850F7A05E98584828585835392FEA3A3DA
:1009E000A3A3A3A3A3A3F00592A31AEA70E67584B8
:1009F0000275850F7A05E584240DF582E5853400BE
:100A0000F583E90592F00592A31AEA70E985108250
:100A1000851183059212041C74021202667F010282
:100A2000031474F61202B174FE1202801204148AC6
:100A3000848B85E9FC740C12029B120A97600C43AC
:100A40009201E01201D5120A8C70F4851082851192
:100A5000835392FE12041C74021202667F03020387
:100A60001474F61202B174FE1202801204148A8405
:100A70008B85E9FC740C12029B120A97600C120120
:100A8000B4439201F0120A8C70F480BFE92401098A
:100A9000EA3400FA1CEC22E0F508A3E0F509A3E033
:100AA000A908AA09FBEC2274F71202B175140075AB
:100AB00015007516008A178B18EA90620BF08A08E9
:100AC0008B097404780812022EE508906207F08AF8
:100AD000088B097409780812022EE508543E9062CA
:100AE00009F0758B00C2E843AC20439A027F0202F2
:100AF0000314C0E074F0120352E59DA2E650FA9090
:100B00006206E0FAA2E25035A817E890620BF0F511
:100B1000088518097404780812022EE50890620707
:100B2000F08517088518097409780812022EE5085F
:100B3000543E906209F0906201E0D2E0F07814EA4D
:100B400046F6906202E0F508750900740478081210
:100B5000023D7814E50846F608E50946F690620479
:100B6000E0F5087509007409780812023D78140848
:100B7000E50946F6EAA2E0500375160174065A60CC
:100B800003751600E58BA2E55006758BDF75160020
:100B90001205A6758B00C2E87F020203B974F71232
:100BA00002B1900F1DE07002A3E0701C900F1F12A5
:100BB0000DE274FF59FBE47001EB700C900F21E023
:100BC00064027002A3E0600474048058900F1BE07C
:100BD00012044A8002C80BDD0B2B0C3B0CE870E8BA
:100BE000900F15E06004780180027800900F23E8F0
:100BF000F0A3E4F0900F14E0600A900F23E04402A9
:100C0000F0A3E4F0900F09E06404601C900F1674E8
:100C100023F0A3740FF0A3E4F0900F197402F0A373
:100C2000E4F07401900F09F0021342900F02E064A7
:100C3000047095900F23E4F0A380C8E8547FF50872
:100C4000900F02E064047080E508C394064003023C
:100C50000BC8E5082402F582E4340FF583E85480DC
:100C60006018A3A3A3A3A3A3A3E064037004780163
:100C700080027800900F23E88086E582240CF582BC
:100C8000E5833400F583E0640370E780E174F712D4
:100C900002B1E9FE900F21E07002A3E07012900F04
:100CA00002E064046015900F1FE07002A3E0600B87
:100CB0007404900F09F07901021342900F1BE05465
:100CC0001F12044A0002B00CCE0CD60CEE0C900F92
:100CD0001DE064016004790080DEEE900F14F06086
:100CE000047905800279067A0012057B80C8900F8E
:100CF0001FE0547FFA900F1DE070DBEAC3940650AA
:100D0000AFEA90620EF0900F1FE05480602FEE600B
:100D100004741080027440906211F0EE6004740359
:100D20008001E4C0E0EA2409F582E4340FF583D0C1
:100D3000E0F0EE6004790880317907802DEE6004E0
:100D4000742080027480906214F0EE60047403805A
:100D500001E4C0E0EA240EF582E4340FF583D0E02C
:100D6000F0EE6004790A8002790912057BE4906252
:100D70000E020CB57900120C8DE970031205672282
:100D80007901120C8DE9700312057922C082C083AB
:100D90005392FE900F1FE07002A3E0701E900F218F
:100DA000E07002A3E07014900F1D120DE2748058E1
:100DB000FA74FF59FBEA7001EB60077404900F09A5
:100DC000801AE8906200F0900F026009E0640270FF
:100DD0000C74038007E0640370037402F0D083D0C6
:100DE0008222E0F8A3E0F92274F61202B174FE1236
:100DF0000280120414900F1DE0FAA3E012044A01CD
:100E000002530E090E1C0E4C0E12065B120F8D12B1
:100E100001B4900F19F0A3E4F0020F3B7900120621
:100E20006C120F8DE924020909EA3400FA1201B4A8
:100E3000FC1919E0FAE92403090909EA3400FA1255
:100E400001B4F9EC900F19F0A3E980CCEAF912068D
:100E5000DB80B9900F16E4F0A3F0A3F0901789E0BF
:100E6000FAA3E0FB90178B120DE2E8C39AF508E9AC
:100E70009BF50974F85508F874FF5509F9E87001F5
:100E8000E97003020F4B8A828B8374037808120285
:100E90002EAC08AD090592900F1DE0FAA3E0FBE42B
:100EA000059293C0E0EBF8D0E0687073858284858A
:100EB00083850592A3E4936A7065900F1FE0FAA3FF
:100EC000E0FB858284858385A3A3E493C0E0EBF8EF
:100ED000D0E068704A858284858385A3A3A3E493C8
:100EE0006A703C858284858385A3A3A3A3E493F5DC
:100EF00008740193F509900F16E508F0A3E509F0D1
:100F0000A37480F0858284858385A3A3A3A3A3A370
:100F1000E493F8740193F9900F19E8F0A3E9F05302
:100F200092FEA3A3A3A3A3A3A3A3EC24FF1CED34CD
:100F3000FFFDEC7001ED6003020E95900F16E0FCD2
:100F4000A3E0FDA3E0FEEC4D4E70047404802790F6
:100F50000F09E064046023900F21E0FAA3E0FB9006
:100F60000F19120DE2C3EA98EB995008900F19EA95
:100F7000F0A3EBF07401900F09F0851082851183C6
:100F800012041C74021202667F03020314900F16EF
:100F9000EAF0A3EBF0A37480F0900F16E0F9A3E061
:100FA000FA7B802274F11202B174FE1202801204E4
:100FB000148A848B850592A3A3A3A385840E8585BB
:100FC0000FE493FC602490178DE0F582A3E0F58395
:100FD000E405921211127002EB69600EA3A3A3A3A1
:100FE000E41211127002EB6970F27F00EC700302E0
:100FF00010FC7A0079051205C38A088B09AC08AD8C
:1010000009EC7001ED70030210E78C848D85059268
:10101000A3A385840C85850DE493540FFE90620E86
:10102000F0750A008C848D85A3A3A3A3E493240701
:10103000F508A3E4933400F5097403780812022E2E
:10104000AA088C848D85A3A3A3A884A985850C8474
:10105000850D8593A2E750447448906211F074089E
:1010600012111B7003750A40750801750900EE78AE
:101070000812023D858284858385A3A39355086069
:1010800006E50AD2E0F50AE50A906212F0EA9062FB
:1010900010F0EE2409F584E4340F804374909062DC
:1010A00014F0741012111B7003750A407508017555
:1010B0000900EE780812023D858284858385A3A30A
:1010C000A39355086006E50AD2E0F50AE50A9062A6
:1010D00015F0EA906213F0EE240EF584E4340FF577
:1010E00085E4F090620EF00F850E84850F85E44351
:1010F000920193FAEFC39A5003020FF28510828592
:1011000011835392FE12041C74021202667F0802BD
:10111000031493F8740193F9EA6822F088848985AE
:10112000E4935403640122C082C0835392FE900F63
:101130001DE07002A3E07016900F1FE07002A3E0A4
:10114000700C900F21E064017002A3E0600474044D
:10115000800C900F167403F0A3740F1212A1900F5D
:1011600009F0020DDD74F51202B174FE1202801254
:101170000414900F02E06402601F900F1FE07002E1
:10118000A3E07015900F21E07002A3E0700B900FA8
:101190001EE0F9E47001E960097404900F09F0029F
:1011A000123E7A00790112057B900F1DE0607A7A79
:1011B00000F912066C8A828B83E5827002E58360F7
:1011C0006074040592900F02F0900F1DE0900F03E1
:1011D000F07508000592A3A3A3A3E49360598508C2
:1011E0000AE50A2404F8E4340FF9E8FEE9FFE48E86
:1011F000848F850592F07A0079041205C38A848B66
:10120000850592A3A3A3E493FC8E848F85E06C7084
:10121000E5120FA40508E493FAE508C39A50188074
:10122000BD7404900F09F0800E900F03F0740390CA
:101230000F02F0F91209BF7A00790212057B8510BE
:101240008285118312041C74021202667F04020359
:101250001474F61202B1900F02E06404701E900F35
:101260001BE064817016900F1DE07002A3E0700C0B
:10127000900F21E064017002A3E060047404801AFE
:10128000900F1FE02404F508A3E0340FF509900F38
:1012900016E508F0A3E5091212A1900F09F0020F5C
:1012A00088F0A3E4F0900F197401F0A3E4F0740146
:1012B0002274F71202B174FE120280120414900F0D
:1012C00002E064047012900F1BE06401700A900F3A
:1012D00021E07002A3E060087404900F09F08054CC
:1012E000900F1DE0FB900F1FE0FA900F03E0F91242
:1012F00006A38A088B09AE08AF09EE7001EF60D82B
:10130000900F1FE0FA790312057B900F1DE0C0E0FB
:10131000900F1FE02404F584A3E0340FF585D0E09E
:101320000592F0EEFAEFFB120FA4900F1FE0FA798E
:101330000412057B85108285118312041C7402122D
:1013400002667F0202031474F81202B174FE1202E4
:1013500080120414900F25E07002A3E0600B059248
:10136000900F251213C21202AF758B00C2E843AC76
:1013700020439A0290620FE0C2E1F0E0A2E740FB56
:10138000C29175BE051204E0E51670F6E59DA2E671
:1013900050FA7403F0E0A2E750FB900F27E07002D0
:1013A000A3E0600B0592900F271213C21202AF85C3
:1013B000108285118312041C74021202667F0102DE
:1013C0000314E0F582A3E0F58305922274F512027E
:1013D000B18A088B098C0A8D0B900F2978081202AC
:1013E00001E4900F2DF0900F2EF07408900F2FF065
:1013F0001206F27AFF7BFF120AA753F4FED2904343
:10140000FE011204E57F0402031474F51202B174A4
:10141000FE120280120414A814E85404600978141F
:1014200074FB56F6120733A814E8541060097814B8
:1014300074EF56F6120756A814E8A2E0500F78147D
:1014400074FE56F6121347781474FD56F61204EB28
:1014500090620E121545906214E0A2E0506790620F
:1014600016E0FA906217E0EAFF605A7508307509D5
:101470000F750A007808120424EFF97A287B6212AB
:101480000A22740312026675823075830F8F0BE097
:101490000592901782F024F5C394105009740190BE
:1014A0001783F0E48007E4901783F07401901784A9
:1014B000F00592A3150BE50B70D5740490620EF045
:1014C000E4906214F01215397E011204EB121545F6
:1014D000906211E0A2E040477A7C7B0F1216DAE9B5
:1014E000FE603CC3944140027E40EEF97C307D0FAB
:1014F0007A7C7B0F12162175083075090F750A006A
:101500007808120424EEF97A287B62120A617403C7
:10151000120266740490620EF07401906211F0126F
:101520001539EE7003858787851082851183120433
:101530001C7402120266021405900F70E090620E95
:10154000F01204E522E0900F70F0740490620EF047
:1015500022C082C08312170DE45392FEF0A3F01252
:1015600016CFE4F0A3F0EA2404F582EB3408F58307
:10157000E4F0A3F0D083D0822274F51202B174FE9D
:10158000120280120414E9FEEA2400F584EB340808
:10159000F5858584828585838E0812171C7F00500F
:1015A00068EE6058EA2404F8EB3408F98C828D83E5
:1015B000E0C0E088828983E0F508A3E0F509EA2528
:1015C00008F582EB3509F583D0E0F088828983E065
:1015D0002401F0A3E03400F088828983E07004A342
:1015E000E06408700888828983E4F0A3F00F8C829D
:1015F0008D83A3AC82AD83EFC39E40B08F0805926C
:10160000E02508F0A3E03400F0EFF98510828511A1
:10161000835392FE12041C74021202667F040203BA
:101620001474F51202B174FE120280120414E9FE61
:101630007F00ECF8EDF91216CFEA2400FCEB340839
:10164000FD8045858284858385E0F508A3E0F50962
:10165000EA2508F584EB3509F585E088848985124B
:1016600016C62401F0A3E034001216C67004A3E0ED
:101670006408700A858284858385E4F0A3F00F886E
:10168000848985A3A884A9858F84858408EFC39E57
:1016900050188C848D85439201E0F50AA3E0F50B88
:1016A000C3E508950AE4950B40998C828D83C3535A
:1016B00092FEE09508F0A3E09400F0EFF985108227
:1016C000851183021614F0858284858385E022EAE1
:1016D0002402F582EB3408F58322C082C0831216FF
:1016E000E9F8A3E0E8F90215741217115392FEE02D
:1016F0002274F71202B1E9FC12170D8C0812171CA4
:1017000050047901800279007F020203141217113C
:1017100022EA2400F582EB3408F58322E02508A3B1
:10172000E03400C394082253C67F5392FE22748093
:1017300055C6FA53BEFBE59DA2E550FAE59DA2E22F
:1017400040F48AC643BE045392FE22C082C0835333
:1017500092FE906189E0D2E6F090618AE0C2E1F009
:1017600074099061FAF074159061B2F0E49061AE82
:10177000F09061A3E0D2E6F0439A01E4906180F03A
:101780007478906181F0E4906182F0D2AF8001F0D2
:10179000D083D08222C082C08375F005E9A424D40E
:1017A0005392FE90618F80E7C0E074F1120352C241
:1017B000AFC2AFE5E9900F78F0E591900F79F07541
:1017C000E900759B00759100900F78E0A2E6500348
:1017D00012185BD2AF7401900F7BF0FF0203B912B5
:1017E00017E712191B80FB74F51202B175080B750F
:1017F000090078081204287C007D007A717B0F12A2
:101800001954740212026612193E12174B7A7C7B2D
:101810000F12155190179178081201F2AA08AB091E
:10182000AC0AAD0B1213CC43FD01D280D2AF7F04C2
:10183000020314C082C0835392FE901782E0F91213
:10184000179575E1EC75E1E3D083D0822275E1EF65
:1018500075E1EC7A7C7B0F1215512274F51202B1FE
:10186000747C1202507A01E5D9A2E750011AC2E74E
:10187000FE600F740412029BEEFFE5D9F0A31FEF88
:1018800070F8EA700302191374042EF508F97A7CD3
:101890007B0F1216F1E9607B8E0A740412029BE53D
:1018A00082250AF8E5833400F974FF28F58274FF75
:1018B00039F583E0A2E7505B750A04750B00780ADE
:1018C0001204287C007D00740212029BAA82AB8362
:1018D0001219547402120266851082E508F0740130
:1018E00012029BE4F0740212029BE4F0A3F079046C
:1018F000851082851183AC82AD837A7C7B0F1215B3
:1019000079EEF9740412029BAC82AD837A7C7B0F72
:10191000121579748412026602182EC082C0835395
:1019200092FE901784E0600512184DE4F090178342
:10193000E06005121833E4F012140A02184843E478
:101940000CE5E475E54453AFFEC2B9121727121730
:101950002ED2B92274F81202B1740812029BE0F878
:10196000A3E0F98A828B838003ECF0A3E8FEE9FF11
:1019700074FF2E1874FF3FF9EE7001EF70EB7F01DA
:031980000203144B
:04000005000000E116
:00000001FF
