:020000040000FA
:030000000200E318
:03004B000210F9A7
:10008300020FBC00000080FB120113B90003020041
:10009300CDE490010178FE79198002F0A3D8FCD950
:1000A300FA9019FEAA82AB83900116784B790180EE
:1000B30015E493A3AC82AD838A828B83F0A3AA82D7
:1000C300AB838C828D83D8E9D9E77582707583EA17
:1000D30074021200F575828675830074001200F5B0
:1000E30075D0007581BF751801751901759F0002E0
:1000F300008BC09FF59FE473D09F22D083D082C032
:100103009FE493C0E0740193C0E0740293F59F22CF
:10011300790122008001800280038004800580062B
:1001230080000102030405061300000000FFFFFF27
:10013300FF00080000010000007FFFFFFF00000830
:10014300006D4EC6413930000000F8FF0700F8FF8C
:10015300FF01F8FF03AAAAAAAAAAAAAAAA1200FE42
:100163006AFD011200FEEDFD011200FE41FE0112C7
:1001730000FEC2FE011200FEE8FE011200FE20FF97
:10018300011200FEAFFF011200FEDFEE021200FEBD
:1001930033EF021200FE46EF021200FE14F70212C2
:1001A30000FE31F6021200FE93ED021200FE2CEE69
:1001B300021200FEC85F001200FE1760001200FE6C
:1001C3001261001200FECC63001200FEAC64001248
:1001D30000FE1665001200FE9766001200FED06650
:1001E300001200FEE567001200FEB468001200FE74
:1001F300E768001200FEA469001200FE9D6B001266
:1002030000FE416D001200FEB66E001200FE1F6F6D
:10021300001200FE9470001200FEB271001200FE84
:10022300CF72001200FE6273001200FEFD7F001207
:1002330000FEA19F021200FE0CA1021200FEAEA15D
:10024300021200FE27A2021200FE41A4021200FEC7
:100253004FA5021200FEABA5021200FE3AA602123F
:1002630000FE8D9F011200FE0FA0011200FE78A177
:10027300011200FEC0A1011200FEEAA2011200FE5B
:1002830033A4011200FE5CA4011200FEE8A50112D2
:1002930000FE04A9011200FE82A9011200FEA0A91A
:1002A300011200FEBDA9011200FECFA9011200FE3A
:1002B300B4AA011200FEF3AA011200FE2BAB011235
:1002C30000FE83AB011200FEF1AC011200FEFAE363
:1002D300021200FEC9E4021200FEEFE4021200FE65
:1002E30009E5021200FEA6E6021200FE5EE8021213
:1002F30000FE86E8021200FEE9DD021200FE1BDEAC
:10030300021200FE68E0021200FEBE90021200FE1E
:10031300C392021200FE8B93021200FEA5950212F5
:1003230000FE3596021200FEAE96021200FE5797AB
:10033300021200FEBEA6021200FE05A7021200FE74
:1003430027A7021200FE02A8021200FE25A902122C
:1003530000FE7FAC021200FE7098021200FED799D5
:10036300021200FE5B9A021200FE1B9C021200FEA8
:100373002C9C021200FEC19C021200FEC39D0212BD
:1003830000FEBA9E021200FEEF9E021200FE139FB1
:10039300021200FE1FD6021200FEFDD6021200FE5C
:1003A3007FD7021200FE65D8021200FE53D9021253
:1003B30000FE94D9021200FE13DA021200FEAAC153
:1003C300021200FEFDC1021200FEC1C2021200FEB3
:1003D30069C3021200FE6DC5021200FEB1C502120E
:1003E30000FEEBC5021200FE79F2021200FE78F461
:1003F300011200FE03F6011200FE71F7011200FE66
:1004030054FA011200FEA2FB011200FE99FC011234
:1004130000FE0080021200FE0C82021200FEEF8337
:10042300021200FEC487021200FE0080011200FEC9
:100433005A80011200FE5D80011200FEE28101126A
:1004430000FE4483011200FEEF83011200FEA0842C
:10045300011200FE508A011200FE8C8E011200FE72
:10046300D48E011200FE218F011200FED5F002127C
:1004730000FEE9F0021200FEAEE8021200FEC1E83F
:10048300021200FEDCE9021200FEB1DF011200FEDF
:10049300B7E0011200FEB8E1011200FEEFE601121F
:1004A30000FEF3EF021200FEE54A001200FE624B6B
:1004B300001200FE024D001200FE6F4F001200FEFC
:1004C3003553001200FE4954001200FE7757001204
:1004D30000FE3758001200FEC158001200FECE5B2A
:1004E300001200FE795C001200FEAD5C001200FEFB
:1004F300885D001200FE045E001200FE6611001209
:1005030000FE8511001200FEBD11001200FEFF1354
:10051300001200FE1F14001200FE6615001200FEFA
:10052300AA18001200FE8D1E001200FE07230012FF
:1005330000FE6423001200FEEA24001200FE1E26C1
:10054300001200FE662D001200FEFA2D001200FEBE
:10055300AA30001200FE2731001200FE723300128F
:1005630000FE8933001200FEF033001200FE043453
:10057300001200FE8735001200FEB335001200FEA4
:10058300A8C8011200FED3C8011200FE39CA011225
:1005930000FED9CD011200FE41CE011200FE35CF7F
:1005A300011200FED3CF011200FE0CD0011200FE97
:1005B3000FD0011200FE34D1011200FED8D2011275
:1005C30000FE34D3011200FE90D3011200FED4D3F7
:1005D300011200FE8CD1021200FE20D5021200FE91
:1005E300DBD5021200FE7BBB021200FEECBB021243
:1005F30000FE30BC021200FE90BC021200FE3FBEA1
:10060300021200FEB2BE021200FEC0BF021200FEC2
:1006130061C0021200FEA5C0021200FEF8C0021261
:1006230000FE0AC1021200FEC988021200FE8A8B74
:10063300021200FE8390021200FED0FF011200FEA0
:1006430044AE011200FE77AE011200FEA5AE011208
:1006530000FED4AE011200FE1DB2011200FE2EB543
:10066300011200FE92B8011200FE72B9011200FEDF
:10067300E7BA011200FE47BB011200FE75BC01126E
:1006830000FEF18F011200FE2990011200FE5A9024
:10069300011200FEA991011200FED591011200FE84
:1006A3008C92011200FEB392011200FEEB92011232
:1006B30000FEA893011200FE0194011200FEF094C3
:1006C300011200FE9B95011200FE2696011200FE08
:1006D300F897011200FE7298011200FED4980112DD
:1006E30000FEFB98011200FE5299011200FEF599DB
:1006F300011200FE399A011200FE739A011200FEE4
:10070300EC9A011200FEA69B011200FEDD9C011271
:1007130000FE089D011200FE849D011200FE699EE9
:10072300011200FE149F011200FE5D9F011200FEE4
:1007330049CC021200FEC6CC021200FED6CC021235
:1007430000FEE6CC021200FEC5CD021200FED5CD9E
:10075300021200FEE5CD021200FEE3CE021200FEFD
:1007630058CF021200FEE3CF021200FE15D0021290
:1007730000FEFDD0021200FE24D1021200FE37D18A
:10078300021200FE51D1021200FE1DF8021200FEF9
:100793002EE1021200FE34E1021200FE50E10212C9
:1007A30000FE97E1021200FEA7E1021200FEC1E182
:1007B300021200FE0CE2021200FE21E2021200FE0F
:1007C30083E2021200FE77E3021200FEADF502128D
:1007D30000FE2EF6021200FE8AF4021200FEEBF473
:1007E300021200FEABF1021200FEECF1021200FE57
:1007F30026F2021200FE57F2021200FED5AD0212DB
:1008030000FEB2AF021200FE0FB0021200FE6CB087
:10081300021200FEE2B0021200FEA3B3021200FEB7
:100823001CF5021200FEA8F6021200FE04F70212E3
:1008330000FE8FF8021200FE7974001200FEAB7402
:10084300001200FED674001200FEDF74001200FED8
:100853002576001200FE0577001200FE4A7700128B
:1008630000FEA077001200FED477001200FE70791C
:10087300001200FEB479001200FEC579001200FEDA
:10088300B97A001200FEA47B001200FE837C0012E2
:1008930000FE267D001200FE647D001200FEA77D8F
:1008A300001200FED47D001200FE317F001200FE14
:1008B300D0EA011200FEDFEA011200FEEEEA0112A5
:1008C30000FE5DEC011200FEDFEC011200FE99ED6B
:1008D300011200FE01EE011200FE28EE011200FEDD
:1008E30041EE011200FE4DEF011200FE5AF101121A
:1008F30000FE9EF1011200FEF6F2011200FE9BF3D0
:10090300011200FEE4F3011200FEF7F3011200FEF0
:100913000AF4011200FEFBC6021200FE83C7021294
:1009230000FE95C7021200FE55C9021200FE26CA38
:10093300021200FE54CA021200FED2CB021200FEC3
:10094300FDCB021200FE37CC021200FE67DA021260
:1009530000FE28DB021200FEA9DB021200FE74DC9B
:10096300021200FE09DD021200FE3AF3021200FE3B
:10097300F735001200FE2937001200FEEE38001290
:1009830000FEAA39001200FEC639001200FEF63A34
:10099300001200FEAF3F001200FEE343001200FE10
:1009A3001D46001200FE8146001200FECB460012D7
:1009B30000FE2EEC021200FE4DD4011200FECAD638
:1009C300011200FE23D8011200FE6DD8011200FEB1
:1009D3008DD8011200FE35D9011200FE7DDB011214
:1009E30000FE4ADD011200FE8EDE011200FE2BDF47
:1009F300011200FE3DDF011200FEE5B4021200FE0B
:100A03006AB8021200FE08BA021200FEB1BC01125B
:100A130000FEADBE011200FEDEBE011200FE46BFA7
:100A2300011200FE63BF011200FE0DC1011200FEA0
:100A3300B2C1011200FE2BC2011200FE08C3011253
:100A430000FE39C3011200FE72C3011200FE80C50D
:100A5300011200FE5DC6011200FEF3C7011200FE83
:100A63000EC8011200FE3DC8011200FEBFEA0212C9
:100A730000FEF3EA021200FE49EB021200FE7CF7CD
:100A8300021200FED5F7021200FEEBF3021200FE83
:100A930060F802E066701008A3E066700A08A3E03D
:100AA30066700408A3E06622C3E7960809E7960880
:100AB30009E7960809E79622080808EAC0E0EBC0B0
:100AC300E086F0E7A4FA180986F0E7A42AFA1809E1
:100AD30086F0E7A42AFA180986F0E7A42AFA198609
:100AE300F0E7A4FBE5F02AFA190886F0E7A42BFB4C
:100AF300E5F03AFA190886F0E7A42BFBE5F03AFA99
:100B030018180986F0E7A4C5F02BFBE43AFA190894
:100B1300E7C5F0C6A426F6E5F03BFBE43AFA1886EF
:100B2300F0E7A4F6E5F00826F6E43B08F6E43A0815
:100B3300F6D0E0FBD0E0FA22C6F4C608C6F4C60835
:100B4300C6F4C608C6F4C62270090808082260164F
:100B5300181818C6C333C608C633C608C633C60832
:100B6300C633C6D5E0EA22E026F608A3E036F60847
:100B7300A3E036F608A3E036F622E026F008A3E069
:100B830036F008A3E036F008A3E036F022E657F685
:100B93000809E657F60809E657F60809E657F62264
:100BA300E056F608A3E056F608A3E056F608A3E0DD
:100BB30056F622E056F008A3E056F008A3E056F0FC
:100BC30008A3E056F022E066F008A3E066F008A36D
:100BD300E066F008A3E066F022E0F608A3E0F6087A
:100BE300A3E0F608A3E0F622E6F008A3E6F008A3E4
:100BF300E6F008A3E6F022CAC0E0E6F0A308DAFABA
:100C0300D0E0FA22CAC0E0E0A3C582CCC582C58386
:100C1300CDC583F0A3C582CCC582C583CDC583DA98
:100C2300E6D0E0CA22C3E498F8E499F9120C69808B
:100C330026C3E49AFAE49BFBE920E7E9120C69E492
:100C430098F8E499F922C3E498F8E499F9120C6945
:100C5300E498F8E499F9C3E49AFAE49BFB22EB20C5
:100C6300E7CFE920E7E0B90010BB0008E88AF08489
:100C7300F8AAF022E4FBC8FA22EB70227B10C833F7
:100C8300C8C933C9335007C39AC3DBF280069A50ED
:100C9300012ADBEAC833F4C8C933F4C9FA2275F070
:100CA30008E4C833C8C933C933C99AC99B5004C9B6
:100CB3002AC93BD5F0ECFBC833F4C8E4C9FA226077
:100CC3000C08C6C313C618C613C6D5E0F4227004B5
:100CD30022600D18C6C333C608C633C6D5E0F41860
:100CE30022251810AF08F518400215198008F518C9
:100CF30040021519D2AF22C0D0251810AF08F5183D
:100D0300500205198008F51850020519D2AFD0D04A
:100D1300222518F58210AF08F5184002151980082E
:100D2300F51840021519D2AF851983222518F582CB
:100D3300E43519F58322E473C0E0E8C0E0E58124DB
:100D4300FCF8E6A2E7D0E0F8D0E0222518C582C07F
:100D5300E0E51934FFC583C0E0E518C3958224F8A4
:100D6300F8E4C5A8858319858218C5A8E8CEF0A341
:100D7300E520F0A37808E608F0A3DEFAEFF0A3E598
:100D83008124FAF8E608F0A3E608F0A3E608F0A346
:100D93000808E608F0A3E608F0A315811581D0E062
:100DA300FED0E0F8158115811581E8C0E0EEC0E0C2
:100DB30022851983851882E0A3FEE0A3F520780835
:100DC300E0A3F608DFFAE0A3FFE0A3C0E0E0A3C0DE
:100DD300E0E0A3C0E0E0A3C0E0E0A3C0E0E4C5A876
:100DE300858218858319C5A8D083D0820200FBC0F1
:100DF300D02518C582C0E0E51934FFC583C0E0E5FE
:100E030018C3958224F310AF08858319858218804F
:100E130008858319858218D2AFC8F0A3E9F0A3EA45
:100E2300F0A3EBF0A37908E709F0A3D8FAECF0A359
:100E3300EDF0A3EEF0A3EFF0A3D0E0F0A3D0E0F049
:100E4300A3D0E0F0A3E520F0A3E5F0F0A3228519F9
:100E530083851882E0C0E0A3E0F9A3E0FAA3E0FBF6
:100E6300A37808E0F608A3DFFAE0FCA3E0FDA3E023
:100E7300FEA3E0FFA3E0C0E0A3E0C0E0A3E0F5D061
:100E8300A3E0F520A3E0A3F5F0E4C5A885831985C5
:100E93008218C5A8D082D083D0E0F8D0E0327402A3
:100EA30080027401C0E0F404120D14D0E0120BFAB6
:100EB3002274028000CCC0E0EDC0E0E518C39CCCF6
:100EC300AD1950011D10AF068C188D1980068C18B2
:100ED3008D19D2AF120C07D0E0FDD0E0FC22D083F5
:100EE300D082C5F0E493A3C5F0C395F0F5F0E49385
:100EF300A3C395F04005E5F0048001E475F002A476
:100F03002582F582E5F03583F583E493A3C0E0E41D
:100F130093C0E022D083D082E9C0E0E493A3C386E8
:100F2300F0C5F095F0F908E493A386F0C5F095F0C9
:100F3300700BE493A3C3994005E9048002A3E4750D
:100F4300F002A42582F582E5F03583F583D0E0F93C
:100F5300E493A3C0E0E493C0E022D083D082CCC06A
:100F6300E0E493A36006120F871470FAE493A3607E
:100F730006120FA61470FAD0E0FCE493A3C0E0E4D9
:100F830093C0E022C0E0E493A3D39C5010E493A366
:100F9300C39C400AD0E0D0E0D0E0020F7AA3A3A321
:100FA300D0E022C0E0E493A36C7009D0E0D0E0D09D
:100FB300E0020F7AA3A3D0E022C0E074F1120DF295
:100FC300C2AFC2AFE5E99019EEF0E5919019EFF0E9
:100FD30075E900759B00759100900CD2E0A2E75073
:100FE30004E0D2E4F09019EEE0A2E640030210CC54
:100FF300900C9DE0C3940240087401900C9602107B
:10100300CBE5D9FAC0E0900C9CE0C333F8E433F9A4
:10101300E82497F582E9340CF583E0F8A3E0F5833F
:101023008882D0E0F0900C9CE0C333F8E433F9E815
:101033002497F582E9340CF583E0F8A3E0F9EAC0DC
:10104300E088828983A3E0FCE82CF582E93400F58B
:1010530083A3A3A3A3A3A3A3A3A3D0E0F07B0180B3
:1010630043900C9CE0C333F8E433F9E82497F5820A
:10107300E9340CF583E0F8A3E0F9E5D9C0E08B0887
:1010830088828983A3E0FCE82CF8E93400F9E508B9
:1010930028F582E439F583A3A3A3A3A3A3A3A3A35E
:1010A300D0E0F00BEBC39A40B8E5D9E5D9900C9D9D
:1010B300E004F0900C9CE0F874012808E43400F993
:1010C3007A027B00120C61EAF09019EFE0A2E15082
:1010D30018E49019F0F0900CD3E0A2E65005E0C2BA
:1010E300E68005900C71E004F0D2AF74019019F121
:1010F300F07F02020E51C0E0C0D075D010C082C094
:10110300839019EBE02401F0A3E03400F09019ED93
:10111300E060249019EBC082C0839019E9E0F8A342
:10112300E0F9D083D082E0C398F8A3E099F9C3E84B
:1011330094FFE9947F501A53E4FD9019EBE0F8A370
:10114300E0F99019E9E8F0A3E9F0E49019EDF080F3
:101153000975DA0075DB0F43E402D083D082D0D067
:10116300D0E032C082C083900D58E0F912057412AA
:101173000502120580120478120430D083D0820253
:1011830000FBC082C083900D4B7464F0A3E4F07441
:1011930002900D4DF07404900DF0F07405900DEC79
:1011A300F0900DF4E04401F0A3E0F0900DEA74FF39
:1011B300F0A3F0D083D0820200FB74F0120D4E74C2
:1011C300FB120CE47401120D2FEAF0A3EBF074038D
:1011D300120D2FECF0A3EDF0E9851882851983F049
:1011E3007415120D2FE0F50AA3E0F50B7417120D19
:1011F3002FE0F508A3E0F5097419120D2FE0F50FA0
:10120300741A120D2FE0F50EE50A7002E50B601C4F
:10121300E5087002E5096014851882851983E0608A
:1012230004780180027800E824188036E50A700209
:10123300E50B7008E5087002E509601485188285DE
:101243001983E06004780180027800E8241080129A
:10125300851882851983E06004780180027800E8AC
:101263002408F9E50F6004740E29F9E50E600F7484
:1012730001120D2FE0FAA3E0FB12075A800D74014F
:10128300120D2FE0FAA3E0FB1207608A0C8B0DAE60
:101293000CAF0D7902EEFAEFFB1207F6E50E8E8224
:1012A3008F836005E044098003E0D2E3F0E5087032
:1012B30002E50960047C0180027C00E50A7002E516
:1012C3000B60047A0180027A00A3A882A983EAC48E
:1012D30054F0C0E0EC33333354F8FAD0E04AFAE088
:1012E3004AF07401120D2FE02406FAA3E03400FB48
:1012F300E50F601F88828983E0D2E1F08A828B83C5
:10130300E054F9F8A3E0F97402488A828B83F0A3CE
:10131300E9800A8A828B83E054F9F0A3E0F0900C11
:101323005EE0F8A3E0F98E828F83A3A3A3A3E8F082
:10133300A3E9F07403120D2FE0F8A3E0F98E828F76
:1013430083A3A3E8F0A3E9F074018E828F83A3A3A0
:10135300A3A3A3A3F0900D4AE08E828F83A3A3A33C
:10136300A3A3A3A3F0900D4AE004F0E50A7002E5FD
:101373000B603BE5087002E5096033750C08750DD9
:1013830000780C120EA1AC08AD09EE2408FAEF3474
:1013930000FB120A847402120CFA7508087509001E
:1013A3007808120EA1AC0AAD0BEE24108033E508C9
:1013B3007002E5096011750A08750B00780A120EB0
:1013C300A1AC08AD098017E50A7002E50B601F7533
:1013D30008087509007808120EA1AC0AAD0BEE24BB
:1013E30008FAEF3400FB120A847402120CFAEEFAC4
:1013F300EFFB7405120CFA7F08020DB474F6120D9C
:101403004EE9FEECFF74012FF91207668A828B8383
:10141300EEF0A3AA82AB837F02020DB474F2120D25
:101423004EE975F09DA42465F508E5F03402F5094D
:101433007908AA08FB12077E8A0C8B0DAE0CAF0D40
:10144300900E74E07025850882850983A3A3A3A366
:1014530074C2F0A3E4F0A808A9097A9DFB120C69F1
:10146300E89403F97ADE7B0102155E8E828F83A3F3
:10147300A3A3A3A3A3E0602C901369E06026900DBF
:10148300F5E0F9742059FBE47001EB6017750C006B
:10149300741E59F50D7409780C120CC2E50C600426
:1014A3007A0180027A008E828F83A3A3A3E0640172
:1014B3007004790180027900750B00780B120EA578
:1014C300EAF50B780B120EA5750C00750D00780C60
:1014D300120EA1780C120EA18E828F83E0FCA3E082
:1014E300FDAA08AB091205087406120CFA8A0C8BC4
:1014F3000DA80CA90DEE2402F582EF3400F583E06C
:101503006003E08006900DECE0C33388828983A3F7
:10151300A3A3A3A3A3F08E828F83A3A3A3A3A3E078
:10152300600888828983E0D2E6F08E828F83A3A34A
:10153300A3A3A3A3A3E0C0E07901AA08AB09120700
:101543007E8A828B83D0E0F0A808A9097A9D7B006C
:10155300120C69E89403F97A267B051208087F06C2
:10156300020DB474F0120D4E74F8120CE4740612EA
:101573000D2FEAF0A3EBF0E9C0E07405120D2FD0B4
:10158300E0F07403120D2FECF0A3EDF07E007F006A
:101593007406120D2FE0F8A3E0F5838882A3E0F828
:1015A3007406120D2FE028F8A3E03400F97409281B
:1015B300F50EE439F50F7401120D2FE4F0A3F0F5E5
:1015C30008F509E50E2402F50AE50F3400F50B854D
:1015D3000A82F583E0FAA3E0FB7403120D2FE0F80F
:1015E300A3E0F5838882EAF0A3EBF0E4C0E074188B
:1015F300120D2FE0F8A3E0F5838882D0E0F0900D80
:1016030058E07020900E3AE06407700302189C9033
:101613000E3BE0F97403120D2FE0FAA3E0FB120670
:10162300DC02189C850A82850B83E054F0F8A3E062
:10163300F974F068700374FF6970147403120D2F4A
:10164300E0F8A3E0F583888274FFF0A302189B857A
:101653000E82850F83A3E0A2E3402E8518828519AD
:101663008385820C85830D780C120EA17C00790092
:10167300850A82850B83E0FAA3E0FB1206C4740299
:10168300120CFAEA7001EB6039850E82850F83A391
:10169300E0A2E3506E85188285198385820C8583C9
:1016A3000D780C120EA17C007900E50E2408FAE5F2
:1016B3000F3400FB1206BE7402120CFAEA7001EB3F
:1016C30070417401120D2FAC82AD837A00851882AC
:1016D300851983E0F91205B0EA7001EB70257401F6
:1016E300120D2FE0F8A3E0F5838882A3A3E0540250
:1016F300F9E47001E9600302189C7401C0E07418F6
:1017030002188E850E82850F83E0C4135407540399
:101713006055850A82850B83E0FAA3E0FB12045A25
:101723008A088B09A808A909E87001E96039888249
:101733008983E0540E6007E0540E64087029A3A364
:10174300A3A3E0F8A3E0F97403120D2FE0FAA3E0DA
:10175300F5838A82E8F0A3E9F08508828B83E0545D
:10176300F1F0A3E002189B850E82850F83E0C4137A
:10177300540754037003021800E5087002E509607A
:101783007C850882850983E0540E6402706F7405BA
:10179300120D2FE0F97406120D2FE0FAA3E0FB12ED
:1017A30004668A088B09AE08AF09EE7001EF704931
:1017B300850A82850B83E0FAA3E0FB1204608A8228
:1017C3008B83E5827002E5836014A3A3A3E0F8A3EF
:1017D300E0F9900C5EE0687003A3E069601479009F
:1017E300850A82850B83E0FCA3E0FD7A007B00126F
:1017F30004487EFC7FFF02189CE402188A850E824F
:10180300850F83E0C41354075403602CE50870026A
:10181300E50970247405120D2FE0F97406120D2FDB
:10182300E0FAA3E0FB1204668A088B09AE08AF094D
:10183300EE7001EF70C380A6E0C413540754036035
:1018430042900DF4E0A2E0503A850A82850B83E0D2
:10185300FAA3E0FB1204847401120D2FEAF0A3EB48
:10186300F07401120D2FE07002A3E06010740112F6
:101873000D2FE0F8A3E0F58388820216151E1F746E
:101883000180041E1F7404C0E0741A120D2FE0F8C7
:10189300A3E0F5838882D0E0F0EEFAEFFB74081240
:1018A3000CFA7F08020DB474F0120D4E74FC120C86
:1018B300E4890C7E007F00851882851983E4F0A3F8
:1018C300F0F5088032E50875F00CA4F8AAF075F07D
:1018D3000CE509A42AF9E824C8F8E9340EF988824A
:1018E3008983E054FD64017004E8FEE9FFE5082400
:1018F30001F508E5093400F509C3E5089408E5098D
:101903009400A2D265D0335006EE7001EF60B67535
:101913000800750900021A28E50875F00CA4F8AA56
:10192300F075F00CE509A42AF9E82402FAE9340178
:10193300FBEA24C6F8EB340DF988828983E0A2E040
:101943004003021A1CEA24C9F582EB340DF583E047
:10195300FA74FF6A7003021A1CE8FEE9FFEA75F0E5
:101963000AA42454F8E5F0340FF985188285198305
:10197300E8F0A3E9F0851882851983E0F8A3E0F580
:10198300838882E0F97402120D2FAA82AB831206B8
:10199300DCEE2402F8EF3400F97402120D2FE0FAA2
:1019A300A3E0FB88828983E075F09DA4FC85F00A9F
:1019B300AD0AE075F09DA485F00A2466F582E50A78
:1019C3003402F583E02472F8E43402F9EC28F5825A
:1019D300ED39F583E06A7003A3E06B703CEE2403FA
:1019E300F50AEF3400F50B850A82F583E004F98EDE
:1019F300828F83A3A3A3A3A3A3A3A3E0FAA3E0FBE0
:101A03001205CEE9850A82850B83F07E007F00856F
:101A13001882851983E4F0A3F0E5082401F508E5AD
:101A2300093400F509C3E5089408E5099400A2D236
:101A330065D0335009EE7001EF700302191B75086E
:101A4300007509008065E50875F00CA4F8AAF07527
:101A5300F00CE509A42AF9E82402FAE93401FBEAC7
:101A630024C6F8EB340DF988828983E0A2E0502F75
:101A73009019EBC082C083EA24CAF582EB340DF5DA
:101A830083E0FAA3E0FBD083D082E0C39AFAA3E019
:101A93009BFBC3EA94FFEB947F5004E8FEE9FFE568
:101AA300082401F508E5093400F509C3E50894089D
:101AB300E5099400A2D265D0335006EE7001EF60C1
:101AC30085EE7001EF7003021DB9E50C700A7A20F0
:101AD3007B0512074E021E83851882851983E070E9
:101AE30002A3E06064EE2403F50AEF3400F50B74FF
:101AF30001C0E0850A82850B83E05407F8D0E0B883
:101B030000028004C333D8FCFAE0131313541FF804
:101B1300EE28F8EF3400F9740B28F582E439F583E5
:101B2300E04AF0850A82850B83E004F98E828F8375
:101B3300A3A3A3A3A3A3A3A3E0FAA3E0FB1205CE4D
:101B4300E9850A82850B8380479019EBE02410F81E
:101B5300A3E03400F98E828F83A3A3A3A3E8F0A3A9
:101B6300E9F08E828F83E0F8A3E0F9740358FAE872
:101B73001313543FF8740128F50A750B00740278A7
:101B83000A120CD174FC550A4A8E828F83F0A3E9A2
:101B9300F0750E007C00802FEC75F00AA42455F537
:101BA30082E5F0340FF583E0F8A3E0F9740159FB03
:101BB300E47001EB6010E8540CFA74046A60057475
:101BC300086A7002050E0CECC0E09010F9E0FAD040
:101BD300E0C39A40C3750A00750B00802FEE250AF7
:101BE300F8EF350BF9740B28F582E439F583E0F946
:101BF30012072AE9F8E50A28F50AE50B3400F50B84
:101C0300E50A2401F50AE50B3400F50BC3E50A9454
:101C130001E50B9400A2D265D03340C18E828F833D
:101C2300A3A3A3E064FF6003021CC68E828F83E03C
:101C33001313543FC394025057850E0AE50A6508EF
:101C43007002E5097017A3A3A3A3A3A3E0F8A3E07D
:101C5300F9900C5EE0687003A3E0696033E50E6001
:101C63006274FF250EF874FF3400F9E86508700309
:101C7300E96509704E8E828F83A3A3A3A3A3A3E078
:101C8300F8A3E0F9900C5EE0687003A3E0696033A9
:101C9300E50C600F75F09DA42465FAE5F03402FBB2
:101CA3001207548E828F83A3A3E0F50CEE7001EF2D
:101CB30060118E828F83E054FEF0A3E0F0900F2832
:101CC300E014F0E50C75F09DA42465F508E5F03407
:101CD30002F509EE2402FAEF3400FB8A828B83E0DB
:101CE300650C6073E5082406F50EE5093400F50F6D
:101CF300850E82F583E05401F50D750A9D750B0081
:101D0300780A120EA18A828B83E075F09DA4246564
:101D1300FCE5F03402FDAA08AB09120A847402122E
:101D23000CFA850E82850F83E054FEF8A3E0F9E5F3
:101D33000DA2E0E492E048850E82850F83F0A3E9CB
:101D4300F07907AA08AB0912077E8A828B8374FF96
:101D5300A3A3A3A3A3A3F0A808A9097A9D7B0012B8
:101D63000C69E89403F50A851882851983E07002EB
:101D7300A3E060377907AA08AB0912077E8A0E8BA6
:101D83000F851882851983E0F8A3E0F5838882E044
:101D9300F9EA24020A0AEB3400FB1206DC850E8200
:101DA300850F83A3A3A3A3E04405F0A90A7A6A7B62
:101DB300031208088013E50C600F75F09DA42465D9
:101DC300FAE5F03402FB120754900F28E070030287
:101DD3001E83EE7001EF600C79007A207B051208F8
:101DE30008021E839019EBE02404FEA3E03400FFF5
:101DF3007508007509008057E50875F00CA4F8AA6A
:101E0300F075F00CE509A42AF9E82402FAE9340193
:101E1300FBEA24C6F582EB340DF583E0A2E0502300
:101E23001313543FC39402501AEA24CAF582EB34C5
:101E33000DF583E0F8A3E0F9C3E89EE99F5004E8B9
:101E4300FEE9FFE5082401F508E5093400F509C3B7
:101E5300E5089408E5099400A2D265D03340997946
:101E6300007A207B0512081A9019EBE0F8A3E0F939
:101E7300EEC398FCEF99FD79007A207B05120814D4
:101E83007404120CFA7F08020DB474F0120D4E7430
:101E9300F7120CE4E9C0E07401120D2FD0E0F0E07A
:101EA30075F09DA42465F8E5F03402F97407120D6A
:101EB3002FE8F0A3E9F07407120D2FE0F50AA3E071
:101EC300F50B850A82F583A3E0F8E50A28F8E50B0C
:101ED3003400F9740928F508E439F5097901AA0AE7
:101EE300AB0B12077E8A828B83E0FEE48518828522
:101EF3001983F085820C85830D780C120EA174066C
:101F0300120D2F85820C85830D780C120EA1740699
:101F1300120D2FAC82AD83EEF9AA0AAB0B12051A90
:101F23007404120CFA8A0C8B0DEA7001EB60030245
:101F3300223C850882850983A3A3E054F0F8A3E03B
:101F4300F974F068700374FF6960030220627C0017
:101F53007877790E800E0CEC75F005A42477F8E5FC
:101F6300F0340EF9ECC39410503E88828983E0A2CA
:101F7300E050E3A3A3E0FAA3E0FB8508828509838D
:101F8300A3A3A3A3E06A7003A3E06B70C98882894B
:101F930083A3A3A3A3E0FA850882850983A3A3A34C
:101FA300A3A3A3A3E06A70AEECC39410400478002B
:101FB3007900E87001E960030220627C0080010C73
:101FC300ECC39410502BEC75F005A42477FAE5F0DC
:101FD300340EFB8A828B83E0A2E040E3EAF8EBF95C
:101FE300900EC7E004F088828983E04401F0A3E007
:101FF300F0E87001E970030220A585088285098352
:10200300A3A3A3A3E0FAA3E0FB88828983A3A3EAA3
:10201300F0A3EBF0850882850983A3A3A3A3A3A35D
:10202300A3E088828983A3A3A3A3F088828983E0A2
:102033005401FAA3E0FB74124A88828983F0A3EB6C
:10204300F0900EC7E06401701679FF7A507B051299
:10205300081A7C417D0079007A507B0512081479B7
:1020630007AA0AAB0B12077E8A0E8B0FAC0EAD0FBD
:10207300900C5EE0F8A3E0F98C828D83E8F0A3E98D
:10208300F07402120D2FE0F8A3E0F98C828D83A384
:10209300A3E8F0A3E9F07404120D2FE0600D7A04B5
:1020A300800B750CFF750DFF02223C7A007402123F
:1020B3000D2FE064FF7004A3E064FF6004780180E7
:1020C300027800E84A8C828D83A3A3A3A3F0EE8C4D
:1020D300828D83A3A3A3A3A3A3F085088285098389
:1020E300A3A3E054F0F8A3E0F974F068700374FF5D
:1020F3006960030221F0900D58E070030221F09013
:102103000F28E0C39408509A7A007E007F00800174
:102113000AEAC39408502BEA75F00CA424C8F8E526
:10212300F0340EF988828983E0A2E040E3E8FEE917
:10213300FF900F28E004F08E828F83E04401F0A328
:10214300E0F07401120D2FE08E828F83A3A3F08E33
:10215300828F83E05403F0A3E0F08508828509832E
:10216300A3A3A3A3E0F8A3E0F98E828F83A3A3A381
:10217300A3A3A3E8F0A3E9F0EE2408F8EF3400F9F1
:10218300E8FAE9FB850882850983A3A3E0F8A3E0C5
:10219300F98A828B83E8F0A3E9F0850882850983B5
:1021A300A3A3A3A3A3A3A3E08E828F83A3A3A3A329
:1021B300A3A3A3A3A3A3F079008A828B83E0FAA34A
:1021C300E0FB1205CEE98E828F83A3A3A3F07901EE
:1021D300EE240BFAEF3400FB1207F679007A207B2A
:1021E3000512081A7A207B0512074E8016A80AA941
:1021F3000B7A9D7B00120C69E89403F97A6A7B03DE
:10220300120808850882850983A3A3E0F8A3E0F9EF
:10221300850882850983A3A3E8F0A3E9F0E50824F0
:1022230004F8E5093400F988828983E0FAA3E0FB26
:1022330088828983EAF0A3EBF0E50C7002E50D7068
:10224300030222FD74FC650C700474FF650D7003BA
:102253000222FD7405120D2FE4F0A3F07405120D94
:102263002FAC82AD837402120D2FE0FAA3E0FB12B0
:1022730005BCEA7001EB707B7405120D2FE0700250
:10228300A3E0606F7405120D2FE02401F8A3E0347E
:1022930000F988828983A3E0541CFBE4700374046F
:1022A3006B601188828983A3E0541CF9E470037482
:1022B3001469703F79037407120D2FE0FAA3E0FB52
:1022C30012077E851882851983E08A828B83F074D6
:1022D30002120D2FE0F8A3E0F98A828B83A3E8F0C2
:1022E300A3E9F07401120D2FE0F97A9E7B0812081E
:1022F300088007AA0AAB0B1207547409120CFA7F61
:1023030008020DB474F6120D4EE9FE790375F09DC3
:10231300A42465FAE5F03402FB12077E900E6EE00A
:102323008A828B83F0E0120F5D0003E13923E939E0
:1023330023F03D2344237409800274068A828B832D
:10234300F0900E6FE0F8A3E0F98A828B83A3E8F0A4
:10235300A3E9F0EEF97A9E7B081208087F02020DCA
:10236300B474F0120D4E74E9120CE4890AE975F0A5
:102373009DA42465F508E5F03402F5097901AA085E
:10238300FB12077E8A0E8B0F8A828B83E064FE70BA
:1023930021900E3AE06407701979FF7AD27B041218
:1023A300081A7C407D01A90A7AD27B041208140220
:1023B30024E08A828B83E064FD7008A90A12041862
:1023C3000224E0E064FC700F7BFF901115E0FAA992
:1023D3000A1205620224E0850882850983A3E0F8D6
:1023E300E50828F8E5093400F9740928FCE439FD07
:1023F300851882851983AA82AB831202E6740512BB
:102403000D2FE0FEA3E0FFE5082404F50CE50934F5
:1024130000F50D850E82850F83E064FB705AAA08D0
:10242300AB091207847909AA08AB0912077E850C48
:1024330082850D83E08A828B83F0A3AA82AB8374A7
:10244300FF6E700374FF6F600DEAFCEBFDEEFAEFB5
:10245300FB1206E880177508087509007808120E44
:10246300A17C007D00120A907402120CFAA90A7A68
:10247300AA7B081208088065E064FF7030850C822F
:10248300850D83E07002A3E0601A850C82850D83BD
:10249300E0900E6EF0900E6FEEF0A3EFF0A90A122B
:1024A300052C8039AA08AB091207548030A90A7A8F
:1024B300DE7B01120808850C82850D83E07002A380
:1024C300E0601A850C82850D83E0900E6EF0900E0D
:1024D3006FEEF0A3EFF07A2C7B0512074874171206
:1024E3000CFA7F08020DB474F0120D4E8908E970DE
:1024F30003022619900F38E0700302261975F003C2
:10250300A42426F50EE5F0340FF50FE975F09DA42C
:102513002402F8E5F03401F9E82463FAE93401FB15
:10252300E50E2402FEE50F3400FF850E82850F833E
:10253300E054FE60030225E5E82469F50CE9340163
:10254300F50D850C82F583E05401F509750A9D7537
:102553000B00780A120EA18E828F83E075F09DA482
:102563002465FCE5F03402FD120A847402120CFAAD
:10257300850C82850D83E054FEF8A3E0F9E509A2FA
:10258300E0E492E048850C82850D83F0A3E9F08EA8
:10259300828F83E075F09DA4246BF582E5F034020D
:1025A300F583E04408F0A3E0F0A9087A4A7B05121A
:1025B300080874FFC0E079018E828F83E075F09D77
:1025C300A42465FAE5F03402FB12077E8A828B832A
:1025D300D0E0F08E828F83E0F97A267B051208081B
:1025E30080171207548E828F83E075F09DA42465B3
:1025F300FAE5F03402FB120754850E82850F83E05F
:1026030054FEF0A3E0F0900F38E014F0E060077A96
:10261300387B051207487F08020DB474F0120D4E83
:1026230074DB120CE4E9851882851983F0E075F0F8
:102633009DA42465F8E5F03402F97401120D2FE826
:10264300F0A3E9F0750E00E4C0E07405120D2FD07D
:10265300E0F07401120D2FE02401F8A3E03400F937
:102663007409120D2FE8F0A3E9F07409120D2FE09D
:10267300F8A3E0F5838882E0F87401120D2FE028B7
:10268300F8A3E03400F9740928FCE439FD740E1250
:102693000D2FAA82AB831202E6E9C0E07406120D85
:1026A3002FD0E0F07409120D2FE0F8A3E0F5838832
:1026B30082E0C0E07401120D2FE0F8A3E0F58388F7
:1026C30082A3A3A3D0E0F07901E9120D2FE0FAA3CE
:1026D300E0FB1207787406120D2FE0F97401120D56
:1026E3002FE0FAA3E0FB1207728A088B0912057A1E
:1026F300E9C0E0740B120D2FD0E0F0850882850944
:1027030083E05403F50FA3A3A3A3A3A3E0600A7478
:1027130001650F601BE50F60177401120D2FE0FABE
:10272300A3E0FB1207547425120CFA7F08020DB4C0
:10273300850882850983A3A3E0F8A3E0F974031253
:102743000D2FE8F0A3E9F0850882850983A3A3A3ED
:10275300A3E0F8A3E0F97407120D2FE8F0A3E9F062
:102763007403120D2FE054F0F8A3E0F974F06870CD
:102773000374FF696003022AD87403120D2FE06407
:10278300FF7004A3E064FF60487403120D2FE0643C
:10279300FD7004A3E064FF7006900C5DE07032747A
:1027A30003120D2FE064FC7004A3E064FF70069035
:1027B3000F53E0601C7403120D2FE064FB7004A33D
:1027C300E064FF600302271C900F53E060030227BD
:1027D3001C900F53E060030229D17B007EC87F0E5B
:1027E300800E0BEB75F00CA424C8FEE5F0340EFF4D
:1027F300EBC3940850438E828F83E0A2E050E3A39F
:10280300A3A3A3A3A3E0F8A3E0F97407120D2FE099
:10281300687003A3E06970CA8E828F83A3A3A3A306
:10282300A3A3A3A3A3A3E0FA850882850983A3A393
:10283300A3A3A3A3A3E06A70A9EBC3940840047EF7
:10284300007F00EE7001EF70030229D1740F120DA7
:102853002FE054C0648060030229D1740C120D2F41
:10286300AC82AD83741D120D2FE0FAA3E0FB1205B9
:10287300BCEA7001EB60030229D1740C120D2FE046
:10288300F8A3E0F97A0A7B00120C69E89488FCE962
:102893009401FD750A01750B00ECF8EDF97A087BDC
:1028A30000120C61EA780A120CD1850A0CECF8EDDF
:1028B300F97A087B00120C61880A890BEE250AF865
:1028C300EF350BF9740B28F582E439F583E0450CF9
:1028D300F0750C007C00802FEC75F00AA42455F5EC
:1028E30082E5F0340FF583E0F8A3E0F9740159FBB6
:1028F300E47001EB6010E8540CFA74046A60057428
:10290300086A7002050C0CECC0E09010F9E0FAD0F4
:10291300E0C39A40C3750D00750A00750B0080274C
:10292300EE250AF8EF350BF9740B28F582E439F537
:1029330083E0F912072AE9250DF50DE50A2401F5CF
:102943000AE50B3400F50BC3E50A9401E50B94008B
:10295300A2D265D03340C9E50C650D701B8E828F02
:1029630083A3A3A3A3A3A3E0F8A3E0F9900C5EE0E1
:10297300687003A3E0696030850D0A74FF250CF8C5
:1029830074FF3400F9E8650A7001E970418E828FA3
:1029930083A3A3A3A3A3A3E0F8A3E0F9900C5EE0B1
:1029A300687003A3E06960268E828F83A3A3E0F996
:1029B3007A447B05120808EE7001EF60118E828F56
:1029C30083E054FEF0A3E0F0900F28E014F07C00C5
:1029D3007877790E800E0CEC75F005A42477F8E572
:1029E300F0340EF9ECC39410503988828983E0A245
:1029F300E050E3A3A3E0FAA3E0FB7407120D2FE07A
:102A03006A7003A3E06B70CE88828983A3A3A3A318
:102A1300E0FA850882850983A3A3A3A3A3A3A3E064
:102A23006A70B3ECC39410400478007900E8700135
:102A3300E9600302271C7E0080010EEEC394105050
:102A43002BEE75F005A42477FAE5F0340EFB8A82A9
:102A53008B83E0A2E040E3EAF8EBF9900EC7E004D1
:102A6300F088828983E04401F0A3E0F0E87001E993
:102A7300700302271C7407120D2FE0FAA3E0FB88F2
:102A8300828983A3A3EAF0A3EBF0850882850983F7
:102A9300A3A3A3A3A3A3A3E088828983A3A3A3A33C
:102AA300F088828983E05401FAA3E0FB74124A8818
:102AB300828983F0A3EBF0900EC7E064017016796E
:102AC300FF7A507B0512081A7C417D0079007A5009
:102AD3007B05120814850882850983A3E0A2E150CF
:102AE30077E50F60067401650F706D7406120D2F84
:102AF300E0FC740E120D2FAA82AB83851882851910
:102B030083E0F912062EEA7001EB600302272974B1
:102B130001120D2FE02406F8A3E03400F98882891E
:102B230083E054F9FAA3E0FB74024A88828983F0B4
:102B3300A3EBF07409120D2FE0F8A3E0F58388826C
:102B4300E0F87401120D2FE028F8A3E03400F974C3
:102B53000928F508E439F509E5082402F8E50934FC
:102B630000F97403120D2FE0FAA3E0FB8882898336
:102B7300EAF0A3EBF0E5082404FAE5093400FB745A
:102B830007120D2FE0FCA3E0FD8A828B83ECF0A3F8
:102B9300EDF0E5082406FCE5093400FD8C828D8305
:102BA300E014F0900D58E0FE74026E600874016E3C
:102BB3006003022C5788828983E054F0FEA3E0FF70
:102BC30074F06E700374FF6F7067740B120D2FE057
:102BD300FE7409120D2FE0F8A3E0F5838882E0F874
:102BE3007401120D2FE028F8A3E03400F9EE28F564
:102BF30082E439F583A3A3A3A3A3A3A3A3A3E0FE22
:102C0300750E018C828D83E06074E50F601574018D
:102C1300650F706A74096E600A74036E6005740A46
:102C23006E705B7401C0E07405120D2FD0E0F0806C
:102C33004D88828983E0F8A3E0F9900C5EE0687028
:102C430003A3E0697005750E0180338C828D83E0E8
:102C530070D1802A88828983E0FCA3E0FD900C5E1A
:102C6300E06C7003A3E06D60DD88828983E054F03B
:102C7300F8A3E0F974F068700374FF6960C8740323
:102C8300120D2FAC82AD838A828B83E0FAA3E0FB23
:102C93001205BCEA7001EB701874FFC0E0740312F4
:102CA3000D2FE0F8A3E0F5838882A3A3A3A3D0E0CC
:102CB300F07405120D2FE06067E50E60637E007A05
:102CC300007B0080010EEEC39405502BEE75F003DC
:102CD300A42429F8E5F0340FF988828983E0A2E07F
:102CE30040E3E8FAE9FB900F38E004F08A828B8333
:102CF300E04401F0A3E0F0EA7001EB60588518822C
:102D0300851983E08A828B83A3A3F08A828B83E075
:102D13005401F0A3E0F07A387B0512074802272913
:102D2300E0602B74FFC0E07901E9120D2FE0FAA3F4
:102D3300E0FB12077E8A828B83D0E0F085188285C0
:102D43001983E0F97A267B05120808022729E50E84
:102D5300700302271C851882851983E0F97A4A7B60
:102D63000580E574F6120D4E74E9120CE4E9FE7960
:102D730017851882851983AA82AB831207F6790215
:102D8300851882851983AA82AB8312029E790285F4
:102D93001882851983AA82AB8312029885188285CB
:102DA3001983E0D2E6F07405120D2F74FFF0A3F03F
:102DB300900C5EE0F8A3E0F9740F120D2FE8F0A376
:102DC300E9F07B017A027902120280EE75F09DA48C
:102DD3002465FAE5F03402FB120760851882851931
:102DE30083AC82AD83120286EEF912053274171298
:102DF3000CFA7F02020DB474F2120D4E890AE975C2
:102E0300F09DA42465FEE5F03402FF8E828F83A338
:102E1300858208858309E0F8EE28F8EF3400F97419
:102E23000928F50CE439F50D850C82F583E054038C
:102E3300F50BAA0CAB0D12057AE9FAE50B700CA998
:102E43000A7AE47B011208080230A57401650B605D
:102E5300030230A58A82A882850882850983E0FA65
:102E6300EE2AFAEF3400FBE82AF582E43BF583A36C
:102E7300A3A3A3A3A3A3A3A3E0FA74046A702F8557
:102E83000882850983E0FAEE2AFAEF3400FBE82A88
:102E9300F582E43BF583A3A3A3A3A3A3A3A3A3A3C3
:102EA300E0FCAA0CAB0DA90A1205560230A5740169
:102EB3006A7058900F53E07052850882850983E049
:102EC300FAEE2AFAEF3400FBE82AF8E43BF9740A35
:102ED30028F508E439F509E5082402F8E509340082
:102EE300F988828983E0FAA3E0FB88828983EAF088
:102EF300A3EBF07808120EA1AC0CAD0DEEFAEFFBCC
:102F030012044E7402120CFA0230A574026A70366F
:102F1300900F53E07030850882850983E0FAEE2A2A
:102F2300FAEF3400FBE82AF8E43BF9740A28F508C1
:102F3300E439F5097808120EA1AC0CAD0DEEFAEFE9
:102F4300FB12045480BD74066A700E900F53E07038
:102F530008A90A1204120230A574096A707D850853
:102F630082850983E0FAEE2AFAEF3400FBE82AF8B7
:102F7300E43BF9740A28F508E439F509850882F574
:102F830083E054F0702F750C08750D00780C120E49
:102F9300A17C4E7D0D850882850983A3AA82AB831C
:102FA300120A7E7402120CFAEA7001EB70047401C7
:102FB3008001E4700AEEFAEFFB1207540230A58594
:102FC3000882850983E0540FFCE5082409FAE50922
:102FD3003400FBA90A1205E60230A574036A704A9D
:102FE300850882850983E0FAEE2AFAEF3400FBE8CC
:102FF3002AF8E43BF9740A28F582E439F583E0F50D
:103003000BA3E0F508A3E0F5097903EEFAEFFB1251
:10301300077E8A828B83E50BF0A3E508F0A3E5091D
:10302300F0A90A7A9E7B08022E4874076A7007A9E2
:103033000A1204D8806C740A6A6003022FB88508E8
:1030430082850983E0FAEE2AFAEF3400FBE82AF8D6
:10305300E43BF9740A28F508E439F509850882F593
:1030630083E054F06003022FB8750C08750D0078E7
:103073000C120EA17C4E7D0D850882850983A3AABF
:1030830082AB83120A7E7402120CFAEA7001EB70AF
:103093000474018001E47003022FB8AA08AB09127B
:1030A30006167F06020DB474F7120D4E900EC7E09C
:1030B300606D75080080138A828B83E054FEF0A351
:1030C300E0F0900EC7E014F00508E508C394105033
:1030D30041E50875F005A42477F8E5F0340EF9E826
:1030E300FAE9FB8A828B83E0F8A3E0F9E8A2E050D7
:1030F300D754FE60C2E8FC74015CFEECC313F874A1
:10310300FF28C333F874FE584E8A828B83F0A3E9F9
:1031130080B57C417D0079007A507B051208147FCD
:1031230001020DB474F1120D4E74FD120CE4890EFC
:10313300ECFE7401120D2FE4F0A3F0E975F09DA4E9
:103143002465F50AE5F03402F50B851882851983A9
:103153008582088583097808120EA17C0079008A8C
:10316300828B83A3A3A3A3E0FAA3E0FB1206C47498
:1031730002120CFA8A088B09EA7001EB70327401AF
:10318300120D2FAC82AD837A00851882851983E0F6
:10319300F91205B0EA7001EB6016EEA2E6400B856A
:1031A3001882851983E0F912070C7508FF7509FF6A
:1031B300E5087002E509702A7401120D2FE0F8A3E7
:1031C300E0F5838882A3A3E0541CF9E47001E9606D
:1031D30011EEA2E64006900D58E070067508FF75E3
:1031E30009FFE5087002E509600302336174011207
:1031F3000D2FE0F8A3E0F5838882A3A3E0541CF924
:10320300E47001E96003023357EEA2E6401C85181F
:1032130082851983E0901117F0EEA2E5E492E09025
:103223001118F07A5C7B05120748EEA2E64007A26C
:10323300E74003023341900D58E07003023341909D
:103243000DF5E0F9742059FBE47001EB601D75087E
:1032530000741E59F50974097808120CC2E5086058
:103263000A120A5AE960047F0180027F007401C0D8
:10327300E0F5087808120EA5EFF5087808120EA5F8
:103283007508007509007808120EA175086575099F
:103293000C7808120EA179007CFD7DFFAA0AAB0B06
:1032A3001205087406120CFA8A828B83A3A3A3A3C4
:1032B300A3A3D0E0F0EF6020E50A2406F8E50B3481
:1032C30000F988828983E054F9FAA3E0FB74024A87
:1032D30088828983F0A3EBF07C017904AA0AAB0B03
:1032E30012050E8A828B83E4F0EEA2E55004D2F03D
:1032F3008002C2F0A2F0E492E0C43354E0FAE04A60
:10330300F074805EFAE04AF0EEA2E5E492E09011F8
:1033130015F074FCC0E07901AA0AAB0B12077E8A90
:10332300828B83D0E0F0A80AA90B7A9D7B00120C54
:1033330069E89403F97A267B051208088027900D23
:1033430058E070107BFFEEA2E5E492E0FAA90E12BA
:1033530005628011851882851983E0FB80E8AA0A3B
:10336300AB0B1207547403120CFA7F07020DB474EB
:10337300F7120D4E901117E0FB901118E0FA1205A9
:10338300627F01020DB474F3120D4E89088A0C8B0F
:10339300097909E50875F09DA42465FAE5F034027E
:1033A300FB12077E8A0A8B0BAE0AAF0B74FF65090B
:1033B3007019750A08750B00780A120EA17C007D3E
:1033C30000120A907402120CFA8005A9091206D69B
:1033D3008E828F83A3A3A3A3A3A3A3A3E50CF0A926
:1033E300087AA47B081208087F05020DB474F7124B
:1033F3000D4EE9FE1205A4EEF912070C7F01020D32
:10340300B474F0120D4E74FF120CE48A0EE975F0D9
:103413009DA42465F50CE5F03402F50DE490111636
:10342300F09018B3F0900E74F0900E75F0901114A4
:10343300F0900EC7F074FF900E3BF0E4900F28F06D
:10344300900F3FF0AA0CAB0D120784E50E70030238
:1034530035177910AA0CAB0D12077E8A088B09AEBB
:1034630008AF0979101207F675080875090078087E
:10347300120EA17C4E7D0DEEFAEFFB120A8474024C
:10348300120CFAEE240CF8EF3400F9900D58E064B6
:1034930001700888828983E0440EF0900C5DE0603F
:1034A3000888828983E0D2E3F088828983E0D2E7C7
:1034B300F07402C0E0EE240DF582EF3400F583D002
:1034C300E0F090111C7808120BDC8E828F83A3A38B
:1034D300A3A3A3A3A3A3E508F0A3E509F0A3E50A27
:1034E300F0A3E50BF07403C0E0EE240EF582EF3495
:1034F30000F583D0E0F074019018B0F0A80CA90D8A
:103503007A9D7B00120C69E89403F97AF07B04122C
:103513000808806685188285198385820885830952
:103523007808120EA17C007900900C5EE0FAA3E00B
:10353300FB1206C47402120CFAEA7001EB700B85DD
:103543001882851983E0F912056875080875090062
:103553007808120EA17C007D007A4E7B0D120A9032
:103563007402120CFA900C5B74FFF0A3F0900C5EE3
:10357300F0A3F0AA0CAB0D1207547401120CFA7FDE
:1035830008020DB4C082C083E9900D58F07401693C
:10359300600574026970047401800A74036970031E
:1035A300E480027402900CD0F0D083D0820200FB3E
:1035B300C082C0838A828B83A3E0A2E0E492E0F816
:1035C300E0A2E150047A0E80027A00E0A2E4E492E1
:1035D300E0C0E0E0A2E3E492E0FCD0E02C3333333C
:1035E30054F8C0E0EA28FAD0E02A2408F9D083D0BE
:1035F300820200FB74F0120D4E74FC120CE4890E6F
:10360300E975F09DA42402F8E5F03401F9E8246398
:10361300F508E93401F5097E007F00E82464F582AA
:10362300E93401F583E0FAE82AF8E93400F9746C27
:1036330028F582740139F583E0F50FA3E0F8A3E0E0
:10364300F97402120D2FE8F0A3E9F0790EAA08AB82
:103653000912077E851882851983EAF0A3EBF079B6
:1036630003AA08AB0912075A8A0A8B0B900C5EE077
:10367300F8A3E0F97402120D2FE0687003A3E06968
:10368300705BE48A828B83F0851882851983E0F866
:10369300A3E0F5838882A3A3A3A3A3A3A3A3A3E087
:1036A300F50CA3E0F50D780C120F17020001E736B5
:1036B300B736CD36790DAA08AB091207667C057DAE
:1036C3001912097C0E0E7F80801A7902AA08AB09B1
:1036D3001207667C127D191209820E80E774818AB3
:1036E300828B83F07402120D2FE0F8A3E0F9850AB0
:1036F30082850B83A3E8F0A3E9F0851882851983FB
:10370300E0F8A3E0F5838882A3120EB4AC0FA90EF0
:10371300EEFAEFFB1209587402120CFA7404120C3D
:10372300FA7F08020DB474F0120D4E74F9120CE412
:10373300890BE975F09DA42402F8E5F03401F9E85A
:103743002463F50EE93401F50F7E007F00E824645D
:10375300F582E93401F583E0FAE82AF8E93400F95F
:10376300746C28F8740139F9851882851983E8F097
:10377300A3E9F0851882851983E0F8A3E0F583882F
:1037830082E0C0E07402120D2FD0E0F0851882852C
:103793001983E02401F8A3E03400F9851882851920
:1037A30083E8F0A3E9F0851882851983AC82AD83A1
:1037B3007403120D2FAA82AB831207EA8518828540
:1037C3001983E0F8A3E0F5838882E0F50A790EAA6D
:1037D3000EAB0F12077E7405120D2FEAF0A3EBF068
:1037E3007904AA0EAB0F12075A8A088B09EA24033D
:1037F300EB34000A0A0AFBE48A828B83F0900C5EA6
:10380300E0F8A3E0F97403120D2FE0687003A3E05E
:1038130069600302389FE50A70067E147F198036BB
:103823007C008024ECC333F8E433F9E8243AF582CE
:10383300E93419F583E0F8A3E0F988828983E06528
:103843000A7004AE82AF830CECC0E090193CE0FD3B
:10385300D0E0C39D40CEEE7001EF603CE48508826A
:10386300850983F08E828F83A3A3A3A3A3A3A3E0DD
:103873008E828F83A3A3A3A3A3A3FCE02CC333242F
:10388300088A828B83F0E0F9AA0EAB0F120766EE6B
:10389300FCEFFD120988800D748280027481850813
:1038A30082850983F07403120D2FE0F8A3E0F985F4
:1038B3000882850983A3E8F0A3E9F07405120D2FAC
:1038C300E0F8A3E0F5838882A3120EB47404120D0A
:1038D3002FE0FCA90B7A047B801209587402120CA6
:1038E300FA7407120CFA7F08020DB474F7120D4E26
:1038F3008C828D83E0F8A3E0F98A828B83E8F0A3BE
:10390300E9F08C828D83A3A3E08A828B83A3A3F047
:103913008C828D83A3A3A3E0F8A3E0F98A828B832F
:10392300A3A3A3E8F0A3E9F08C828D83A3A3A3A3AD
:10393300A3E08A828B83A3A3A3A3A3F08C828D83AA
:10394300A3A3A3A3A3A3E0F8A3E0F98A828B83A391
:10395300A3A3A3A3A3E8F0A3E9F08C828D83A3A37D
:10396300A3A3A3A3A3A3E0F8A3E0F98A828B83A371
:10397300A3A3A3A3A3A3A3E8F0A3E9F08C828D835D
:10398300A3A3A3A3A3A3A3A3A3A3E0F8A3E0F98AF8
:10399300828B83A3A3A3A3A3A3A3A3A3A3E8F0A3BB
:1039A300E9F07F01020DB474F7120D4E8C828D8302
:1039B300E0F8A3E0F98A828B83E8F0A3E9F07F01C2
:1039C300020DB474F0120D4E74FF120CE48A088BCE
:1039D30009ECFEEDFF750A08750B00780A120EA1BB
:1039E300120A847402120CFAEE2407F8EF3400F979
:1039F300E8FCE9FD8C828D83E0851882851983F0CC
:103A0300750A008035E50AC333F8E433F9EE28F587
:103A130082EF39F583A3A3A3A3A3A3A3A3E0FAA3EC
:103A2300E0FBE50828F582E50939F583A3A3A3A301
:103A3300A3A3A3EAF0A3EBF0050AEE2406F8EF3400
:103A430000F9E8FAE9FB8A828B83E0F8E50AC39878
:103A530040B3E0F50A8039E8C333F8E433F9EE28DC
:103A6300F582EF39F583A3A3A3A3A3A3A3A3E0F54F
:103A73000CA3E0F50DE50828F582E50939F583A3E4
:103A8300A3A3A3A3A3A3A3E50CF0A3E50DF0050A49
:103A9300850A82A8828A828B83E0F50C8C828D83CF
:103AA300E0250CF50CE43400F50DE8950CE4950DD8
:103AB300C365D03340A1750A01780A120EA17402BE
:103AC300120D2FAC82AD838A828B83E0C333F8E47B
:103AD30033F9E50828F8E50939F9740728FAE439D0
:103AE300FB120A847402120CFA7401120CFA7F0896
:103AF300020DB474F0120D4E74D9120CE4EAC0E056
:103B03007404120D2FD0E0F0890E7E00E975F09D4C
:103B1300A42465F508E5F03402F5097402120D2FAB
:103B230074FFF0A3F0850882850983A3E0F8E50814
:103B330028F8E5093400F9740928FCE439FD8C827E
:103B43008D83E0F50FA3AC82AD83750A0A8E0B78E3
:103B53000A120EA17409120D2FAA82AB83120A84D2
:103B63007402120CFA750A0E780A120EA1790EAAC3
:103B730008AB0912077EEAFCEBFD741B120D2FAA9A
:103B830082AB83120A847402120CFA740F120D2F83
:103B9300E06003023C6A750A08780A120EA17409F0
:103BA300120D2FAC82AD837A657B0C120A7E7402F0
:103BB300120CFAEA7001EB700474018001E46015E1
:103BC300900C5EE0F8A3E0F97402120D2FE8F0A365
:103BD300E9F0023C6A7F0080010FEFC394204003A9
:103BE300023C6AEF75F00AA42402F8E5F03401F907
:103BF300E82453F582E9340EF583A3E05401FBE492
:103C03007001EB60D4E82452F50CE9340EF50D8510
:103C13000C82F583E0F97411120D2FAA82AB831283
:103C230006D6750A088E0B780A120EA17409120DB6
:103C33002FAC82AD837413120D2FAA82AB83120AA9
:103C43007E7402120CFAEA7001EB700474018001B5
:103C5300E46086850C82850D83E0F97402120D2FD2
:103C6300AA82AB831206DC7402120D2FE064FF708C
:103C730004A3E064FF70107404120D2FE0131354B7
:103C83003F540370027E81EE700D740F120D2FE00E
:103C9300C3940240027E80EE7060740F120D2FE019
:103CA3007058790BAA08AB0912075A8A0A8B0BE4DE
:103CB3008A828B83F0750C08F50D780C120EA174B3
:103CC30009120D2FAC82AD838A828B83A3AA82ABA8
:103CD30083120A847402120CFA7402120D2FE0F894
:103CE300A3E0F9850A82850B83A3A3A3A3A3A3A3BC
:103CF300A3A3E8F0A3E9F0023EE6EE6003023EE68A
:103D0300740F120D2FE064016003023EE6900D581C
:103D1300E0FA74026A600874016A6003023EE68591
:103D23001882851983E4F0A3F09010FAE0F50C797A
:103D33000D7410120D2FE0FAE50CC39AFFC333FA8A
:103D4300E433FB74462AFAE43BFBEA9495EB9400D4
:103D5300401E7F0009090F890A7448250AFAE434D2
:103D630000FBEA9494EB9400C365D03340E68012E1
:103D7300EF700AAA08AB09120754023FA5C3332404
:103D83000DF9AA08AB0912075A851882851983EA27
:103D9300F0A3EBF0E4C0E0851882851983E0F8A373
:103DA300E0F5838882D0E0F0851882851983E024CA
:103DB30001F8A3E03400F9851882851983E8F0A39C
:103DC300E9F0750A08750B00780A120EA17C657D6F
:103DD3000C7402120D2FE0FAA3E0FB120A847402A2
:103DE300120CFA851882851983E02408F8A3E034BD
:103DF30000F9851882851983E8F0A3E9F0900C5E39
:103E0300E0FCA3E0FD851882851983AA82AB8312A7
:103E130007F0851882851983E0F8A3E0F58388828B
:103E2300E50CF0851882851983E02401F8A3E034BA
:103E330000F9851882851983E8F0A3E9F0E4C0E06E
:103E4300851882851983E0F8A3E0F5838882D0E0A2
:103E5300F0851882851983E02401F8A3E03400F982
:103E6300851882851983E8F0A3E9F07405120D2FF4
:103E7300E4F0A3F0F50A750C54750D0F805B850C07
:103E830082850D83A3A3E05401F9E47001E960473F
:103E9300050A7410120D2FE0FAE50AC39A4038851B
:103EA3000C82850D83E0F97405120D2FAA82AB8372
:103EB3001206DC7405120D2FE0FCA3E0FD851882C9
:103EC300851983AA82AB831207F01FE50C240AF538
:103ED3000CE50D3400F50D050BE50BC394205003E1
:103EE300EF709BEE7003023F8D851882851983E482
:103EF300F0A3F0790BAA08AB0912075A851882853B
:103F03001983EAF0A3EBF0EEC0E0851882851983EC
:103F1300E0F8A3E0F5838882D0E0F0851882851964
:103F230083E02401F8A3E03400F98518828519831E
:103F3300E8F0A3E9F07508087509007808120EA1E6
:103F43007409120D2FAC82AD837402120D2FE0FAA7
:103F5300A3E0FB120A847402120CFA8518828519F5
:103F630083E02408F8A3E03400F9851882851983D7
:103F7300E8F0A3E9F0900C5EE0FCA3E0FD85188275
:103F8300851983AA82AB831207F0741A120D2F12BC
:103F93000EB4AC0FA90E7A007B801209587402127A
:103FA3000CFA7427120CFA7F08020DB474F0120D88
:103FB3004E74E7120CE4E9C0E07402120D2FD0E056
:103FC300F0EAC0E07404120D2FD0E0F0750900741C
:103FD30002120D2FE075F09DA42465F50EE5F03473
:103FE30002F50F850E82F583A3E0F8E50E28F8E5C8
:103FF3000F3400F9740928FCE439FD8C828D83E0C9
:10400300C0E07403120D2FD0E0F08C828D83A3AC3B
:1040130082AD83750A04750B00780A120EA1740928
:10402300120D2FAA82AB83120A847402120CFA7542
:104033000A0E780A120EA1790EAA0EAB0F12077E92
:10404300EAFCEBFD740D120D2FAA82AB83120A84D6
:104053007402120CFA7407120D2FE0FEA3E0FF9016
:104063000C5EE06E7003A3E06F60207404120D2FEA
:10407300E01313543F5403FA700675098102431B7E
:1040830074026A600302431B0243D97409120D2FA1
:10409300E0FAC39402400675098002431BEA6003F9
:1040A30002413E851882851983E4F0A3F0790BAAB7
:1040B3000EAB0F12075A851882851983EAF0A3EB1A
:1040C300F0E4C0E0851882851983E0F8A3E0F58366
:1040D3008882D0E0F0851882851983E02401F8A353
:1040E300E03400F9851882851983E8F0A3E9F075B7
:1040F3000A08780A120EA17C657D0C7402120D2F3A
:10410300E0FAA3E0FB120A847402120CFA85188207
:10411300851983E02408F8A3E03400F98518828523
:104123001983E8F0A3E9F0EEFCEFFD851882851909
:1041330083AA82AB831207F002431B74016A6003F4
:1041430002431B900D58E0FA74026A600874016A16
:10415300600302431B851882851983E4F0A3F07979
:104163000D740A120D2FE0FA9010FAE0C39AF508C5
:10417300C333FAE433FB74462AFAE43BFBEA94952F
:10418300EB9400402075080009090508890A744E5C
:10419300250AFAE43400FBEA9494EB9400C365D057
:1041A3003340E58013E508700AAA0EAB0F120754DB
:1041B3000243D9C333240DF9AA0EAB0F12075A8554
:1041C3001882851983EAF0A3EBF0E4C0E085188236
:1041D300851983E0F8A3E0F5838882D0E0F08518A1
:1041E30082851983E02401F8A3E03400F98518825D
:1041F300851983E8F0A3E9F0750A08780A120EA17D
:104203007C657D0C7402120D2FE0FAA3E0FB120A09
:10421300847402120CFA851882851983E02408F845
:10422300A3E03400F9851882851983E8F0A3E9F047
:10423300900C5EE0FCA3E0FD851882851983AA82B9
:10424300AB831207F0851882851983E0F8A3E0F5A4
:10425300838882E508F0851882851983E02401F8B4
:10426300A3E03400F9851882851983E8F0A3E9F007
:10427300E4C0E0851882851983E0F8A3E0F583881C
:1042830082D0E0F0851882851983E02401F8A3E049
:104293003400F9851882851983E8F0A3E9F07405E1
:1042A300120D2FE4F0A3F0F50A750C54750D0F8071
:1042B3005C850C82850D83A3A3E05401F9E47001AE
:1042C300E96048050A740A120D2FE0FAE50AC39A59
:1042D3004039850C82850D83E0F97405120D2FAAF0
:1042E30082AB831206DC7405120D2FE0FCA3E0FD04
:1042F300851882851983AA82AB831207F01508E516
:104303000C240AF50CE50D3400F50D050BE50BC384
:1043130094205004E5087099E50970030243B785BA
:104323001882851983E4F0A3F0790BAA0EAB0F1260
:10433300075A851882851983EAF0A3EBF085188262
:10434300851983E0F8A3E0F5838882E509F08518F1
:1043530082851983E02401F8A3E03400F9851882EB
:10436300851983E8F0A3E9F0750808750900780852
:10437300120EA17C657D0C7402120D2FE0FAA3E0EE
:10438300FB120A847402120CFA851882851983E0E1
:104393002408F8A3E03400F9851882851983E8F02E
:1043A300A3E9F0EEFCEFFD851882851983AA82ABA1
:1043B300831207F0740C120D2F120EB47405120D34
:1043C3002FE0FC7404120D2FE0F97A017B801209AF
:1043D300587402120CFA7419120CFA7F08020DB405
:1043E30074F1120D4E74EE120CE48909750800E99C
:1043F30075F09DA42465F50AE5F03402F50B850AF2
:1044030082F583A3E0F8E50A28F8E50B3400F97494
:104413000928FCE439FD8C828D83E0F50EA3AC8280
:10442300AD83750C02750D00780C120EA174041285
:104433000D2FAA82AB83120A847402120CFA750C34
:104443000E780C120EA1790EAA0AAB0B12077EEAA4
:10445300FCEBFD7406120D2FAA82AB83120A84743F
:1044630002120CFA7402120D2FE0FEA3E0FF900C6F
:104473005EE0F8A3E0F9EE687002EF69600C900D5E
:1044830058E070067508800245667402120D2FE02D
:10449300687003A3E06960067508810245668518A4
:1044A30082851983E4F0A3F07905AA0AAB0B1207FE
:1044B3005A851882851983EAF0A3EBF0E4C0E085FE
:1044C3001882851983E0F8A3E0F5838882D0E0F0B1
:1044D300851882851983E02401F8A3E03400F98567
:1044E3001882851983E8F0A3E9F0EEFCEFFD851847
:1044F30082851983AA82AB831207F07401C0E08519
:104503001882851983E0F8A3E0F5838882D0E0F070
:10451300851882851983E02401F8A3E03400F98526
:104523001882851983E8F0A3E9F090193AE0F8A31B
:10453300E0F5838882E0C0E0851882851983E0F87E
:10454300A3E0F5838882D0E0F0851882851983E0A3
:104553002401F8A3E03400F9851882851983E8F073
:10456300A3E9F0E50870030245FB851882851983EA
:10457300E4F0A3F07904AA0AAB0B12075A85188258
:10458300851983EAF0A3EBF0851882851983E0F897
:10459300A3E0F5838882E508F0851882851983E016
:1045A3002401F8A3E03400F9851882851983E8F023
:1045B300A3E9F07402120D2FE0FCA3E0FD8518823D
:1045C300851983AA82AB831207F0E4C0E0851882C1
:1045D300851983E0F8A3E0F5838882D0E0F085189D
:1045E30082851983E02401F8A3E03400F985188259
:1045F300851983E8F0A3E9F07405120D2F120EB4A8
:10460300AC0EA9097A057B801209587402120CFAC0
:104613007412120CFA7F07020DB474F4120D4EE9F2
:10462300FD7E0080010E8E08EA2508F8EB3400F9C0
:10463300880A890BEEC39D500988828983E0C39C55
:1046430040E388828983E06C602DEDFF801B8F0837
:10465300EA2508F8EB3400F9E824FFF582E934FF92
:10466300F583E088828983F01FEEC39F40E0EC85E9
:104673000A82850B83F00DEDF97F04020DB474F605
:10468300120D4EECFEEDFF78008026E8C333FCE408
:1046930033FDEE2CF582EF3DF583E0F508A3E0F55D
:1046A30009EA2CF582EB3DF583E508F0A3E509F073
:1046B30008E8C39940D5E9C333FCE433FDEA2CFA97
:1046C300EB3DFB7F02020DB474F0120D4E74DD124C
:1046D3000CE4E9C0E07405120D2FD0E0F0E075F0B2
:1046E3009DA42465F8E5F03402F97403120D2FE854
:1046F300F0A3E9F0750C007403120D2FE0F8A3E0AA
:10470300F5838882A3E0F87403120D2FE028F8A341
:10471300E03400F9740928FEE439FF8E828F83E0C8
:10472300C0E0740A120D2FD0E0F08E828F83A3AE07
:1047330082AF83E0F8A3E0F9740B120D2FE8F0A326
:10474300E9F0EE24020E0EEF3400FF8E828F83E039
:10475300F8A3E0F9740D120D2FE8F0A3E9F0EE24AD
:10476300020E0EEF3400FF8E828F83E0F50E740F7E
:10477300120D2FE50EF08E828F83A30EAF83C3330A
:10478300F8E433F9EE28F582EF39F583E0F50F7499
:1047930010120D2FE50FF075080E75090078081239
:1047A3000EA1790E7405120D2FE0FAA3E0FB120798
:1047B3007EEAFCEBFD7417120D2FAA82AB83120A5B
:1047C300847402120CFA7416120D2FE0F8A3E0F9A8
:1047D3007413120D2FE8F0A3E9F0E50F250EC33390
:1047E300F97403120D2FE0FAA3E0FB12077E74069F
:1047F300120D2FEAF0A3EBF0A90EEEFCEFFD740609
:10480300120D2FE0FAA3E0FB1209A68A828B83A381
:10481300AC82AD83A90FE50EC333FAE433FB740610
:10482300120D2FE02AFAA3E03BFB1209A6900C5EBF
:10483300E0F8A3E0F9740B120D2FE0687003A3E016
:10484300696013740B120D2FE064FD7004A3E06420
:10485300FF6003024A4F750D008002050D90193C5D
:10486300E0FAE50DC39A4003024A4F7A00E50DC30F
:1048730033F8E433F9E8243AF8E93419F974011206
:104883000D2FE8F0A3E9F07401120D2FE0F8A3E077
:10489300F5838882E0F8A3E0F5838882A3E0F8A398
:1048A300E0F9740D120D2FE0687003A3E06970AB9B
:1048B3007E0080787401120D2FE0F8A3E0F5838861
:1048C30082E0F508A3E0F509EEC333F8E433F9E534
:1048D3000828F582E50939F583A3A3A3A3A3A3A31A
:1048E300A3E0FCA3E0FDEFC333F8E433F97406124D
:1048F3000D2FE028FBA3E0398B82F583E06C700376
:10490300A3E06D701C850882850983E0FCA90C85F2
:104913001882851983AA82AB831209A0E9F50C7A60
:10492300010FEFC3950E5003EA60890EEEC0E074E9
:1049330001120D2FE0F8A3E0F5838882E0F8A3E0ED
:10494300F5838882A3A3A3A3A3A3E0FBD0E0C39B27
:104953005007EA70047F0080C97E00024A1B74017D
:10496300120D2FE0F8A3E0F5838882E0F8A3E0F9C5
:104973007408120D2FE8F0A3E9F07408120D2FE06C
:10498300F8A3E0F5838882A3A3A3A3A3A3E0F88EEF
:1049930008E50828F8E43400F9E833F8E933F97452
:1049A30008120D2FE028FBA3E0398B82F583A3A324
:1049B300A3A3A3A3A3A3E0F8A3E0F9850E0A8F089A
:1049C300E508250AFCE43400FDEC33FCED33FD740B
:1049D30006120D2FE02CFBA3E03D8B82F583E068EC
:1049E3007003A3E06970237408120D2FE0F8A3E0AD
:1049F300F5838882E0FCA90C851882851983AA8235
:104A0300AB831209A0E9F50C7A010FEFC3950F50A0
:104A130006EA70030249610EEEC0E07401120D2F25
:104A2300E0F8A3E0F5838882E0F8A3E0F5838882C9
:104A3300A3A3A3A3A3A3A3E0FBD0E0C39B400302D0
:104A4300485EEA600302485E7F0080BF7404250C61
:104A5300F97403120D2FE0FAA3E0FB12075A8A0838
:104A63008B09AE08AF09740B120D2FE0F8A3E0F920
:104A73008E828F83A3E8F0A3E9F08E828F83A3A3B2
:104A8300A3E50CF06026750800750D00780C120E76
:104A9300A17402120D2FAC82AD83EE2404FAEF341D
:104AA30000FB120A847402120CFA80037508898EC3
:104AB300828F83E508F07413120D2F120EB4740C59
:104AC300120D2FE0FC7407120D2FE0F97A067B809C
:104AD3001209587402120CFA7423120CFA7F08029A
:104AE3000DB474F4120D4E89088A09E975F09DA47A
:104AF3002465FEE5F03402FF790CEEFAEFFB1207B2
:104B03007E8A828B83E509F08E828F83A3A3A3A37E
:104B1300F0A3E4F0E509700A900C5EE0F8A3E0F975
:104B2300800478FF79FF8A828B83A3E8F0A3E9F0FE
:104B3300750A08750B00780A120EA17C4E7D0DEAEA
:104B430024030A0A0AEB3400FB120A847402120CCF
:104B5300FAA9087A7A7B081208087F04020DB47454
:104B6300F0120D4E890F8A0E7A007B007C007D00C7
:104B7300024C4588828983750800A3E05410F50927
:104B8300740C7808120CC2A808E87001E4700302E0
:104B93004C3DEE2408F50CEF3400F50D850C82F541
:104BA30083E0C4135407C394035003024C3D8E8225
:104BB3008F83A3A3A3A3A3A3A3A3A3E0F8900D5957
:104BC300E0F508E8C39508F8E49400F9C3E8947F96
:104BD300E99400A2D265D0335060EA7001EB6056CD
:104BE300850A82850B83E0F508A3E0F509740C7848
:104BF30008120CC2C0088A828B83A3A3A3A3A3A316
:104C0300A3A3A3A3E0F508A3E0F509740C780812A5
:104C13000CC2D0E0C395085021850C82850D83E03A
:104C2300C0E08A828B83A3A3A3A3A3A3A3A3E0F8D7
:104C3300D0E0C3984004EEFAEFFBEC24010CED3412
:104C430000FD9010FEE0F8C3EC98ED9400400302E1
:104C53004CDBECF8EDF9E875F00EA4F8AEF075F066
:104C63000EE9A42EF99010FBE028FEA3E039FFEE35
:104C7300240AF50AEF3400F50B850A82F583E0C4B4
:104C8300135407650F70B3EE240CF8EF3400F98862
:104C9300828983A3E05420F509E47002E509609A50
:104CA30088828983A3E05401F509E47004740165E3
:104CB300097087E50EA2E14003024B76888289835F
:104CC300E0540F64016003024B76750800A3E054BF
:104CD30008F509740B024B85EA240CF582EB3400CA
:104CE300F583E0540F640160117401900F53F0E4F5
:104CF300900D58F07402900CD0F07F08020DB4743C
:104D0300F0120D4E74F3120CE47403120D2FEAF03B
:104D1300A3EBF08C0A8D0B750800750900E4851868
:104D230082851983F0FE900E74E060047EC28019C0
:104D3300851882851983AC82AD83AA0AAB0B120650
:104D43009AEA7001EB60027EC3EE7001E47025E520
:104D53000A240CF582E50B3400F583E0FA8518820A
:104D6300851983E0F91204AE8A088B09EA7001EB16
:104D730070027EC3E5087002E5097003024F617497
:104D830001120D2FAA82AB83851882851983E0F95E
:104D93001206A07401120D2FE0F8A3E0F9900C5B4A
:104DA300E8F0A3E9F0900C5BE0FAA3E0FB1207B490
:104DB300750C10750D00780C120EA1AC0AAD0B7AB0
:104DC3003C7B0E120A847402120CFAE508240AF5DD
:104DD3000EE5093400F50FE5082402F50AE5093468
:104DE30000F50B750C06780C120EA17CF27D19AA46
:104DF3000AAB0B120A7E7402120CFAEA7001EB7012
:104E030003024EBB750C03780C120EA1850A828532
:104E13000B83E075F003A4246FFCE5F03413FD74F9
:104E230007120D2FAA82AB83120A847402120CFAA2
:104E3300750A05750B00780A120EA1E5082403FC18
:104E4300E5093400FD740A120D2FAA82AB83120AFE
:104E5300847402120CFA790D7403120D2FE0FAA375
:104E6300E0FB12077E8A0A8B0B850E82850F83E097
:104E7300541FC0E0EA240BF582EB3400F583D0E045
:104E8300F07401120D2FE0F8A3E0F98A828B83E816
:104E9300F0A3E9F074038A828B83A3A3A3A3A3A340
:104EA300A3A3A3A3F0750C08780C120EA174071228
:104EB3000D2FAC82AD83805A790D7403120D2FE050
:104EC300FAA3E0FB12077E8A0A8B0B850E82850FFD
:104ED30083E0541FC0E0EA240BF582EB3400F58332
:104EE300D0E0F07401120D2FE0F8A3E0F98A828B71
:104EF30083E8F0A3E9F074028A828B83A3A3A3A3BC
:104F0300A3A3A3A3A3A3F0F50C780C120EA1AC08E2
:104F1300AD09EA24020A0AEB3400FB120A84740284
:104F2300120CFA900E48E0C0E0E50A240CF582E585
:104F33000B3400F583D0E0F0900E4CE508F0A3E5C8
:104F430009F07403120D2FE0F8A3E0F97A9D7B00BA
:104F5300120C69E89403F97ACE7B02120808EEFA80
:104F63007B00740D120CFA7F08020DB474F0120D5D
:104F73004E74F5120CE4890AE975F09DA42465F5D5
:104F83000EE5F03402F50F790BAA0EFB12077E8AA9
:104F9300088B09EA7001EB700302532B8A828B831F
:104FA300A3A3E0600302527D900E48E0A2E1E492E5
:104FB300E0F91205747401900E74F0750C08750D08
:104FC30000780C120EA17C3C7D0E7A4E7B0D120AEA
:104FD300847402120CFA850882850983E0F8A3E041
:104FE300F9900C5EE8F0A3E9F0900E4CE0F8A3E032
:104FF300F5838882A3A3A3A3A3A3A3A3A3E0900DF4
:1050030059F085188285198385820C85830D780C68
:10501300120EA17901850882850983E0FCA3E0FDD6
:105023007A657B0C1206CA7402120CFA7401120D13
:105033002FE4F0A3F0900E4CE0F8A3E0F9E8FAE9CE
:10504300FB8A828B83E0FEA3E0FF74FF6E70037420
:10505300FF6F7047750C03750D00780C120EA18A53
:10506300828B83A3A3E075F003A4246FFCE5F034E3
:1050730013FD7405120D2FAA82AB83120A847402E6
:10508300120CFA750C05780C120EA1900E4CE0244C
:1050930003FCA3E03400FD74088017750C08750D3C
:1050A30000780C120EA1E5082403FCE5093400FD89
:1050B3007405120D2FAA82AB83120A847402120C98
:1050C300FA900E4CE0F8A3E0F5838882A3A3A3A390
:1050D300A3A3A3A3A3A3E0F50CA3E0F50D740C789D
:1050E3000C120CC2E50C900DF3F0E0640F6003E0CA
:1050F30004F0E0F91203E8900DF1EAF0A3EBF0EE0F
:10510300FAEFFB12058C74FF6E700374FF6F851842
:105113008285198385820C85830D780C7015120E98
:10512300A17C0079007405120D2FAA82AB831206AD
:10513300BE800E120EA17C007900EEFAEFFB120680
:10514300C47402120CFA8A0C8B0DA80CA90DE8701A
:1051530001E97077750C08750D00780C120EA17CAF
:10516300F27D197405120D2FAA82AB83120A7E7485
:1051730002120CFAEA7001EB603374FF6E70037471
:10518300FF6F602985188285198385820C85830DBD
:10519300780C120EA17900EEFCEFFDE5082403FA6A
:1051A300E5093400FB1206CA7402120CFA740112E8
:1051B3000D2FAC82AD837A00851882851983E0F9BF
:1051C3001205B08A0C8B0DA80CA90DE87001E970CB
:1051D300207401120D2FE0F8A3E0F5838882A3E089
:1051E300F0A3E054E3F0851882851983E0900E3B29
:1051F300F0850882850983A3A3E0F508790CAA0E3C
:10520300AB0F12077E8A0C8B0DAE0CAF0D8E828F07
:1052130083E508F0900C5EE0F8A3E0F98E828F83BB
:10522300A3E8F0A3E9F07508087509007808120EE1
:10523300A17C3C7D0EEE24030A0A0AEF3400FB1224
:105243000A847402120CFA900E4CE0F8A3E0F58382
:105253008882A3A3A3A3A3A3A3A3A3A3E0541FC0D0
:10526300E0EE240BF582EF3400F583D0E0F0A90AD9
:105273007A7A7B0812080802532B8A828B83A3A3B2
:10528300E0FE900E4CE0240CF8A3E03400F9888291
:105293008983E0F0A3E054DFF07C3C7D0EAA0EABE3
:1052A3000F1204B48A088B09A808A90974C368708B
:1052B30001E97067900E48E0A2E1505FE0C2E1F0BF
:1052C300780079008035E8FAE9FBEA75F00EA4FA74
:1052D300ACF075F00EEBA42CFB9010FBE02AFAA3C4
:1052E300E03BFB740C2AF582E43BF583E0F0A3E09A
:1052F3004420F0E8240108E93400F99010FDE0FAB5
:10530300C3E89AE9940040BE7C3C7D0EAA0EAB0F25
:105313001204B48A088B09A808A909E87001E96096
:1053230007EEFAA90A1204A8740B120CFA7F0802FA
:105333000DB474F0120D4E74FE120CE4E9FE75F018
:105343009DA42465F8E5F03402F985188285198354
:10535300E8F0A3E9F07910851882851983E0FAA3B0
:10536300E0FB12077E8A0E8B0F8A828B83A3A3A393
:10537300A3A3A3A3A37808120BDCEA240EF582EB04
:105383003400F583E0FF900E3AE060030254387571
:105393000C08750D00780C120EA1AC0EAD0F7A4CF3
:1053A3007B0E120A847402120CFAE50E240CF582A9
:1053B300E50F3400F583E0900E54F012058679066C
:1053C300851882851983E0FAA3E0FB12077E8A0C15
:1053D3008B0DAC0CAD0D8C828D83A3A37808120BBF
:1053E300EB8C828D83E054FCF8A3E0F97401488CC4
:1053F300828D83F0A3E9F08C828D83E054C3FAA3FA
:10540300E0FB8F0875090074027808120CD1743C14
:1054130055084AF8EBF98C828D83E8F0A3E9F0EEA6
:10542300F97AC47B031208087407900E3AF0E490EB
:105433000E75F080077AC3EEF91204A87402120CF9
:10544300FA7F08020DB474F0120D4E74F2120CE4DC
:10545300890B7E00E4851882851983F0AC82AD83C5
:105463007A4C7B0E12069AEA7001EB60057EC3024A
:105473005756900E54E0FA851882851983E0F91285
:1054830004AE8A088B09EA7001EB60E1E50B75F065
:105493009DA42465F8E5F03402F97401120D2FE898
:1054A300F0A3E9F0900DF5E0F9742059FBE47001E5
:1054B300EB601D8E0C741E59F50D7409780C120CDB
:1054C300C2E50C600B120A5AE96005750A018002F5
:1054D3008E0A7404120D2FAA82AB83851882851954
:1054E30083E0F91206A07404120D2FE0F8A3E0F98B
:1054F300900C5BE8F0A3E9F0E5082402F50EE5095A
:105503003400F50F750C038E0D780C120EA1850E69
:1055130082850F83E075F003A4246FFCE5F0341358
:10552300FD7408120D2FAA82AB83120A847402122F
:105533000CFA750C05780C120EA1E5082403FCE5A2
:10554300093400FD740B120D2FAA82AB83120A8457
:105553007402120CFA750C08780C120EA17CF27D01
:10556300197408120D2FAA82AB83120A7E740212D9
:105573000CFAEA7001EB704B7406120D2FAC82AD7E
:1055830083850882850983E0FAA3E0FB1206E8EA33
:105593007001EB702EAC0EAD0F7406120D2FAA82A4
:1055A300AB831206AC801C1207E48A0CA80C900C87
:1055B3005EE8F0A3EBF0E8906174F0900C5FE0908C
:1055C3006175F0900C5EE0F8A3E0F9E87001E96022
:1055D300D674FF68700374FF6960CC750C08780C8F
:1055E300120EA17CF27D197408120D2FAA82AB83CF
:1055F300120A7E7402120CFAEA7001EB70067A004A
:105603007B0080097406120D2FAA82AB83750C01EF
:10561300780C120EA5E50AF50C780C120EA58A0C6F
:105623008B0D780C120EA1750C65750D0C780C1290
:105633000EA17900850882850983E0FCA3E0FD744F
:1056430007120D2FE0FAA3E0FB1205087406120CF3
:10565300FA8A0C8B0DA80CA90D900DECE0C33388CE
:10566300828983A3A3A3A3A3A3F0E50A60247401FF
:10567300120D2FE02406F8A3E03400F98882898311
:10568300E054F9FAA3E0FB74024A88828983F0A309
:10569300EBF07C017906EC120D2FE0FAA3E0FB128C
:1056A300050E8A0C8B0DA80CA90D900E54E0888270
:1056B3008983F07406120D2F85820C85830D780C77
:1056C300120EA1850882850983E0FCA3E0FD900CFE
:1056D3005BE0FAA3E0FB850882850983A3A3A3A368
:1056E300A3A3A3A3A3A3E0541FF91202DA74021223
:1056F3000CFA74FEC0E07901E9120D2FE0FAA3E081
:10570300FB12077E8A828B83D0E0F0A90B7A267B7B
:1057130005120808900E55E508F0A3E509F0740397
:10572300120D2F85820C85830D780C120EA1790141
:10573300850882850983E0FCA3E0FD7408120D2F20
:10574300AA82AB831206CA7402120CFAAA08AB0926
:105753001205B6EE7001E46011E4900E3AF0FAFB24
:1057630012058CEEFAA90B1204A8740E120CFA7F20
:1057730008020DB474F6120D4E74F7120CE4EAFE2F
:10578300EBFFEE7001EF700302582DEE240CF5824F
:10579300EF3400F583E0F0A3E054DFF07508037500
:1057A30009007808120EA18E828F83A3A3E075F0FF
:1057B30003A4246FFCE5F03413FD7403120D2FAA28
:1057C30082AB83120A847402120CFA7508057808F6
:1057D300120EA1EE2403FCEF3400FD7406120D2F0C
:1057E300AA82AB83120A847402120CFA851882858A
:1057F30019838582088583097808120EA179008EA2
:10580300828F83E0FCA3E0FD7403120D2FAA82AB09
:10581300831206CA7402120CFAEA7001EB700B854C
:105823001882851983E0F91205A47409120CFA7F12
:1058330002020DB474F6120D4EE9FE900E55E0FA15
:10584300A3E0FBEA7001EB605E900C5DE0705879B9
:105853000BEE75F09DA42465FAE5F03402FB120704
:105863007E74028A828B83F0900E55E0F8A3E0F5F4
:10587300838882E0F8A3E0F98A828B83A3E8F0A30C
:10588300E9F0900C5BE0F8A3E0F98A828B83A3A391
:10589300A3A3A3A3A3A3A3E8F0A3E9F0EEF97AC219
:1058A3007B021208028012EA7001EB600C1204CC36
:1058B300EEF97AC67B041208087F02020DB474F075
:1058C300120D4E74F5120CE4890CE975F09DA424B5
:1058D30065F508E5F03402F509850882F583A3AE82
:1058E30082AF83E0F8E50828F8E5093400F9740984
:1058F30028F50AE439F50BAA0AFB12057AE9FA8EB0
:10590300828F83E0F8E50828F8E5093400F9EA28EE
:10591300F8E439F9740A28FEE439FF8E828F83E0B4
:10592300F8A3E0F98E828F83E8F0A3E9F0900E3AB2
:10593300E064076003025BBD75080375090078081E
:10594300120EA1900E55E0F8A3E0F5838882A3A37D
:10595300E075F003A4246FFCE5F03413FD74051225
:105963000D2FAA82AB83120A847402120CFA7508F3
:10597300057808120EA1900E55E02403FCA3E03431
:1059830000FD7408120D2FAA82AB83120A847402DD
:10599300120CFA8E828F83A3A3E06003025B928EC4
:1059A300828F83E054F0F8A3E0F974F06870037415
:1059B300FF697003025B92850A82850B83A385824C
:1059C3000E85830FE0A2E44003025B92E0A2E35062
:1059D3002E7508087808120EA17C657D0CE50A2453
:1059E30008FAE50B3400FB120A7E7402120CFAEA81
:1059F3007001EB700474018001E47003025B927523
:105A030008087808120EA17CF27D197405120D2F77
:105A1300AA82AB83120A7E7402120CFAEA7001EBBB
:105A230060307808120EA17405120D2FAC82AD837D
:105A3300E50A2410FAE50B3400FB120A7E74021205
:105A43000CFAEA7001EB700474018001E470030244
:105A53005B92851882851983858208858309780876
:105A6300120EA179018E828F83E0FCA3E0FD7A659B
:105A73007B0C1206CA7402120CFA850E82850F8300
:105A8300E0A2E3E50A5004241080022408FAE50B9F
:105A93003400FB75083B75090E7808120EA17901D5
:105AA300900E55E0F8A3E0F5838882E0FCA3E0FDC7
:105AB3001206CA7402120CFA8E828F83E0F8A3E0F6
:105AC300F9900C5EE8F0A3E9F0E8906174F0900CB3
:105AD3005FE0906175F07401900E74F0900DF3E047
:105AE300640F6004D2F08002C2F0A2F0E492E0C03E
:105AF300E0900E55E0F8A3E0F5838882A3A3A3A367
:105B0300A3A3A3A3A3A3E0F508A3E0F509740C786A
:105B130008120CC2D0E02508F9900DF3F01203E847
:105B2300900DF1EAF0A3EBF07508087808120EA1C6
:105B33007C4C7D0E7A4E7B0D120A847402120CFA91
:105B4300900E55E0F8A3E0F5838882E0FAA3E0FB2A
