:020000040000FA
:030000000200E318
:03004B00020EB5ED
:10008300020D7800000080FB120113B90003020087
:10009300CDE4900101783F79188002F0A3D8FCD910
:1000A300FA90183FAA82AB83900116783F790180BA
:1000B30015E493A3AC82AD838A828B83F0A3AA82D7
:1000C300AB838C828D83D8E9D9E77582EB7583EE98
:1000D30074011200F575828675830074001200F5B1
:1000E30075D0007581BF751801751901759F0002E0
:1000F300008BC09FF59FE473D09F22D083D082C032
:100103009FE493C0E0740193C0E0740293F59F22CF
:10011300790122008001800280038004800580062B
:100123008000010203040506130000000001000023
:1001330000FFFFFFFF000008006D4EC6413930008D
:10014300000008000000F8FF0700F8FFFF01F8FFB8
:10015300031200FEDDE8011200FE60E9011200FE59
:10016300B4E9011200FE35EA011200FE5BEA011256
:1001730000FE93EA011200FE22EB011200FE7AF464
:10018300011200FECEF4011200FEE1F4011200FEA2
:10019300B2FA011200FE1AFB011200FEECF1011289
:1001A30000FE85F2011200FEDA23001200FE29246C
:1001B300001200FE2425001200FEDE27001200FEBE
:1001C300BE28001200FE2829001200FEA92A0012F0
:1001D30000FEE22A001200FEF72B001200FEC62CDE
:1001E300001200FEF92C001200FEB62D001200FED4
:1001F300AF2F001200FE5331001200FEBC3100127B
:1002030000FE3133001200FE4F34001200FE6C3545
:10021300001200FEFF35001200FE4EED011200FE3B
:1002230067EE011200FE1968001200FE9B680012BF
:1002330000FE046A001200FE4C6A001200FE766B98
:10024300001200FEBF6C001200FEE86C001200FEFC
:10025300746E001200FE3971001200FEB7710012B5
:1002630000FED571001200FEF271001200FE04724E
:10027300001200FEE972001200FE2873001200FE55
:100283006373001200FEBB73001200FE2C75001294
:1002930000FE31E6011200FE00E7011200FE26E730
:1002A300011200FE40E7011200FE46EB011200FEC0
:1002B300FEEC011200FE26ED011200FE3AC001120F
:1002C30000FEA1C1011200FE25C2011200FE5DC3A2
:1002D300011200FE6EC3011200FE03C4011200FEF0
:1002E30005C5011200FEFCC5011200FE31C6011254
:1002F30000FE55C6011200FE8EF5011200FEAAF59E
:10030300011200FEE3C6011200FE36C7011200FE11
:10031300FAC7011200FEA2C8011200FEA9CA011207
:1003230000FEEDCA011200FE27CB011200FE5F8E14
:10033300011200FE588F011200FE5990011200FEB7
:10034300D194011200FE1637001200FE93370012FB
:1003530000FEF238001200FE5F3B001200FEDE3E9C
:10036300001200FEEF3F001200FE1D43001200FECC
:10037300DD43001200FE6744001200FE2B4700120B
:1003830000FED647001200FE0A48001200FE244871
:10039300001200FEA048001200FEB948001200FE41
:1003A300E348001200FE254B001200FE454B0012ED
:1003B30000FE8C4C001200FEE74C001200FE744F4E
:1003C300001200FED14F001200FE5251001200FE37
:1003D3008C54001200FEBF55001200FE3C56001262
:1003E30000FE5157001200FE6857001200FECF575F
:1003F300001200FEE357001200FE5259001200FEE5
:100403006859001200FE4EB9011200FE7FB90112B5
:1004130000FE23BB011200FE86BB011200FE5EBC80
:10042300011200FEF7BC011200FE30BD011200FEF6
:100433002ABE011200FE7CBF011200FEDBBF0112C7
:1004430000FE95E0011200FE66E2011200FE21E3C8
:10045300011200FE38F3011200FE7CF3011200FECC
:10046300C8F3011200FEDAF3011200FE83AA01129F
:1004730000FE0AAD011200FE03B2011200FEFAFBF8
:10048300011200FEAC59001200FEDF59001200FEFB
:100493000D5A001200FE3C5A001200FE855D001248
:1004A30000FE9660001200FEFA63001200FEDA649A
:1004B300001200FE4F66001200FEAF66001200FE3F
:1004C300DD67001200FE0080011200FE3880011279
:1004D30000FE6980011200FEB881011200FEE48172
:1004E300011200FE9B82011200FEC282011200FE75
:1004F300FA82011200FEB783011200FEA6840112E4
:1005030000FE5185011200FEDC85011200FEAE875C
:10051300011200FE1088011200FE3788011200FE4E
:100523008E88011200FE3189011200FE75890112C5
:1005330000FEEE89011200FEA88A011200FEDF8B85
:10054300011200FE0A8C011200FE868C011200FECD
:100553006B8D011200FE168E011200FE37CC0112C4
:1005630000FEB4CC011200FEC4CC011200FED4CCB8
:10057300011200FEB3CD011200FEC3CD011200FE35
:10058300D3CD011200FED1CE011200FE46CF0112DF
:1005930000FED1CF011200FE03D0011200FEEBD00A
:1005A300011200FE12D1011200FE25D1011200FE3C
:1005B3003FD1011200FEB7FB011200FE65E30112F9
:1005C30000FE6BE3011200FE87E3011200FECEE39F
:1005D300011200FEDEE3011200FEF8E3011200FE49
:1005E30043E4011200FE58E4011200FEBAE40112D2
:1005F30000FEAEE5011200FED1F9011200FE43FA3E
:10060300011200FEAEF8011200FE0FF9011200FE06
:1006130090F6011200FED1F6011200FE0BF7011253
:1006230000FE3CF7011200FE3EB2011200FE1BB4B5
:10063300011200FE78B4011200FED5B4011200FECF
:100643004BB5011200FE0CB8011200FE40F9011275
:1006530000FE46FA011200FEA2FA011200FE59FC46
:10066300011200FECFA1011200FE01A2011200FE41
:100673002AA2011200FE33A2011200FEEBA2011214
:1006830000FEADA3011200FEF0A4011200FE34A58A
:10069300011200FEE5A5011200FEBFA6011200FE35
:1006A30089A7011200FE2CA8011200FE6AA80112FC
:1006B30000FEADA8011200FE1BA9011200FEB7A99E
:1006C300011200FE2798011200FE3698011200FE67
:1006D3004598011200FEB499011200FE369A0112E8
:1006E30000FEF09A011200FE589B011200FE7F9B50
:1006F300011200FE989B011200FEA49C011200FE51
:10070300B19E011200FEF59E011200FE4DA00112E2
:1007130000FEF2A0011200FE3BA1011200FE4EA159
:10072300011200FE61A1011200FE7AD1011200FE46
:100733007DD1011200FE3DD3011200FE0ED4011241
:1007430000FE3CD4011200FEBAD5011200FEE5D52D
:10075300011200FE1FD6011200FECAD9011200FECB
:100763008BDA011200FE0CDB011200FED7DB011253
:1007730000FE6CDC011200FE5EF7011200FE220F88
:10078300001200FE5410001200FE1912001200FEA7
:10079300D512001200FEF112001200FE2114001205
:1007A30000FEA918001200FED81C001200FE121F42
:1007B300001200FE761F001200FEC01F001200FE92
:1007C30087F0011200FE7F76001200FEFC78001213
:1007D30000FE557A001200FE9F7A001200FEBF7AD7
:1007E300001200FE677B001200FEE47B001200FE95
:1007F300B17D001200FEF57E001200FE927F001212
:1008030000FE4CDD011200FE31D6011200FE2DD890
:10081300011200FEDDD8011200FE15D9011200FEFF
:1008230030D9011200FE5FD9011200FE15EF01124B
:1008330000FE55EF011200FE42F0011200FEA47FFC
:10084300001200FE6FFB011200FE0FF8011200FE02
:100853002AFC01A2E792D65002F40430F70663F0B3
:10086300FF05F0B3400384800384F40430D60563AA
:10087300F0FF05F022E066701008A3E066700A0836
:10088300A3E066700408A3E06622C3E7960809E7BD
:10089300960809E7960809E79622080808EAC0E0DF
:1008A300EBC0E086F0E7A4FA180986F0E7A42AFA79
:1008B300180986F0E7A42AFA180986F0E7A42AFAA9
:1008C3001986F0E7A4FBE5F02AFA190886F0E7A4F5
:1008D3002BFBE5F03AFA190886F0E7A42BFBE5F0C9
:1008E3003AFA18180986F0E7A4C5F02BFBE43AFAA4
:1008F3001908E7C5F0C6A426F6E5F03BFBE43AFA8F
:100903001886F0E7A4F6E5F00826F6E43B08F6E4DB
:100913003A08F6D0E0FBD0E0FA22C6F4C608C6F4E3
:10092300C608C6F4C608C6F4C62270090808082219
:100933006016181818C6C333C608C633C608C633AC
:10094300C608C633C6D5E0EA22E026F608A3E03699
:10095300F608A3E036F608A3E036F622E026F00810
:10096300A3E036F008A3E036F008A3E036F022E077
:1009730056F608A3E056F608A3E056F608A3E05699
:10098300F622E056F008A3E056F008A3E056F0087C
:10099300A3E056F022E0F608A3E0F608A3E0F60889
:1009A300A3E0F622E6F008A3E6F008A3E6F008A326
:1009B300E6F022CAC0E0E6F0A308DAFAD0E0FA22B1
:1009C300CAC0E0E0A3C582CCC582C583CDC583F090
:1009D300A3C582CCC582C583CDC583DAE6D0E0CA80
:1009E30022C3E498F8E499F9120A258026C3E49A0D
:1009F300FAE49BFBE920E7E9120A25E498F8E49975
:100A0300F922C3E498F8E499F9120A25E498F8E482
:100A130099F9C3E49AFAE49BFB22EB20E7CFE920A0
:100A2300E7E0B90010BB0008E88AF084F8AAF022D6
:100A3300E4FBC8FA22EB70227B10C833C8C933C960
:100A4300335007C39AC3DBF280069A50012ADBEACC
:100A5300C833F4C8C933F4C9FA2275F008E4C833BB
:100A6300C8C933C933C99AC99B5004C92AC93BD5DC
:100A7300F0ECFBC833F4C8E4C9FA22600C08C6C31F
:100A830013C618C613C6D5E0F422700422600D18ED
:100A9300C6C333C608C633C6D5E0F41822251810DA
:100AA300AF08F518400215198008F518400215190A
:100AB300D2AF22C0D0251810AF08F518500205197F
:100AC3008008F51850020519D2AFD0D0222518F5A9
:100AD3008210AF08F518400215198008F518400276
:100AE3001519D2AF851983222518F582E43519F536
:100AF3008322E473C0E0E8C0E0E58124FCF8E6A2C9
:100B0300E7D0E0F8D0E0222518C582C0E0E519342B
:100B1300FFC583C0E0E518C3958224F8F8E4C5A8AF
:100B2300858319858218C5A8E8CEF0A3E520F0A334
:100B33007808E608F0A3DEFAEFF0A3E58124FAF8DB
:100B4300E608F0A3E608F0A3E608F0A30808E60821
:100B5300F0A3E608F0A315811581D0E0FED0E0F8FC
:100B6300158115811581E8C0E0EEC0E02285198367
:100B7300851882E0A3FEE0A3F5207808E0A3F60839
:100B8300DFFAE0A3FFE0A3C0E0E0A3C0E0E0A3C07E
:100B9300E0E0A3C0E0E0A3C0E0E4C5A88582188537
:100BA3008319C5A8D083D0820200FBC0D02518C505
:100BB30082C0E0E51934FFC583C0E0E518C3958220
:100BC30024F310AF0885831985821880088583195B
:100BD300858218D2AFC8F0A3E9F0A3EAF0A3EBF043
:100BE300A37908E709F0A3D8FAECF0A3EDF0A3EE9C
:100BF300F0A3EFF0A3D0E0F0A3D0E0F0A3D0E0F0B7
:100C0300A3E520F0A3E5F0F0A322851983851882DC
:100C1300E0C0E0A3E0F9A3E0FAA3E0FBA37808E0D7
:100C2300F608A3DFFAE0FCA3E0FDA3E0FEA3E0FFE8
:100C3300A3E0C0E0A3E0C0E0A3E0F5D0A3E0F5208B
:100C4300A3E0A3F5F0E4C5A8858319858218C5A898
:100C5300D082D083D0E0F8D0E032740280027401F5
:100C6300C0E0F404120AD0D0E01209B62274028064
:100C730000CCC0E0EDC0E0E518C39CCCAD19500139
:100C83001D10AF068C188D1980068C188D19D2AFE4
:100C93001209C3D0E0FDD0E0FC22D083D082C5F09E
:100CA300E493A3C5F0C395F0F5F0E493A3C395F0E3
:100CB3004005E5F0048001E475F002A42582F58285
:100CC300E5F03583F583E493A3C0E0E493C0E02229
:100CD300D083D082E9C0E0E493A3C386F0C5F09546
:100CE300F0F908E493A386F0C5F095F0700BE49354
:100CF300A3C3994005E9048002A3E475F002A42587
:100D030082F582E5F03583F583D0E0F9E493A3C05F
:100D1300E0E493C0E022D083D082CCC0E0E493A38C
:100D23006006120D431470FAE493A36006120D6279
:100D33001470FAD0E0FCE493A3C0E0E493C0E02293
:100D4300C0E0E493A3D39C5010E493A3C39C400A54
:100D5300D0E0D0E0D0E0020D36A3A3A3D0E022C0C0
:100D6300E0E493A36C7009D0E0D0E0D0E0020D364C
:100D7300A3A3D0E022C0E074F1120BAEC2AFC2AFA6
:100D8300E5E990182FF0E591901830F075E90075BA
:100D93009B00759100900CD2E0A2E75004E0D2E4EE
:100DA300F090182FE0A2E64003020E88900C9DE01D
:100DB300C3940240087401900C96020E87E5D9FA99
:100DC300C0E0900C9CE0C333F8E433F9E82497F5D2
:100DD30082E9340CF583E0F8A3E0F5838882D0E060
:100DE300F0900C9CE0C333F8E433F9E82497F582E0
:100DF300E9340CF583E0F8A3E0F9EAC0E0888289DE
:100E030083A3E0FCE82CF582E93400F583A3A3A3D4
:100E1300A3A3A3A3A3A3D0E0F07B018043900C9CE6
:100E2300E0C333F8E433F9E82497F582E9340CF5A9
:100E330083E0F8A3E0F9E5D9C0E08B0888828983D1
:100E4300A3E0FCE82CF8E93400F9E50828F582E48E
:100E530039F583A3A3A3A3A3A3A3A3A3D0E0F00B78
:100E6300EBC39A40B8E5D9E5D9900C9DE004F09026
:100E73000C9CE0F874012808E43400F97A027B0042
:100E8300120A1DEAF0901830E0A2E15018E490181D
:100E930031F0900CD3E0A2E65005E0C2E680059065
:100EA3000C71E004F0D2AF7401901832F07F0202AB
:100EB3000C0DC0E0C0D075D010C082C08390182C38
:100EC300E02401F0A3E03400F090182EE0602490B9
:100ED300182CC082C08390182AE0F8A3E0F9D083CD
:100EE300D082E0C398F8A3E099F9C3E894FFE994AA
:100EF3007F501A53E4FD90182CE0F8A3E0F9901802
:100F03002AE8F0A3E9F0E490182EF0800975DA00DE
:100F130075DB0F43E402D083D082D0D0D0E03274AB
:100F2300F0120B0A74FC120AA0890EE975F09DA455
:100F33002402F8E5F03401F9E82463F508E9340103
:100F4300F5097E007F00E82464F582E93401F58326
:100F5300E0FAE82AF8E93400F9746C28F5827401A0
:100F630039F583E0F50FA3E0F8A3E0F97402120A60
:100F7300EBE8F0A3E9F0790EAA08AB091205AA85FC
:100F83001882851983EAF0A3EBF07903AA08AB0969
:100F93001205868A0A8B0B900C5EE0F8A3E0F974C5
:100FA30002120AEBE0687003A3E069705BE48A82D3
:100FB3008B83F0851882851983E0F8A3E0F5838895
:100FC30082A3A3A3A3A3A3A3A3A3E0F50CA3E0F588
:100FD3000D780C120CD30200011210E20FF80F79F6
:100FE3000DAA08AB091205927C467D1712078A0EDB
:100FF3000E7F80801A7902AA08AB091205927C53EE
:101003007D171207900E80E774808A828B83F074B9
:1010130002120AEBE0F8A3E0F9850A82850B83A3A9
:10102300E8F0A3E9F0851882851983E0F8A3E0F5D9
:10103300838882A3120C70AC0FA90EEEFAEFFB1299
:1010430007667402120AB67404120AB67F08020B0A
:101053007074F0120B0A74F9120AA0890BE975F087
:101063009DA42402F8E5F03401F9E82463F50EE9C0
:101073003401F50F7E007F00E82464F582E9340132
:10108300F583E0FAE82AF8E93400F9746C28F87477
:101093000139F9851882851983E8F0A3E9F08518E9
:1010A30082851983E0F8A3E0F5838882E0C0E074C9
:1010B30002120AEBD0E0F0851882851983E024013F
:1010C300F8A3E03400F9851882851983E8F0A3E9D1
:1010D300F0851882851983AC82AD837403120AEB01
:1010E300AA82AB83120616851882851983E0F8A3BA
:1010F300E0F5838882E0F50A790EAA0EAB0F12059C
:10110300AA7405120AEBEAF0A3EBF07904AA0EAB7A
:101113000F1205868A088B09EA2403EB34000A0AB6
:101123000AFBE48A828B83F0900C5EE0F8A3E0F97B
:101133007403120AEBE0687003A3E0696003021111
:10114300CAE50A70067E557F1780367C008024EC42
:10115300C333F8E433F9E8247BF582E93417F583E4
:10116300E0F8A3E0F988828983E0650A7004AE821F
:10117300AF830CECC0E090177DE0FDD0E0C39D4051
:10118300CEEE7001EF603CE4850882850983F08E22
:10119300828F83A3A3A3A3A3A3A3E08E828F83A39E
:1011A300A3A3A3A3A3FCE02CC33324088A828B83C9
:1011B300F0E0F9AA0EAB0F120592EEFCEFFD120759
:1011C30096800D748280027480850882850983F07D
:1011D3007403120AEBE0F8A3E0F98508828509831A
:1011E300A3E8F0A3E9F07405120AEBE0F8A3E0F535
:1011F300838882A3120C707404120AEBE0FCA90B1F
:101203007A047B801207667402120AB67407120A04
:10121300B67F08020B7074F7120B0A8C828D83E081
:10122300F8A3E0F98A828B83E8F0A3E9F08C828D3E
:1012330083A3A3E08A828B83A3A3F08C828D83A3F1
:10124300A3A3E0F8A3E0F98A828B83A3A3A3E8F026
:10125300A3E9F08C828D83A3A3A3A3A3E08A828B4B
:1012630083A3A3A3A3A3F08C828D83A3A3A3A3A38C
:10127300A3E0F8A3E0F98A828B83A3A3A3A3A3A388
:10128300E8F0A3E9F08C828D83A3A3A3A3A3A3A374
:10129300A3E0F8A3E0F98A828B83A3A3A3A3A3A368
:1012A300A3A3E8F0A3E9F08C828D83A3A3A3A3A354
:1012B300A3A3A3A3A3E0F8A3E0F98A828B83A3A348
:1012C300A3A3A3A3A3A3A3A3E8F0A3E9F07F01022D
:1012D3000B7074F7120B0A8C828D83E0F8A3E0F98C
:1012E3008A828B83E8F0A3E9F07F01020B7074F02C
:1012F300120B0A74FF120AA08A088B09ECFEEDFF99
:10130300750A08750B00780A120C5D120844740202
:10131300120AB6EE2407F8EF3400F9E8FCE9FD8C75
:10132300828D83E0851882851983F0750A008035E4
:10133300E50AC333F8E433F9EE28F582EF39F58390
:10134300A3A3A3A3A3A3A3A3E0FAA3E0FBE5082815
:10135300F582E50939F583A3A3A3A3A3A3A3EAF025
:10136300A3EBF0050AEE2406F8EF3400F9E8FAE9F6
:10137300FB8A828B83E0F8E50AC39840B3E0F50A61
:101383008039E8C333F8E433F9EE28F582EF39F511
:1013930083A3A3A3A3A3A3A3A3E0F50CA3E0F50D49
:1013A300E50828F582E50939F583A3A3A3A3A3A33D
:1013B300A3A3E50CF0A3E50DF0050A850A82A88234
:1013C3008A828B83E0F50C8C828D83E0250CF50CEF
:1013D300E43400F50DE8950CE4950DC365D0334076
:1013E300A1750A01780A120C5D7402120AEBAC8231
:1013F300AD838A828B83E0C333F8E433F9E50828AD
:10140300F8E50939F9740728FAE439FB120844743A
:1014130002120AB67401120AB67F08020B7074F046
:10142300120B0A74D9120AA0EAC0E07404120AEB80
:10143300D0E0F0890E7E00E975F09DA42465F508DF
:10144300E5F03402F5097402120AEB74FFF0A3F01D
:10145300850882850983A3E0F8E50828F8E50934BF
:1014630000F9740928FCE439FD8C828D83E0F50FC3
:10147300A3AC82AD83750A0A8E0B780A120C5D74D5
:1014830009120AEBAA82AB831208447402120AB649
:10149300750A0E780A120C5D790EAA08AB091205BB
:1014A300AAEAFCEBFD741B120AEBAA82AB831208B7
:1014B300447402120AB6740F120AEBE060030215B9
:1014C30069750A08780A120C5D7409120AEBAC827A
:1014D300AD837A657B0C12083E7402120AB6EA7079
:1014E30001EB700474018001E46014900C5EE0F879
:1014F300A3E0F97402120AEBE8F0A3E9F08067E4D1
:10150300800274017060900E5FE05401F9E4700191
:10151300E960EF900E5DE0F97411120AEBAA82AB59
:101523008312050E750A088E0B780A120C5D740976
:10153300120AEBAC82AD837413120AEBAA82AB835B
:1015430012083E7402120AB6EA7001EB70047401C9
:101553008001E460AD900E5DE0F97402120AEBAA1B
:1015630082AB831205147402120AEBE064FF700469
:10157300A3E064FF70107404120AEBE01313543FEA
:10158300540370027E81EE700D740F120AEBE0C3F8
:10159300940240027E80EE7060740F120AEBE070DA
:1015A30058790BAA08AB091205868A0A8B0BE48AC1
:1015B300828B83F0750C08F50D780C120C5D7409A1
:1015C300120AEBAC82AD838A828B83A3AA82AB839C
:1015D3001208447402120AB67402120AEBE0F8A36A
:1015E300E0F9850A82850B83A3A3A3A3A3A3A3A3E3
:1015F300A3E8F0A3E9F00217E0EE60030217E0743A
:101603000F120AEBE0640160030217E0900D58E04B
:10161300FA74026A600874016A60030217E08518AD
:1016230082851983E4F0A3F0900ECDE0F50C790DDB
:101633007410120AEBE0FAE50CC39AFFC333FAE421
:1016430033FB74462AFAE43BFBEA9495EB9400409F
:101653001E7F0009090F890A7448250AFAE4340039
:10166300FBEA9494EB9400C365D03340E68012EF19
:10167300700AAA08AB0912058002189FC333240D10
:10168300F9AA08AB09120586851882851983EAF041
:10169300A3EBF0E4C0E0851882851983E0F8A3E0AA
:1016A300F5838882D0E0F0851882851983E02401D0
:1016B300F8A3E03400F9851882851983E8F0A3E9DB
:1016C300F0750A08750B00780A120C5D7C657D0CB9
:1016D3007402120AEBE0FAA3E0FB1208447402124C
:1016E3000AB6851882851983E02408F8A3E034003C
:1016F300F9851882851983E8F0A3E9F0900C5EE080
:10170300FCA3E0FD851882851983AA82AB831206A8
:101713001C851882851983E0F8A3E0F5838882E5A8
:101723000CF0851882851983E02401F8A3E03400C6
:10173300F9851882851983E8F0A3E9F0E4C0E08510
:101743001882851983E0F8A3E0F5838882D0E0F05E
:10175300851882851983E02401F8A3E03400F98514
:101763001882851983E8F0A3E9F07405120AEBE403
:10177300F0A3F0F50A750C5D750D0E805B850C8288
:10178300850D83A3A3E05401F9E47001E9604705E3
:101793000A7410120AEBE0FAE50AC39A4038850C82
:1017A30082850D83E0F97405120AEBAA82AB8312DA
:1017B30005147405120AEBE0FCA3E0FD851882858D
:1017C3001983AA82AB8312061C1FE50C240AF50CAD
:1017D300E50D3400F50D74017003EF70A0EE700396
:1017E300021887851882851983E4F0A3F0790BAA80
:1017F30008AB09120586851882851983EAF0A3EBE5
:10180300F0EEC0E0851882851983E0F8A3E0F58344
:101813008882D0E0F0851882851983E02401F8A33B
:10182300E03400F9851882851983E8F0A3E9F0759F
:1018330008087509007808120C5D7409120AEBACEC
:1018430082AD837402120AEBE0FAA3E0FB120844B0
:101853007402120AB6851882851983E02408F8A356
:10186300E03400F9851882851983E8F0A3E9F09044
:101873000C5EE0FCA3E0FD851882851983AA82AB88
:101883008312061C741A120AEB120C70AC0FA90E09
:101893007A007B801207667402120AB67427120A52
:1018A300B67F08020B7074F0120B0A74E7120AA0D9
:1018B300E9C0E07402120AEBD0E0F0EAC0E074047D
:1018C300120AEBD0E0F07509007402120AEBE0751E
:1018D300F09DA42465F50EE5F03402F50F850E8224
:1018E300F583A3E0F8E50E28F8E50F3400F9740951
:1018F30028FCE439FD8C828D83E0C0E07403120A76
:10190300EBD0E0F08C828D83A3AC82AD83750A04A7
:10191300750B00780A120C5D7409120AEBAA82ABEC
:10192300831208447402120AB6750A0E780A120C5E
:101933005D790EAA0EAB0F1205AAEAFCEBFD740D3E
:10194300120AEBAA82AB831208447402120AB67419
:1019530007120AEBE0FEA3E0FF900C5EE06E70035B
:10196300A3E06F60207404120AEBE01313543F5496
:1019730003FA7006750981021C1074026A6003027F
:101983001C10021CCE7409120AEBE0FAC394024045
:1019930006750980021C10EA6003021A3885188252
:1019A300851983E4F0A3F0790BAA0EAB0F12058619
:1019B300851882851983EAF0A3EBF0E4C0E085186B
:1019C30082851983E0F8A3E0F5838882D0E0F0856F
:1019D3001882851983E02401F8A3E03400F98518FF
:1019E30082851983E8F0A3E9F0750A08780A120CD6
:1019F3005D7C657D0C7402120AEBE0FAA3E0FB1236
:101A030008447402120AB6851882851983E02408F3
:101A1300F8A3E03400F9851882851983E8F0A3E977
:101A2300F0EEFCEFFD851882851983AA82AB831241
:101A3300061C021C1074016A6003021C10900D58EE
:101A4300E0FA74026A600874016A6003021C10857C
:101A53001882851983E4F0A3F0790D740A120AEB56
:101A6300E0FA900ECDE0C39AF508C333FAE433FBF2
:101A730074462AFAE43BFBEA9495EB940040207504
:101A8300080009090508890A744E250AFAE4340096
:101A9300FBEA9494EB9400C365D03340E58013E5EF
:101AA30008700AAA0EAB0F120580021CCEC33324A2
:101AB3000DF9AA0EAB0F120586851882851983EAE4
:101AC300F0A3EBF0E4C0E0851882851983E0F8A366
:101AD300E0F5838882D0E0F0851882851983E024BD
:101AE30001F8A3E03400F9851882851983E8F0A38F
:101AF300E9F0750A08780A120C5D7C657D0C7402A6
:101B0300120AEBE0FAA3E0FB1208447402120AB6CD
:101B1300851882851983E02408F8A3E03400F98549
:101B23001882851983E8F0A3E9F0900C5EE0FCA32A
:101B3300E0FD851882851983AA82AB8312061C8572
:101B43001882851983E0F8A3E0F5838882E508F01D
:101B5300851882851983E02401F8A3E03400F98510
:101B63001882851983E8F0A3E9F0E4C0E0851882C0
:101B7300851983E0F8A3E0F5838882D0E0F0851827
:101B830082851983E02401F8A3E03400F9851882E3
:101B9300851983E8F0A3E9F07405120AEBE4F0A3D6
:101BA300F0F50A750C5D750D0E805C850C82850D54
:101BB30083A3A3E05401F9E47001E96048050A74C2
:101BC3000A120AEBE0FAE50AC39A4039850C8285CA
:101BD3000D83E0F97405120AEBAA82AB8312051494
:101BE3007405120AEBE0FCA3E0FD851882851983D6
:101BF300AA82AB8312061C1508E50C240AF50CE532
:101C03000D3400F50D74017004E508709EE509704C
:101C130003021CAC851882851983E4F0A3F0790BC9
:101C2300AA0EAB0F120586851882851983EAF0A3E5
:101C3300EBF0851882851983E0F8A3E0F5838882A9
:101C4300E509F0851882851983E02401F8A3E034BF
:101C530000F9851882851983E8F0A3E9F07508086F
:101C63007509007808120C5D7C657D0C7402120AFC
:101C7300EBE0FAA3E0FB1208447402120AB68518DB
:101C830082851983E02408F8A3E03400F9851882DB
:101C9300851983E8F0A3E9F0EEFCEFFD8518828552
:101CA3001983AA82AB8312061C740C120AEB120C62
:101CB300707405120AEBE0FC7404120AEBE0F97A83
:101CC300017B801207667402120AB67419120AB6EF
:101CD3007F08020B7074F1120B0A74EE120AA089CA
:101CE30009750800E975F09DA42465F50AE5F0344B
:101CF30002F50B850A82F583A3E0F8E50A28F8E5E7
:101D03000B3400F9740928FCE439FD8C828D83E0DF
:101D1300F50EA3AC82AD83750C02750D00780C1221
:101D23000C5D7404120AEBAA82AB8312084474029A
:101D3300120AB6750C0E780C120C5D790EAA0AAB5A
:101D43000B1205AAEAFCEBFD7406120AEBAA82AB9E
:101D5300831208447402120AB67402120AEBE0FEFC
:101D6300A3E0FF900C5EE0F8A3E0F9EE687002EFE9
:101D730069600C900D58E07006750880021E5B7454
:101D830002120AEBE0687003A3E06960067508813C
:101D9300021E5B851882851983E4F0A3F07905AAF6
:101DA3000AAB0B120586851882851983EAF0A3EB2B
:101DB300F0E4C0E0851882851983E0F8A3E0F58399
:101DC3008882D0E0F0851882851983E02401F8A386
:101DD300E03400F9851882851983E8F0A3E9F0EE71
:101DE300FCEFFD851882851983AA82AB8312061C3A
:101DF3007401C0E0851882851983E0F8A3E0F583B8
:101E03008882D0E0F0851882851983E02401F8A345
:101E1300E03400F9851882851983E8F0A3E9F0908E
:101E2300177BE0F8A3E0F5838882E0C0E0851882A1
:101E3300851983E0F8A3E0F5838882D0E0F0851864
:101E430082851983E02401F8A3E03400F985188220
:101E5300851983E8F0A3E9F0E5087003021EF08515
:101E63001882851983E4F0A3F07904AA0AAB0B1254
:101E73000586851882851983EAF0A3EBF08518821D
:101E8300851983E0F8A3E0F5838882E508F08518D7
:101E930082851983E02401F8A3E03400F9851882D0
:101EA300851983E8F0A3E9F07402120AEBE0FCA3BE
:101EB300E0FD851882851983AA82AB8312061CE490
:101EC300C0E0851882851983E0F8A3E0F583888252
:101ED300D0E0F0851882851983E02401F8A3E0346B
:101EE30000F9851882851983E8F0A3E9F0740512D7
:101EF3000AEB120C70AC0EA9097A057B80120766F7
:101F03007402120AB67412120AB67F07020B7074B7
:101F1300F4120B0AE9FD7E0080010E8E08EA250803
:101F2300F8EB3400F9880A890BEEC39D50098882C7
:101F33008983E0C39C40E388828983E06C602DED54
:101F4300FF801B8F08EA2508F8EB3400F9E824FF2B
:101F5300F582E934FFF583E088828983F01FEEC3BD
:101F63009F40E0EC850A82850B83F00DEDF97F0439
:101F7300020B7074F6120B0AECFEEDFF780080265C
:101F8300E8C333FCE433FDEE2CF582EF3DF583E04B
:101F9300F508A3E0F509EA2CF582EB3DF583E508A6
:101FA300F0A3E509F008E8C39940D5E9C333FCE49D
:101FB30033FDEA2CFAEB3DFB7F02020B7074F01247
:101FC3000B0A74DD120AA0E9C0E07405120AEBD013
:101FD300E0F0E075F09DA42465F8E5F03402F974AF
:101FE30003120AEBE8F0A3E9F0750C007403120A7C
:101FF300EBE0F8A3E0F5838882A3E0F87403120A08
:10200300EBE028F8A3E03400F9740928FEE439FF73
:102013008E828F83E0C0E0740A120AEBD0E0F08E68
:10202300828F83A3AE82AF83E0F8A3E0F9740B122F
:102033000AEBE8F0A3E9F0EE24020E0EEF3400FF02
:102043008E828F83E0F8A3E0F9740D120AEBE8F0B7
:10205300A3E9F0EE24020E0EEF3400FF8E828F838D
:10206300E0F50E740F120AEBE50EF08E828F83A358
:102073000EAF83C333F8E433F9EE28F582EF39F575
:1020830083E0F50F7410120AEBE50FF075080E7577
:1020930009007808120C5D790E7405120AEBE0FA58
:1020A300A3E0FB1205AAEAFCEBFD7417120AEBAAE4
:1020B30082AB831208447402120AB67416120AEB36
:1020C300E0F8A3E0F97413120AEBE8F0A3E9F0E5F2
:1020D3000F250EC333F97403120AEBE0FAA3E0FBF6
:1020E3001205AA7406120AEBEAF0A3EBF0A90EEEAE
:1020F300FCEFFD7406120AEBE0FAA3E0FB1207B44F
:102103008A828B83A3AC82AD83A90FE50EC333FA16
:10211300E433FB7406120AEBE02AFAA3E03BFB125A
:1021230007B4900C5EE0F8A3E0F9740B120AEBE03D
:10213300687003A3E0696013740B120AEBE064FD9B
:102143007004A3E064FF6003022344750D00800262
:10215300050D90177DE0FAE50DC39A400302234471
:102163007A00E50DC333F8E433F9E8247BF8E93466
:1021730017F97401120AEBE8F0A3E9F07401120AEB
:10218300EBE0F8A3E0F5838882E0F8A3E0F5838829
:1021930082A3E0F8A3E0F9740D120AEBE068700380
:1021A300A3E06970AB7E0080787401120AEBE0F85B
:1021B300A3E0F5838882E0F508A3E0F509EEC333D5
:1021C300F8E433F9E50828F582E50939F583A3A393
:1021D300A3A3A3A3A3A3E0FCA3E0FDEFC333F8E40D
:1021E30033F97406120AEBE028FBA3E0398B82F57E
:1021F30083E06C7003A3E06D701C850882850983FE
:10220300E0FCA90C851882851983AA82AB83120787
:10221300AEE9F50C7A010FEFC3950E5003EA60891E
:102223000EEEC0E07401120AEBE0F8A3E0F5838838
:1022330082E0F8A3E0F5838882A3A3A3A3A3A3E08A
:10224300FBD0E0C39B5007EA70047F0080C97E0087
:102253000223107401120AEBE0F8A3E0F5838882ED
:10226300E0F8A3E0F97408120AEBE8F0A3E9F074CC
:1022730008120AEBE0F8A3E0F5838882A3A3A3A3E3
:10228300A3A3E0F88E08E50828F8E43400F9E8335E
:10229300F8E933F97408120AEBE028FBA3E0398B61
:1022A30082F583A3A3A3A3A3A3A3A3E0F8A3E0F9C5
:1022B300850E0A8F08E508250AFCE43400FDEC339B
:1022C300FCED33FD7406120AEBE02CFBA3E03D8B1F
:1022D30082F583E0687003A3E06970237408120A2F
:1022E300EBE0F8A3E0F5838882E0FCA90C85188273
:1022F300851983AA82AB831207AEE9F50C7A010F25
:10230300EFC3950F5006EA70030222560EEEC0E0AB
:102313007401120AEBE0F8A3E0F5838882E0F8A3E6
:10232300E0F5838882A3A3A3A3A3A3A3E0FBD0E048
:10233300C39B4003022153EA60030221537F0080C1
:10234300BF7404250CF97403120AEBE0FAA3E0FB53
:102353001205868A088B09AE08AF09740B120AEBC3
:10236300E0F8A3E0F98E828F83A3E8F0A3E9F08E6F
:10237300828F83A3A3A3E50CF06026750800750D77
:1023830000780C120C5D7402120AEBAC82AD83EE82
:102393002404FAEF3400FB1208447402120AB680D4
:1023A300037508898E828F83E508F07413120AEB94
:1023B300120C70740C120AEBE0FC7407120AEBE0C7
:1023C300F97A067B801207667402120AB674231226
:1023D3000AB67F08020B70C082C083120610EA900F
:1023E3000F5AF07B00802CEB75F00AA42402F8E569
:1023F300F03401F9E82471F582E9340FF58374FFB1
:10240300F0A3F0C0E0E82478F582E9340FF583D037
:10241300E0F00BEBC3940A40CE74FF9010D7F0D0DA
:1024230083D0820200FB74F4120B0A74FF120AA019
:10243300EAFEEBFF8C088D09E4851882851983F089
:1024430085820A85830B780A120C5D7C00790090E3
:102453000C5EE0FAA3E0FB1205027402120AB6EA6C
:102463007001EB60030225168E828F83A3A3A3A3BF
:10247300A3A3A3A3A3A3E0FCA3E0FDEE240DF58295
:10248300EF3400F583E0FA851882851983E0F912A9
:102493000190E9FD7ABC7BFFEB6D607B7C00800FD4
:1024A3000CECC0E0901072E0F8D0E0C39850688C58
:1024B3000A750B007402780A120A8DE50A2402F8E1
:1024C300E50B3401F9E824F2F582E9340EF583E0F3
:1024D3006D70CDE824EFF582E9340EF583E06401F5
:1024E3007035E824F0F582E9340EF583E08508823F
:1024F300850983F0E824F1F582E9340EF583E0C021
:10250300E0EE240CF582EF3400F583D0E0F07A009E
:102513000B80047ABC7BFF7401120AB67F04020BA2
:102523007074F2120B0A74E6120AA0890975080086
:10253300E975F09DA42465F50CE5F03402F50D79F9
:1025430011AA0CFB1205AA8A0A8B0BAE0AAF0BEE7B
:10255300240EF582EF3400F583E0C0E07403120A21
:10256300EBD0E0F07402C0E07404120AEBD0E0F0A8
:10257300E4C0E07405120AEBD0E0F07401C0E0742B
:1025830006120AEBD0E0F0EE240FF582EF3400F5EB
:1025930083E0120C9D00038B26A425FD251C266BCE
:1025A30026E4851882851983F0AC82AD831201AECF
:1025B300EA7001EB703B851882851983E0F9740199
:1025C300120AEBAA82AB831205147401120AEBE020
:1025D30064FF7004A3E064FF7014AC097AB47B0158
:1025E300851882851983E0F91206E80227D40226AA
:1025F30078A9097A9A7B060227D17401120AEB742F
:10260300FDF0A374FFF0EE2410F582EF3400F583A0
:10261300E0C2E2F075080C806F8E828F83E064FF66
:102623007004A3E064FF602D8E828F83E064FD70ED
:1026330004A3E064FF601E8E828F83E064FC700459
:10264300A3E064FF600F8E828F83E064FB7004A3BA
:10265300E064FF70037508088E828F83E0F8A3E0BF
:10266300F97401120AEB801B12051A7401120AEBAA
:10267300EAF0A3EBF07401120AEBE0F8A3E0F98EA1
:10268300828F83E8F0A3E9F0EE2410F582EF3400A3
:10269300F583E0A2E2400302271FE485188285192F
:1026A30083F0750A11F50B780A120C5DEEFCEFFD51
:1026B300740B120AEBAA82AB831208447402120A47
:1026C300B6E508D2E6F508AC0CAD0DEEFAEFFBA9C2
:1026D300081201C6851882851983AC82AD837409FB
:1026E300120AEBAA82AB83A909120202E9601185DF
:1026F3000C82850D83A3A3A3A3F0A3E4F00225F426
:102703007A0D7B001206A67C8A7D028518828519C4
:1027130083E0F97A147B02120640800DAC0CAD0DF8
:10272300EEFAEFFBA9081201C6850C82850D83A37F
:10273300A3A3A3A3A3E05406700474018001E4C01F
:10274300E07407120AEBD0E0F0E4C0E07408120A68
:10275300EBD0E0F0750A08750B00780A120C5D7473
:1027630003120AEBAE82AF837908AA0CAB0D1205F4
:10277300AAEEFCEFFD1208447402120AB6E5081330
:1027830013543F54036403703F90118FE0603990FA
:1027930011A5E0C39408503090119AE0C3940850F7
:1027A300279011A4E0249BF582E43411F583E50915
:1027B300F09011A5E004F09011A4E0045407F07A1E
:1027C300BA7B011205748009A9097AAC7B0312064E
:1027D30034741A120AB67F06020B7074F0120B0AD5
:1027E3008908E975F09DA42465FAE5F03402FB8AB3
:1027F3000E8B0F9011A5E070030228B69011A3E091
:10280300FA249BF582E43411F583E0FE9011A5E0F0
:1028130014F074012A54079011A3F0E50E2406F571
:102823000CEB3400F50D850C82F583E05401FF7544
:102833000A9D750B00780A120C5DEE75F09DA424B9
:1028430065FCE5F03402FDAA0E1208447402120A74
:10285300B6850C82850D83E054FEF8A3E0F9EFA260
:10286300E0E492E048850C82850D83F0A3E9F0EE65
:10287300F97AAC7B03120634790EAA0EAB0F12055C
:10288300AA8A0A8B0BAE0AAF0B7900EEFCEFFDAA06
:102893000EAB0F1201EA900C5EE0F8A3E0F98E8212
:1028A3008F83A3E8F0A3E9F0A9087AC07B0112069D
:1028B3003480031205807F08020B7074F7120B0A31
:1028C300E9FE75F09DA42465FAE5F03402FB90114E
:1028D3009AE0C3940840051205808044E48A828B01
:1028E30083A3A3F09011A6E07002A3E070119011EE
:1028F300A6EAF0A3EBF07AF07B011205748021EED7
:10290300C0E0901199E02490F582E43411F583D06E
:10291300E0F090119AE004F0901199E0045407F06C
:102923007F01020B7074F6120B0A74FE120AA0895F
:1029330008EAFEEBFFECFAEDFBE91313543F5403F3
:102943006403700575090180037509008A828B830E
:10295300A3A3A3A3A3A3E054F9F0A3E0F074082571
:1029630009F912058C851882851983EAF0A3EBF027
:10297300851882851983E0F8A3E0F5838882E5084A
:10298300F0851882851983E02401F8A3E03400F967
:10299300851882851983E8F0A3E9F0E50960188EAC
:1029A300828F83E0FCA3E0FD851882851983AA82C8
:1029B300AB8312061C8038EE240CF582EF3400F54D
:1029C30083E0C0E0851882851983E0F8A3E0F583EE
:1029D3008882D0E0F0851882851983E02401F8A36A
:1029E300E03400F9851882851983E8F0A3E9F08EB5
:1029F300828F83A3A3A3A3A3A3A3A3A3A3E0FCA363
:102A0300E0FD851882851983AA82AB8312061C8E8A
:102A1300828F83A3A3A3A3A3A3A3A3E0FCA3E0FDAB
:102A2300851882851983AA82AB8312061CEE240DB6
:102A3300F582EF3400F583E0C0E0851882851983C1
:102A4300E0F8A3E0F5838882D0E0F0851882851949
:102A530083E02401F8A3E03400F985188285198303
:102A6300E8F0A3E9F0900F5AE0C0E08518828519D9
:102A730083E0F8A3E0F5838882D0E0F085188285AF
:102A83001983E02401F8A3E03400F985188285193D
:102A930083E8F0A3E9F0900F5AE004F07402120AFD
:102AA300B67F02020B70C082C0838A828B83E0549C
:102AB30003640170047800801BE01313543F540334
:102AC30064037004D2F08002C2F0A2F0E492E0F852
:102AD300740628F8E82402F9D083D0820200FB743C
:102AE300F5120B0A890AE975F09DA42465FEE5F049
:102AF3003402FF8E828F83A3858208858309E0F8E1
:102B0300EE28F8EF3400F9740928F8E439F9E8FA03
:102B1300E9FBE08E828F83A3A3A3F08A828B83A336
:102B2300A882A9838A828B83E05440FB88828983AD
:102B3300E0540C1313543FFAE0C413135403F91273
:102B43000244EEFAEFFB12059E850882850983E0B5
:102B5300F8EE28F8EF3400F9740928FAE439FB1287
:102B63000400EEFAEFFB12059E8A088B09AC08AD50
:102B7300098C828D83E0540364027009EEFAEFFB43
:102B8300120580806AE0A2E6400BA90A7A9A7B06C6
:102B9300120634805A75080080020508E508C394BC
:102BA3000A5046E50875F00AA42402F8E5F034015A
:102BB300F9E82478F582E9340FF583E0650A70DAE1
:102BC300E82479F8E9340FF988828983E054C064F2
:102BD30080700F7B008C828D83E0FAA90812020EAD
:102BE3008007E044C0F0A3E0F0740A6508608D7FBD
:102BF30003020B7074F5120B0A74F2120AA0890A0D
:102C0300E975F09DA42465FEE5F03402FF8E828F02
:102C130083A3858208858309E0F8EE28F8EF340062
:102C2300F9740928FAE439FB120400E9FA850882E9
:102C3300850983E0F8EE28F8EF3400F9EA28F582F5
:102C4300E439F583A3A3A3A3A3A3A3A3A3E0FA74E3
:102C5300035A640270297901851882851983AC822D
:102C6300AD83EEFAEFFB1201EA851882851983AA78
:102C730082AB83120208EEFAEFFB120580803AEA78
:102C8300A2E650309010DEE0C3940450279010DD8C
:102C9300E024D8F582E43410F583E50AF09010DEE1
:102CA300E004F09010DDE0045403F07ADE7B0112BF
:102CB300057A8005A90A1201E4740E120AB67F038D
:102CC300020B7074F6120B0AE9FE9010DCE0FA2492
:102CD300D8F582E43410F583E0F99010DEE014F0C7
:102CE30074012A54039010DCF0EE9010D7F0120117
:102CF300E47F02020B7074F7120B0A74F2120AA03B
:102D03008908E975F09DA42465FEE5F03402FF7996
:102D130001851882851983AC82AD83EEFAEFFB122D
:102D230001EA9010D7E0FA74FF6A60208518828563
:102D33001983AC82AD83EA75F09DA42465FAE5F0AE
:102D43003402FB1201FC74FF9010D7F0740D120AC9
:102D5300EBE0F97401120AEBE0FAA3E0FB12019C29
:102D6300E96009EEFAEFFB120580803D790E8518C4
:102D730082851983AC82AD83EEFAEFFB1205988549
:102D83001882851983E0540364017007A9081201AE
:102D9300968016E0540F640CA90860067A7E7B01C6
:102DA30080047AC07B01120634740E120AB67F01C6
:102DB300020B7074F0120B0A74FE120AA08A088BBD
:102DC30009ECFEEDFF890A8A828B83A3A882A9837B
:102DD300E0FAE5082AFAEB3400FB74092AFAE43B2B
:102DE300FB851882851983E4F0A3F0EE24030C0C11
:102DF3000CEF3400FD8E828F83A385820C85830DB7
:102E0300E50A605C8A828B83A3A3A3A3E0F50EA3E8
:102E1300E0F50F850C82850D83E50EF0A3E50FF039
:102E23008A828B83A3A3E0FAA3E0FB8C828D83EADF
:102E3300F0A3EBF088828983E0F8E50828F8E50938
:102E43003400F9740928FAE439FB120400AA08AB28
:102E53000912059E851882851983EAF0A3EB802B5E
:102E6300E4F0A3F08C828D83F0A3F088828983E061
:102E7300F8E50828F8E5093400F9740928F8E43975
:102E8300F9851882851983E8F0A3E9F0EE2408F5A3
:102E930008EF3400F50974FF850882850983F085FE
:102EA3001882851983E0F8A3E0F5838882E08E8297
:102EB3008F83F0851882851983E02401F8A3E03419
:102EC30000F9851882851983E8F0A3E9F08E828FD3
:102ED30083E0A2E45003022F87E01313543F54030B
:102EE30064038518828519836031E0F8A3E0F583D4
:102EF3008882E08E828F83A3A3A3A3A3A3A3F085D9
:102F03001882851983E02401F8A3E03400F98518B9
:102F130082851983E8F0A3E9F0800FAC82AD83EEDC
:102F23002405FAEF3400FB120616851882851983EF
:102F3300AC82AD83EE2409FAEF3400FB120616854A
:102F43001882851983AC82AD83EE240BFAEF34002B
:102F5300FB120616851882851983E0F8A3E0F58332
:102F63008882E0850882850983F085188285198324
:102F7300E02401F8A3E03400F9851882851983E879
:102F8300F0A3E9F0851882851983E0F8A3E0F583BF
:102F93008882E0C0E0EE240DF582EF3400F583D0A3
:102FA300E0F07402120AB67F08020B7074F0120B81
:102FB3000A8908790E9011A6E0FAA3E0FB1205AA8C
:102FC3008A828B83A3A3A3A3A3E0FAA3E0FB7D00E0
:102FD30080010D90118FE0FEEDC39E5018ED75F04A
:102FE3000BA424DFF582E5F03410F583E06A700367
:102FF300A3E06B70DD9011A6E0FAA3E0FBEE6D6039
:103003002CED75F00BA42402F50EE5F03401F50F59
:103013008A828B83A3A3E0C0E0E50E24E7F582E573
:103023000F340FF583E0FCD0E0C39C4062120580AF
:1030330090119AE0603E901198E0FB2490F582E4B1
:103043003411F583E075F09DA42465F8E5F03402AE
:10305300F99011A6E8F0A3E9F090119AE014F07446
:10306300012B5407901198F0A9087AF07B011206FE
:103073003402314E9011A6E4F0A3F0E50875F09DFB
:10308300A42465FAE5F03402FB12058002314EE513
:103093000875F09DA42465FEE5F03402FFEE2406D6
:1030A300F50AEF3400F50B850A82F583E05401F548
:1030B30009750C9D750D00780C120C5DEAFCEBFD97
:1030C300EEFAEFFB1208447402120AB6850A8285EF
:1030D3000B83E054FEF8A3E0F9E509A2E0E492E0F3
:1030E30048850A82850B83F0A3E9F0E48E828F83FF
:1030F300A3A3F0790EEEFAEFFB1205AA9011A6E056
:10310300F8A3E0F5838882A3A3E0F8E50E28F8E5A9
:103113000F3400F974DF28F582740F39F583E08AE0
:10312300828B83A3A3A3A3A3A3A3F09011A6E0F888
:10313300A3E0F5838882A3A3E004F0A9087A7E7B49
:10314300011206347AF07B011205747F08020B70BA
:1031530074F2120B0A89088A0C8B0D8C097908E525
:103163000875F09DA42465FAE5F03402FB1205AA64
:103173008A0A8B0BAE0AAF0B790812062274058EEE
:10318300828F83A3A3F074028E828F83A3A3A3F001
:1031930074018E828F83A3A3A3A3A3F08E828F8354
:1031A300E50CF0A3E50DF08E828F83A3A3A3A3A365
:1031B300A3E509F07F06020B7074F5120B0A74FE87
:1031C300120AA08A088B09ECFEEDFF851882851987
:1031D30083E4F0A3F0750A028E828F83E0540364C4
:1031E300016004790880057902750A121205868543
:1031F3001882851983EAF0A3EBF085188285198379
:10320300E0F8A3E0F5838882E50AF0851882851942
:1032130083E02401F8A3E03400F98518828519833B
:10322300E8F0A3E9F0E50AA2E450030232DF8E825C
:103233008F83A3A3A3A3A3A3A3A3E0C0E0851882C2
:10324300851983E0F8A3E0F5838882D0E0F0851840
:1032530082851983E02401F8A3E03400F9851882FC
:10326300851983E8F0A3E9F08E828F83A3A3A3A338
:10327300A3A3A3A3A3E0FCA3E0FD85188285198380
:10328300AA82AB8312061CEE240BF582EF3400F501
:1032930083E0FCA3E0FD851882851983AA82AB83B2
:1032A30012061C8E828F83A3A3A3A3A3A3A3E0C0B0
:1032B300E0851882851983E0F8A3E0F5838882D03E
:1032C300E0F0851882851983E02401F8A3E0340037
:1032D300F9851882851983E8F0A3E9F0EE240DF54A
:1032E30082EF3400F583E0C0E0851882851983E01E
:1032F300F8A3E0F5838882D0E0F0A808A9097A9DB5
:103303007B00120A25E89403F5087C018E828F83E3
:10331300A3E0FAA3E0FBA9081201F6A9087AAC7BA3
:10332300031206347402120AB67F03020B7074F29E
:10333300120B0AE9FE8C087F007C00EF75F00AA4EB
:1033430085F00A2402F8E50A3401F9E82479F50A3C
:10335300E9340FF50B850A82F583E054C06003025C
:103363003437EA240FF582EB3400F583E0120C9D29
:1033730000039B337F339B337F337F338A828B837B
:10338300E0F50CA3E0F50DE82471F582E9340FF5BF
:1033930083E50CF0A3E50DF08A828B83A3A3A3A39B
:1033A300A3A3A3A3A3A3E0F50CA3E0F50DE8247363
:1033B300F582E9340FF583E50CF0A3E50DF0900FEA
:1033C3005AE014C0E0E82475F582E9340FF583D0A0
:1033D300E0F0EA240DF582EB3400F583E0C0E0E889
:1033E3002476F582E9340FF583D0E0F0EA240CF576
:1033F30082EB3400F583E0C0E0E82477F582E9341A
:103403000FF583D0E0F0EEC0E0E82478F582E934EC
:103413000FF583D0E0F0850A82850B83A3E0F9855D
:103423000A82850B837443F0A3E9F0EF8508828D4C
:1034330083F0800A0FEFC3940A500302333E7409EA
:103443006F70027CAEECF97F06020B7074F7120BFF
:103453000AEAFCEBFD8C828D83E0A2E4E492E0FFB8
:103463007E0080010EEEC3940A400302351AEE7506
:10347300F00AA42402F8E5F03401F9E82471F58296
:10348300E9340FF583E0FAA3E0FB8C828D83A3E09C
:103493006A7003A3E06B70CCE82475F582E9340FFE
:1034A300F583E0FAEC240DF582ED3400F583E06A50
:1034B30070B2EF7062E82473F582E9340FF583E0AC
:1034C300FAA3E0FB8C828D83A3A3A3A3A3A3A3A34B
:1034D300A3E06A7003A3E06B708AE82476F582E9BF
:1034E300340FF583E0FA8C828D83A3A3A3A3A3A354
:1034F300A3E06A6003023467E82477F582E9340FB6
:10350300F583E0FA8C828D83A3A3A3A3A3A3A3A330
:10351300E06A6003023467EEC3940A5047EE75F025
:103523000AA42402F8E5F03401F9E82479F8E9342F
:103533000FF9E8FAE9FB8A828B83E0F8A3E0F9E864
:1035430054C064407011743F58F87480488A828B69
:1035530083F0A3E9F0800D7B008C828D83E0FAEE8B
:10356300F912020E7F01020B7074F2120B0A890822
:10357300E975F00AA42402F50CE5F03401F50DE534
:103583000C2478FEE50D340FFF8E828F83E075F0F7
:103593009DA42469F582E5F03402F583EBF0A3E4FE
:1035A300F08E828F83E0F9EAA2E45012E975F09D70
:1035B300A42465FAE5F03402FB12058080077A9AA9
:1035C3007B06120634E50C2479F582E50D340FF5FC
:1035D30083E0543FF0A3E0F0E50C2471F582E50DA0
:1035E300340FF58374FFF0A3F08E828F83F0A90864
:1035F3007A147B021206467F06020B7074F2120BDA
:103603000A8908E975F00AA42402F50AE5F03401F1
:10361300F50BE50A2478F50CE50B340FF50D850C55
:1036230082F583E075F09DA42402F8E5F03401F9F6
:10363300E82464F582E93401F583E0FAE82AF8E93D
:103643003400F9746C28F582740139F583E0F509C7
:10365300E50A2479FEE50B340FFF8E828F83E0F8B1
:10366300A3E0F9E8541F601BE8FAE9FB74E05AF899
:1036730074FF2A1A74FF3B741F5A488E828F83F09B
:10368300A3E9F08E828F83E054DF64C0700B7BBEAE
:10369300AA09A90812020E80757C8A7D02A9087AFC
:1036A300147B021206408E828F83E0F854C064C0FC
:1036B300705CE509A2E5C0D0E8C4135407A2E09208
:1036C300F0120AF7158172F0B3E492E0FCE50A24E4
:1036D30071F582E50B340FF583E0FAA3E0FB850C6B
:1036E30082850D83E0F91201F68E828F83E0543FC9
:1036F300F8A3E0F97440488E828F83F0A3E9F08544
:103703000C82850D83E0F97AAC7B031206347F06C5
:10371300020B7074F4120B0A89088A09E975F09D8B
:10372300A42465FEE5F03402FF790CEEFAEFFB12F8
:1037330005AA8A828B83E509F08E828F83A3A3A3D4
:10374300A3F0A3E4F0E509700A900C5EE0F8A3E0AF
:10375300F9800478FF79FF8A828B83A3E8F0A3E9D9
:10376300F0750A08750B00780A120C5D7C4E7D0D0E
:10377300EA24030A0A0AEB3400FB12084474021217
:103783000AB6A9087A8E7B061206347F04020B70F0
:1037930074F0120B0AE9FE7C007D008C0A8C0B028C
:1037A30038D7E50A75F00EA4F8AAF075F00EE50B0C
:1037B300A42AF9E824CEFAE9340EFBEA240AF8EB4A
:1037C3003400F9880889098882F583E0C413540713
:1037D3006E60030238CBEA240C0808EB3400F98846
:1037E300828983A3E05420F50DE47002E50D700394
:1037F3000238CB88828983A3E05401F50DE4700479
:103803007401650D60030238CB88828983A3E05479
:1038130010F9E47001E970030238CBEA2408F8EBED
:103823003400F9880C890D8882F583E0C4135407AA
:10383300C3940350030238CB8A828B83A3A3A3A32D
:10384300A3A3A3A3A3E0F8900D59E0F50EE8C39555
:103853000EF8E49400F9C3E8947FE99400A2D265DA
:10386300D0335064EC7001ED60568508828509837E
:10387300E0F508A3E0F509740C7808120A7EC00885
:103883008C828D83A3A3A3A3A3A3A3A3A3A3E0F5E4
:1038930008A3E0F509740C7808120A7ED0E0C395FA
:1038A300085025850C82850D83E0C0E08C828D83D2
:1038B300A3A3A3A3A3A3A3A3E0FFD0E0C39F4008B4
:1038C300EAF8EBF9E8FCE9FDE50A2401F50AE50B62
:1038D3003400F50B900F3FE0F8C3E50A98E50B942D
:1038E3000050030237A5ECFAEDFB7F08020B70745E
:1038F300F0120B0A74F3120AA07403120AEBEAF033
:10390300A3EBF08C0A8D0B750800750900E485188C
:1039130082851983F0FE900DDEE060047EC280197B
:10392300851882851983AC82AD83AA0AAB0B120476
:10393300DEEA7001EB60027EC3EE7001E47025E500
:103943000A240CF582E50B3400F583E0FA8518822E
:10395300851983E0F912034C8A088B09EA7001EB9D
:1039630070027EC3E5087002E5097003023B5174DF
:1039730001120AEBAA82AB83851882851983E0F9C9
:103983001204E47401120AEBE0F8A3E0F9900C5B73
:10399300E8F0A3E9F0900C5BE0FAA3E0FB1205E08A
:1039A300750C10750D00780C120C5DAC0AAD0B7A1A
:1039B300A67B0D1208447402120AB6E508240AF520
:1039C3000EE5093400F50FE5082402F50AE509348C
:1039D30000F50B750C06780C120C5D7C337D18AA70
:1039E3000AAB0B12083E7402120AB6EA7001EB70BE
:1039F30003023AAB750C03780C120C5D850A8285C1
:103A03000B83E075F003A424B0FCE5F03411FD74DE
:103A130007120AEBAA82AB831208447402120AB695
:103A2300750A05750B00780A120C5DE5082403FC82
:103A3300E5093400FD740A120AEBAA82AB8312086B
:103A4300447402120AB6790D7403120AEBE0FAA366
:103A5300E0FB1205AA8A0A8B0B850E82850F83E091
:103A6300541FC0E0EA240BF582EB3400F583D0E069
:103A7300F07401120AEBE0F8A3E0F98A828B83E881
:103A8300F0A3E9F074038A828B83A3A3A3A3A3A364
:103A9300A3A3A3A3F0750C08780C120C5D74071292
:103AA3000AEBAC82AD83805A790D7403120AEBE002
:103AB300FAA3E0FB1205AA8A0A8B0B850E82850FF7
:103AC30083E0541FC0E0EA240BF582EB3400F58356
:103AD300D0E0F07401120AEBE0F8A3E0F98A828BDC
:103AE30083E8F0A3E9F074028A828B83A3A3A3A3E0
:103AF300A3A3A3A3A3A3F0F50C780C120C5DAC084D
:103B0300AD09EA24020A0AEB3400FB1208447402EA
:103B1300120AB6900DB2E0C0E0E50A240CF582E586
:103B23000B3400F583D0E0F0900DB6E508F0A3E583
:103B330009F07403120AEBE0F8A3E0F97A9D7B0025
:103B4300120A25E89403F97A927B02120634EEFAFC
:103B53007B00740D120AB67F08020B7074F0120B0F
:103B63000A74F5120AA0890AE975F09DA42465F583
:103B73000EE5F03402F50F790BAA0EFB1205AA8AA3
:103B8300088B09EA7001EB7003023ED48A828B83AF
:103B9300A3A3E06003023E2F900DB2E0A2E1E49202
:103BA300E0F91203FA7401900DDEF0750C08750D3F
:103BB30000780C120C5D7CA67D0D7A4E7B0D1208ED
:103BC300447402120AB6850882850983E0F8A3E0EB
:103BD300F9900C5EE8F0A3E9F0900DB6E0F8A3E0ED
:103BE300F5838882A3A3A3A3A3A3A3A3A3E0900D18
:103BF30059F085188285198385820C85830D780C8D
:103C0300120C5D7901850882850983E0FCA3E0FD40
:103C13007A657B0C1205087402120AB67401120A43
:103C2300EBE4F0A3F0900DB6E0F8A3E0F9E8FAE9CD
:103C3300FB8A828B83E0FEA3E0FF74FF6E70037444
:103C4300FF6F7047750C03750D00780C120C5D8ABD
:103C5300828B83A3A3E075F003A424B0FCE5F034C6
:103C630011FD7405120AEBAA82AB83120844740295
:103C7300120AB6750C05780C120C5D900DB6E02493
:103C830003FCA3E03400FD74088017750C08750D60
:103C930000780C120C5DE5082403FCE5093400FDF3
:103CA3007405120AEBAA82AB831208447402120A47
:103CB300B6EEFAEFFB12040C74FF6E700374FF6F21
:103CC30085188285198385820C85830D780C701580
:103CD300120C5D7C0079007405120AEBAA82AB8397
:103CE3001204FC800E120C5D7C007900EEFAEFFBEF
:103CF3001205027402120AB68A0C8B0DA80CA90DC8
:103D0300E87001E97077750C08750D00780C120CDA
:103D13005D7C337D187405120AEBAA82AB8312080B
:103D23003E7402120AB6EA7001EB603374FF6E70E0
:103D33000374FF6F602985188285198385820C853A
:103D4300830D780C120C5D7900EEFCEFFDE5082481
:103D530003FAE5093400FB1205087402120AB6746B
:103D630001120AEBAC82AD837A0085188285198330
:103D7300E0F912042A8A0C8B0DA80CA90DE8700136
:103D8300E970207401120AEBE0F8A3E0F58388825E
:103D9300A3E0F0A3E054E3F0851882851983E09053
:103DA3000DA5F0850882850983A3A3E0F508790CA6
:103DB300AA0EAB0F1205AA8A0C8B0DAE0CAF0D8E9B
:103DC300828F83E508F0900C5EE0F8A3E0F98E8221
:103DD3008F83A3E8F0A3E9F0750808750900780854
:103DE300120C5D7CA67D0DEE24030A0A0AEF340053
:103DF300FB1208447402120AB6900DB6E0F8A3E071
:103E0300F5838882A3A3A3A3A3A3A3A3A3A3E0549B
:103E13001FC0E0EE240BF582EF3400F583D0E0F011
:103E2300A90A7A8E7B06120634023ED48A828B83D9
:103E3300A3A3E0FE900DB6E0240CF8A3E03400F950
:103E430088828983E0F0A3E054DFF07CA67D0DAA8D
:103E53000EAB0F1203528A088B09A808A90974C371
:103E6300687001E9705E900DB2E0A2E15056E0C2C5
:103E7300E1F078007900802CE8FAE9FBEA75F00EAE
:103E8300A4FAACF075F00EEBA42CFBEA24DAF5826D
:103E9300EB340EF583E0F0A3E04420F0E8240108BE
:103EA300E93400F9900F3EE0FAC3E89AE994004040
:103EB300C77CA67D0DAA0EAB0F1203528A088B098D
:103EC300A808A909E87001E96007EEFAA90A120334
:103ED30046740B120AB67F08020B7074F0120B0AB9
:103EE30074FE120AA0E9FE75F09DA42465F8E5F0BE
:103EF3003402F9851882851983E8F0A3E9F0791073
:103F0300851882851983E0FAA3E0FB1205AA8A0EBD
:103F13008B0F8A828B83A3A3A3A3A3A3A3A3780852
:103F2300120998EA240EF582EB3400F583E0FF9042
:103F33000DA4E06003023FDE750C08750D00780CDC
:103F4300120C5DAC0EAD0F7AB67B0D1208447402F1
:103F5300120AB6E50E240CF582E50F3400F583E072
:103F6300900DBEF07906851882851983E0FAA3E0E7
:103F7300FB1205AA8A0C8B0DAC0CAD0D8C828D83C4
:103F8300A3A378081209A78C828D83E054FCF8A3BD
:103F9300E0F97401488C828D83F0A3E9F08C828D63
:103FA30083E054C3FAA3E0FB8F0875090074027819
:103FB30008120A8D743C55084AF8EBF98C828D83FC
:103FC300E8F0A3E9F0EEF97A0A7B031206347407EA
:103FD300900DA4F0E4900DDFF080077AC3EEF912A0
:103FE30003467402120AB67F08020B7074F0120BB8
:103FF3000A74F2120AA0890B7E00E48518828519DF
:1040030083F0AC82AD837AB67B0D1204DEEA7001D5
:10401300EB60057EC30242FC900DBEE0FA85188278
:10402300851983E0F912034C8A088B09EA7001EBC6
:1040330060E1E50B75F09DA42465F8E5F03402F921
:104043007401120AEBE8F0A3E9F0900D5FE0F97454
:104053002059FBE47001EB601D8E0C741E59F50DA5
:104063007409780C120A7EE50C600B12081AE960D9
:1040730005750A0180028E0A7404120AEBAA82AB48
:1040830083851882851983E0F91204E47404120A03
:10409300EBE0F8A3E0F9900C5BE8F0A3E9F0E508A6
:1040A3002402F50EE5093400F50F750C038E0D7827
:1040B3000C120C5D850E82850F83E075F003A4243A
:1040C300B0FCE5F03411FD7408120AEBAA82AB834D
:1040D3001208447402120AB6750C05780C120C5DB2
:1040E300E5082403FCE5093400FD740B120AEBAA6E
:1040F30082AB831208447402120AB6750C08780C5A
:10410300120C5D7C337D187408120AEBAA82AB8310
:1041130012083E7402120AB6EA7001EB704B740681
:10412300120AEBAC82AD83850882850983E0FAA38A
:10413300E0FB120520EA7001EB702EAC0EAD0F749C
:1041430006120AEBAA82AB831204F0801C1206103B
:104153008A0CA80C900C5EE8F0A3EBF0E890617475
:10416300F0900C5FE0906175F0900C5EE0F8A3E0D6
:10417300F9E87001E960D674FF68700374FF696041
:10418300CC750C08780C120C5D7C337D1874081206
:104193000AEBAA82AB8312083E7402120AB6EA70D3
:1041A30001EB70067A007B0080097406120AEBAA01
:1041B30082AB83750C01780C120C61E50AF50C785F
:1041C3000C120C618A0C8B0D780C120C5D750C654E
:1041D300750D0C780C120C5D7900850882850983B6
:1041E300E0FCA3E0FD7407120AEBE0FAA3E0FB1284
:1041F30003A07406120AB68A0C8B0DA80CA90D90A5
:104203000D5AE0C33388828983A3A3A3A3A3A3F096
:10421300E50A60247401120AEBE02406F8A3E034F3
:1042230000F988828983E054F9FAA3E0FB74024A17
:1042330088828983F0A3EBF07C017906EC120AEB08
:10424300E0FAA3E0FB1203A68A0C8B0DA80CA90DC0
:10425300900DBEE088828983F07406120AEB858292
:104263000C85830D780C120C5D850882850983E02B
:10427300FCA3E0FD900C5BE0FAA3E0FB85088285DC
:104283000983A3A3A3A3A3A3A3A3A3A3E0541FF9F5
:1042930012029E7402120AB674FEC0E07901E9129A
:1042A3000AEBE0FAA3E0FB1205AA8A828B83D0E033
:1042B300F0A90B7AB87B03120634900DBFE508F022
:1042C300A3E509F07403120AEB85820C85830D784C
:1042D3000C120C5D7901850882850983E0FCA3E05B
:1042E300FD7408120AEBAA82AB831205087402124A
:1042F3000AB6AA08AB09120430EE7001E46011E4B7
:10430300900DA4F0FAFB12040CEEFAA90B1203466B
:10431300740E120AB67F08020B7074F6120B0A743D
:10432300F7120AA0EAFEEBFFEE7001EF70030243FF
:10433300D3EE240CF582EF3400F583E0F0A3E054D0
:10434300DFF07508037509007808120C5D8E828F03
:1043530083A3A3E075F003A424B0FCE5F03411FDBE
:104363007403120AEBAA82AB831208447402120A82
:10437300B67508057808120C5DEE2403FCEF3400D3
:10438300FD7406120AEBAA82AB831208447402126C
:104393000AB685188285198385820885830978087A
:1043A300120C5D79008E828F83E0FCA3E0FD740321
:1043B300120AEBAA82AB831205087402120AB6EA48
:1043C3007001EB700B851882851983E0F9120424C0
:1043D3007409120AB67F02020B7074F6120B0AE913
:1043E300FE900DBFE0FAA3E0FBEA7001EB605E9084
:1043F3000C5DE07058790BEE75F09DA42465FAE529
:10440300F03402FB1205AA74028A828B83F0900DAA
:10441300BFE0F8A3E0F5838882E0F8A3E0F98A829D
:104423008B83A3E8F0A3E9F0900C5BE0F8A3E0F939
:104433008A828B83A3A3A3A3A3A3A3A3A3E8F0A329
:10444300E9F0EEF97A867B0212062E8012EA7001F9
:10445300EB600C12036AEEF97A647B031206347F75
:1044630002020B7074F0120B0A74F5120AA0890C85
:10447300E975F09DA42465F508E5F03402F5098596
:104483000882F583A3AE82AF83E0F8E50828F8E558
:10449300093400F9740928F50AE439F50BAA0AFB73
:1044A300120400E9FA8E828F83E0F8E50828F8E524
:1044B300093400F9EA28F8E439F9740A28FEE439E2
:1044C300FF8E828F83E0F8A3E0F98E828F83E8F07A
:1044D300A3E9F0900DA4E06407600302471A75088E
:1044E300037509007808120C5D900DBFE0F8A3E096
:1044F300F5838882A3A3E075F003A424B0FCE5F060
:104503003411FD7405120AEBAA82AB8312084474BA
:1045130002120AB67508057808120C5D900DBFE00B
:104523002403FCA3E03400FD7408120AEBAA82AB57
:10453300831208447402120AB68E828F83A3A3E007
:1045430060030246EF8E828F83E054F0F8A3E0F914
:1045530074F068700374FF6970030246EF850A8282
:10456300850B83A385820E85830FE0A2E4400302BB
:1045730046EFE0A2E3502E7508087808120C5D7C24
:10458300657D0CE50A2408FAE50B3400FB12083EAE
:104593007402120AB6EA7001EB700474018001E43C
:1045A30070030246EF7508087808120C5D7C337DB2
:1045B300187405120AEBAA82AB8312083E74021226
:1045C3000AB6EA7001EB60307808120C5D740512CC
:1045D3000AEBAC82AD83E50A2410FAE50B3400FB49
:1045E30012083E7402120AB6EA7001EB70047401F9
:1045F3008001E470030246EF851882851983858262
:10460300088583097808120C5D79018E828F83E017
:10461300FCA3E0FD7A657B0C1205087402120AB64E
:10462300850E82850F83E0A2E3E50A5004241080FF
:10463300022408FAE50B3400FB7508A575090D780B
:1046430008120C5D7901900DBFE0F8A3E0F58388B3
:1046530082E0FCA3E0FD1205087402120AB68E8202
:104663008F83E0F8A3E0F9900C5EE8F0A3E9F0E8AB
:10467300906174F0900C5FE0906175F07401900D9F
:10468300DEF07508087509007808120C5D7CB67DAC
:104693000D7A4E7B0D1208447402120AB6900DBFB8
:1046A300E0F8A3E0F5838882E0FAA3E0FB12040CB0
:1046B300E4900DA4F07401120AEBAC82AD837A008E
:1046C300900DA5E0F912042AEA7001EB701574014C
:1046D300120AEBE0F8A3E0F5838882A3E0F0A3E0FD
:1046E30054E3F07A00A90C1203468020900DBFE03A
:1046F300240CF8A3E03400F988828983E0F0A3E076
:1047030054DFF0A90C7A647B0312063479FF7A70C4
:104713007B031206468007AA08AB09120580740BB7
:10472300120AB67F08020B7074F0120B0A890CE9A7
:1047330075F09DA42465FEE5F03402FF7910EEFACE
:10474300EFFB1205AA8A0E8B0F900DA4E070787907
:1047530006EEFAEFFB1205AA850E82850F83A3A34B
:10476300A3A3A3A3A3A378081209988A828B83A384
:10477300A378081209A78A828B83E04403F0A3E09D
:10478300F08A828B83E054C3FCA3E0FDE50E240E84
:10479300F582E50F3400F583E0F50875090074022E
:1047A3007808120A8D743C55084CF8EDF98A828B0F
:1047B30083E8F0A3E9F0A90C7A0A7B0312063474A8
:1047C30008900DA4F080077AC3A90C1203467F0852
:1047D300020B7074F6120B0AE9FE791775F09DA4AB
:1047E3002465FAE5F03402FB1205AA8A828B83E082
:1047F30070047A0080027ACAEEF9120346E4900D3F
:10480300A4F07F02020B7074F7120B0AE975F09D96
:10481300A42465FAE5F03402FB1205807F01020B44
:104823007074F4120B0A8908E975F09DA42465FEDF
:10483300E5F03402FF7910EEFAEFFB1205AA8A0ABB
:104843008B0BA80AA90BE87001E9604CE4900DDF1B
:10485300F0E8240DF582E93400F583E0120C9D00A5
:10486300039B486E488F4896489B487910EEFAEFB1
:10487300FB1205AAEAFCEBFDEEFAEFFB120352EA88
:104883007001EB6013A908120346800CA9081203F8
:104893007C8005A90812035E7F04020B70C082C0EE
:1048A30083900D58E0F91203FA12039A120406D00A
:1048B30083D0820200FBC082C083900D4B7464F0EE
:1048C300A3E4F07402900D4DF07405900D5AF0902E
:1048D3000D5EE04401F0A3E0F0D083D0820200FB40
:1048E30074F0120B0A74FB120AA07401120AEBEAA9
:1048F300F0A3EBF07403120AEBECF0A3EDF0E985FF
:104903001882851983F07415120AEBE0F50AA3E007
:10491300F50B7417120AEBE0F508A3E0F509741917
:10492300120AEBE0F50F741A120AEBE0F50EE50A32
:104933007002E50B601CE5087002E5096014851838
:1049430082851983E06004780180027800E82418E6
:104953008036E50A7002E50B7008E5087002E50988
:104963006014851882851983E060047801800278D9
:1049730000E824108012851882851983E06004788A
:104983000180027800E82408F9E50F6004740E2919
:10499300F9E50E600F7401120AEBE0FAA3E0FB12D3
:1049A3000586800D7401120AEBE0FAA3E0FB120501
:1049B3008C8A0C8B0DAE0CAF0D7902EEFAEFFB1265
:1049C3000622E50E8E828F836005E044098003E0B2
:1049D300D2E3F0E5087002E50960047C0180027C03
:1049E30000E50A7002E50B60047A0180027A00A3F5
:1049F300A882A983EAC454F0C0E0EC33333354F8FB
:104A0300FAD0E04AFAE04AF07401120AEBE0240615
:104A1300FAA3E03400FBE50F601F88828983E0D2AC
:104A2300E1F08A828B83E054F9F8A3E0F974024839
:104A33008A828B83F0A3E9800A8A828B83E054F90C
:104A4300F0A3E0F0900C5EE0F8A3E0F98E828F8390
:104A5300A3A3A3A3E8F0A3E9F07403120AEBE0F81D
:104A6300A3E0F98E828F83A3A3E8F0A3E9F0740196
:104A73008E828F83A3A3A3A3A3A3F0900D4AE08EFA
:104A8300828F83A3A3A3A3A3A3A3F0900D4AE0045F
:104A9300F0E50A7002E50B603BE5087002E509608A
:104AA30033750C08750D00780C120C5DAC08AD095C
:104AB300EE2408FAEF3400FB1208447402120AB61B
:104AC3007508087509007808120C5DAC0AAD0BEE89
:104AD30024108033E5087002E5096011750A087532
:104AE3000B00780A120C5DAC08AD098017E50A705B
:104AF30002E50B601F7508087509007808120C5D44
:104B0300AC0AAD0BEE2408FAEF3400FB1208447430
:104B130002120AB6EEFAEFFB7405120AB67F080218
:104B23000B7074F6120B0AE9FEECFF74012FF912F5
:104B330005928A828B83EEF0A3AA82AB837F020263
:104B43000B7074F2120B0AE975F09DA42465F50845
:104B5300E5F03402F5097908AA08FB1205AA8A0CC4
:104B63008B0DAE0CAF0D900DDEE0702585088285B0
:104B73000983A3A3A3A374C2F0A3E4F0A808A9091B
:104B83007A9DFB120A25E89403F97AD27B01024C41
:104B9300848E828F83A3A3A3A3A3A3E0602C90118D
:104BA300AAE06026900D5FE0F9742059FBE47001E0
:104BB300EB6017750C00741E59F50D7409780C120F
:104BC3000A7EE50C60047A0180027A008E828F836C
:104BD300A3A3A3E064017004790180027900750B3B
:104BE30000780B120C61EAF50B780B120C61750C53
:104BF30000750D00780C120C5D780C120C5D8E8222
:104C03008F83E0FCA3E0FDAA08AB091203A074069E
:104C1300120AB68A0C8B0DA80CA90DEE2402F5829C
:104C2300EF3400F583E06003E08006900D5AE0C3A3
:104C33003388828983A3A3A3A3A3A3F08E828F8344
:104C4300A3A3A3A3A3E0600888828983E0D2E6F04C
:104C53008E828F83A3A3A3A3A3A3A3E0C0E07901C0
:104C6300AA08AB091205AA8A828B83D0E0F0A808B0
:104C7300A9097A9D7B00120A25E89403F97AB87B87
:104C8300031206347F06020B7074F7120B0AEAF85C
:104C9300EBF9ECFAEDFB7409120AEBE0FCA3E0FD7F
:104CA30088828983A3E0FEE82EF8E93400F9740BC7
:104CB30028F582E439F583E0F8A3E0F98A828B834F
:104CC300E8F0A3E9F0E48C828D83F0900DA4E06416
:104CD300076008900DA5E0F91205147A007B007FA8
:104CE30001020B7074F0120B0A74FC120AA0E9752E
:104CF300F09DA42465F508E5F03402F509850882E2
:104D0300F583A3E0F8E50828F8E5093400F9740908
:104D130028FEE439FF7901AA08AB091205AA8A82A1
:104D23008B83E0F50EE4851882851983F085820A6A
:104D330085830B780A120C5D7403120AEB85820AD1
:104D430085830B780A120C5D7406120AEBAC82ADF4
:104D530083A90EAA08AB091203B27404120AB68A15
:104D63000A8B0BEA7001EB6003024F4F8E828F8335
:104D7300A3A3E054F0F8A3E0F974F068700374FFA0
:104D8300696003024E967C0078E1790D800E0CEC8D
:104D930075F005A424E1F8E5F0340DF9ECC39410A3
:104DA300503A88828983E0A2E050E3A3A3E0FAA308
:104DB300E0FB8E828F83A3A3A3A3E06A7003A3E027
:104DC3006B70CB88828983A3A3A3A3E0FA8E828F1F
:104DD30083A3A3A3A3A3A3A3E06A70B2ECC3941019
:104DE300400478007900E87001E96003024E96758B
:104DF3000C008002050CE50CC39410502CE50C75D7
:104E0300F005A424E1FAE5F0340DFB8A828B83E0FC
:104E1300A2E040E0EAF8EBF9900E31E004F088827A
:104E23008983E04401F0A3E0F0E87001E970030234
:104E33004ED18E828F83A3A3A3A3E0FAA3E0FB88C2
:104E4300828983A3A3EAF0A3EBF08E828F83A3A3CB
:104E5300A3A3A3A3A3E088828983A3A3A3A3F08826
:104E6300828983E05401FAA3E0FB74124A888289A1
:104E730083F0A3EBF0900E31E06401701679FF7AB2
:104E8300D67B031206467C417D0079007AD67B03EC
:104E93001206407907AA08AB091205AA900C5EE036
:104EA300F8A3E0F98A828B83E8F0A3E9F074021295
:104EB3000AEBE0F8A3E0F98A828B83A3A3E8F0A3CB
:104EC300E9F07401120AEBE0600C7C04800A750AB5
:104ED300FF750BFF80767C007402120AEBE064FF1F
:104EE3007004A3E064FF6004780180027800E84C5A
:104EF3008A828B83A3A3A3A3F08A828B83A3A3A316
:104F0300A3A3A3E50EF0A808A9097A9D7B00120AC2
:104F130025E89403F97ACE7B021206348E828F83BE
:104F2300A3A3E0F8A3E0F98E828F83A3A3E8F0A301
:104F3300E9F0EE2404F8EF3400F988828983E0FA7B
:104F4300A3E0FB88828983EAF0A3EBF0E50A700211
:104F5300E50B601374FC650A700474FF650B60074E
:104F6300AA08AB091205807404120AB67F08020B63
:104F73007074F6120B0AE9FE790375F09DA424659B
:104F8300FAE5F03402FB1205AA900DD8E08A828B71
:104F930083F0E0120D190003E1A64FE9A64FF0AA32
:104FA3004FB14F7409800274068A828B83F0900D8F
:104FB300D9E0F8A3E0F98A828B83A3E8F0A3E9F0B0
:104FC300EEF97AB27B061206347F02020B7074F09C
:104FD300120B0A74E9120AA0890AE975F09DA42448
:104FE30065F508E5F03402F5097901AA08FB120515
:104FF300AA8A0E8B0F8A828B83E064FE7021900D48
:10500300A4E06407701979FF7A707B031206467C6B
:10501300407D01A90A7A707B031206400251488A37
:10502300828B83E064FD7003025148E064FC700FDF
:105033007BFF900F56E0FAA90A1203E80251488554
:105043000882850983A3E0F8E50828F8E509340018
:10505300F9740928FCE439FD851882851983AA822D
:10506300AB831202AA7405120AEBE0FEA3E0FFE58C
:10507300082404F50CE5093400F50D850E82850F2F
:1050830083E064FB705AAA08AB091205B07909AA38
:1050930008AB091205AA850C82850D83E08A828BF1
:1050A30083F0A3AA82AB8374FF6E700374FF6F60F7
:1050B3000DEAFCEBFDEEFAEFFB12052080177508F5
:1050C300087509007808120C5D7C007D00120850F9
:1050D3007402120AB6A90A7ABE7B061206348065E8
:1050E300E064FF7030850C82850D83E07002A3E0DD
:1050F300601A850C82850D83E0900DD8F0900DD950
:10510300EEF0A3EFF0A90A1203BE8039AA08AB0997
:105113001205808030A90A7AD27B01120634850CED
:1051230082850D83E07002A3E0601A850C82850DF1
:1051330083E0900DD8F0900DD9EEF0A3EFF07ABE96
:105143007B031205747417120AB67F08020B70747E
:10515300F0120B0A74E5120AA0890EE975F09DA4FA
:105163002465F508E5F03402F509750B008508821E
:10517300F583A3E0F8E50828F8E5093400F9740994
:1051830028FCE439FD7404120AEBAA82AB831202F1
:10519300AAE9F50F850882850983A3E0850882853E
:1051A3000983A3A3A3F07901AA08AB091205A4A953
:1051B3000FAA08AB0912059E8A0C8B0DAE0CAF0D1E
:1051C3001204008E828F83E05403F50AA3A3A3A3E2
:1051D300A3A3E0600A7401650A600EE50A600AAAE7
:1051E30008AB091205800254828E828F83A3A3E049
:1051F300F8A3E0F9851882851983E8F0A3E9F08E16
:10520300828F83A3A3A3A3E0F8A3E0F97402120A95
:10521300EBE8F0A3E9F0851882851983E054F0F8F0
:10522300A3E0F974F068700374FF696003025362CA
:10523300851882851983E064FF7004A3E064FF602E
:1052430017851882851983E064FD7004A3E064FF69
:10525300708D900C5DE060877C0078E1790D800EA5
:105263000CEC75F005A424E1F8E5F0340DF9ECC37A
:105273009410503788828983E0A2E050E3A3A3E02F
:10528300FAA3E0FB7402120AEBE06A7003A3E06B7B
:1052930070CE88828983A3A3A3A3E0FA8E828F832F
:1052A300A3A3A3A3A3A3A3E06A70B5ECC394104084
:1052B3000478007900E87001E960030251E2750C9B
:1052C300008002050CE50CC39410502CE50C75F01E
:1052D30005A424E1FCE5F0340DFD8C828D83E0A26E
:1052E300E040E0ECF8EDF9900E31E004F0888289BB
:1052F30083E04401F0A3E0F0E87001E97003025198
:10530300E27402120AEBE0FAA3E0FB88828983A32A
:10531300A3EAF0A3EBF08E828F83A3A3A3A3A3A39B
:10532300A3E088828983A3A3A3A3F088828983E06F
:105333005401FAA3E0FB74124A88828983F0A3EB39
:10534300F0900E31E06401701679FF7AD67B031278
:1053530006467C417D0079007AD67B031206408E97
:10536300828F83A3E0A2E1505CE50A6006740165C5
:105373000A7052AC0F7404120AEBAA82AB83A90E13
:10538300120472EA7001EB6003025482E5082406FA
:10539300F8E5093400F988828983E054F9FAA3E037
:1053A300FB74024A88828983F0A3EBF08508828527
:1053B3000983A3E0F8E50828F8E5093400F974093E
:1053C30028FEE439FFEE2402F8EF3400F9E8FAE9A5
:1053D300FB851882851983E0F8A3E0F98A828B8321
:1053E300E8F0A3E9F0EE2404F8EF3400F9740212B4
:1053F3000AEBE0FCA3E0FD88828983ECF0A3EDF0E7
:105403008E828F83A3A3A3A3A3A3E014F08A828B2A
:1054130083E0FCA3E0FD900C5EE06C7003A3E06D01
:1054230060158A828B83E054F0FAA3E0FB74F06A80
:10543300700374FF6B7003750B01851882851983E4
:10544300AC82AD8388828983E0FAA3E0FB12043641
:10545300EA7001EB701974FFC0E085188285198327
:10546300E0F8A3E0F5838882A3A3A3A3D0E0F0E54B
:105473000B70030251E2A90E7AD07B031206347437
:105483001B120AB67F08020B7074F2120B0A890A08
:10549300E975F09DA42465FEE5F03402FF8E828F4A
:1054A30083A3858208858309E0F8EE28F8EF3400AA
:1054B300F9740928F50CE439F50D850C82F583E0C0
:1054C3005403F50BAA0CAB0D120400E9FAE50B70BB
:1054D3000CA90A7AD87B011206340255BA74016505
:1054E3000B60030255BA8A82A882850882850983E4
:1054F300E0FAEE2AFAEF3400FBE82AF582E43BF502
:1055030083A3A3A3A3A3A3A3A3A3E0FA74046A702E
:105513002E850882850983E0FAEE2AFAEF3400FB30
:10552300E82AF582E43BF583A3A3A3A3A3A3A3A340
:10553300A3A3E0FCAA0CAB0DA90A1203DC807874C8
:10554300076A7007A90A120376806C740A6A705797
:10555300850882850983E0FAEE2AFAEF3400FBE836
:105563002AF8E43BF9740A28F508E439F5098508B3
:1055730082F583E054F0702F750C08750D00780CDC
:10558300120C5D7C4E7D0D850882850983A3AA825A
:10559300AB8312083E7402120AB6EA7001EB700480
:1055A30074018001E47009EEFAEFFB1205808007B5
:1055B300AA08AB0912045A7F06020B7074F7120B88
:1055C3000A900E31E0606D75080080138A828B8328
:1055D300E054FEF0A3E0F0900E31E014F00508E58E
:1055E30008C394105041E50875F005A424E1F8E5DB
:1055F300F0340DF9E8FAE9FB8A828B83E0F8A3E043
:10560300F9E8A2E050D754FE60C2E8FC74015CFEE6
:10561300ECC313F874FF28C333F874FE584E8A8220
:105623008B83F0A3E980B57C417D0079007AD67B3A
:10563300031206407F01020B7074F2120B0A74FD11
:10564300120AA089088C097401120AEBE4F0A3F092
:10565300E975F09DA42465F50CE5F03402F50D859C
:10566300188285198385820A85830B780A120C5D5B
:105673007C0079008A828B83A3A3A3A3E0FAA3E02F
:10568300FB1205027402120AB68A0A8B0BAE0AAF2A
:105693000BEE7001EF70207401120AEBAC82AD8344
:1056A3007A00851882851983E0F912042AEA7001C9
:1056B300EB60047EFF7FFFEE7001EF702374011235
:1056C3000AEBE0F8A3E0F5838882A3A3E0541CF976
:1056D300E47001E9600AE509A2E650047EFF7FFF5A
:1056E300EE7001EF70577401120AEBE0F8A3E0F5D6
:1056F300838882A3A3E0541CF9E47001E97034E5C4
:1057030009A2E6401D851882851983E0900F58F0A1
:10571300E509A2E5E492E0900F59F07AE27B0312E7
:1057230005747BFFE509A2E5E492E0FAA9081203F8
:10573300E88011851882851983E0FB80E7AA0CAB0A
:105743000D1205807403120AB67F06020B7074F7FC
:10575300120B0A900F58E0FB900F59E0FA1203E87E
:105763007F01020B7074F3120B0A89088A0C8B09F0
:105773007909E50875F09DA42465FAE5F03402FB88
:105783001205AA8A0A8B0BAE0AAF0B74FF65097068
:1057930019750A08750B00780A120C5D7C007D00F0
:1057A3001208507402120AB68005A90912050E8E5A
:1057B300828F83A3A3A3A3A3A3A3A3E50CF0A908A8
:1057C3007AB87B061206347F05020B7074F7120B4E
:1057D3000AE9FE120424EEF912053E7F01020B7062
:1057E30074F0120B0A74FF120AA08A0EE975F09D79
:1057F300A42465F50CE5F03402F50DE4900F57F0A1
:105803009016F4F0900DDEF0900DDFF0900F55F050
:10581300900E31F074FF900DA5F0E4900E48F0AABD
:105823000CAB0D1205B0E50E70030258E27910AA15
:105833000CAB0D1205AA8A088B09AE08AF097910C3
:105843001206227508087509007808120C5D7C4E53
:105853007D0DEEFAEFFB1208447402120AB6EE2431
:105863000CF8EF3400F9900C5DE0600888828983BE
:10587300E0D2E3F088828983E0D2E7F07402C0E0EB
:10588300EE240DF582EF3400F583D0E0F0900F5D48
:1058930078081209988E828F83A3A3A3A3A3A3A33B
:1058A300A3E508F0A3E509F0A3E50AF0A3E50BF0EF
:1058B3007403C0E0EE240EF582EF3400F583D0E0EC
:1058C300F074019016F1F0A80CA90D7A9D7B0012DB
:1058D3000A25E89403F97A8E7B03120634806685E1
:1058E30018828519838582088583097808120C5DDF
:1058F3007C007900900C5EE0FAA3E0FB12050274D1
:1059030002120AB6EA7001EB700B851882851983BF
:10591300E0F91203EE7508087509007808120C5DAA
:105923007C007D007A4E7B0D1208507402120AB679
:10593300900C5B74FFF0A3F0900C5EF0A3F0AA0C44
:10594300AB0D1205807401120AB67F08020B70C0FA
:1059530082C083E9900D58F07402900CD0F0D0838C
:10596300D0820200FBC082C0838A828B83A3E0A221
:10597300E0E492E0F8E0A2E150047A0E80027A00BB
:10598300E0A2E4E492E0C0E0E0A2E3E492E0FCD031
:10599300E02C33333354F8C0E0EA28FAD0E02A2469
:1059A30008F9D083D0820200FBEBC313FBEA13FA9E
:1059B300EAF8EBF974FF28FA74FF39FB7400687096
:1059C3000374006960130000000000000000000081
:1059D3000000000000000080D70200FB74F6120BE9
:1059E3000A74F855B349F5B343B3017C0080108CB6
:1059F30008EA2508F582EB3400F583E0F5B10CECF9
:105A0300C3941040EA7F02020B7074F6120B0A74FF
:105A1300F855B34404F5B343B3017C0080108C08FC
:105A2300EA2508F582EB3400F583E0F5B10CECC30D
:105A3300941040EA7F02020B7074F0120B0A74EBAD
:105A4300120AA0E9851882851983F0ECFEEDFF7434
:105A530027120AEBE0F508A3E0F509742B120AEB11
:105A6300E0F50EA3E0F50F1205627401120AEBEAEA
:105A7300F0A3EBF0851882851983E07003025D7B48
:105A8300E0F874FE28181874FF3400F97A027B00DA
:105A9300120A1DE833333354F84401C0E07405128D
:105AA3000AEBD0E0F0E5087002E5096004E0D2E615
:105AB300F0750A0D750B00780A120C5DEEFCEFFD14
:105AC3007408120AEBAA82AB831208447402120A06
:105AD300B67413120AEBE50FF07414120AEBE50E19
:105AE300F07430250EFAE4350FFB740F550EF8EA07
:105AF300C398FEEB9400FFE5087002E50960177494
:105B0300022508F8E43509F9740F58FAE8C39AF83E
:105B1300E99400F9800478007900EE28FEEF39FF5C
:105B2300EEF97401120AEBE0FAA3E0FB1205868A90
:105B33000A8B0B7403120AEBEAF0A3EBF0EA700191
:105B4300EB7003025D7B750C10750D00780C120C65
