:020000040000FA
:030000000200BA41
:0300130002038F56
:03003B0002034A73
:100083000203BA00000080FB12011BB90003020047
:10009300A4E4900F00781679098002F0A3D8FCD964
:1000A300FA7582F175830774001200CC7582867528
:1000B300830074001200CC75D0007581BF751800E1
:1000C30075190F75C70002008BC4C0F0F5F0E5C7C2
:1000D3005430C4C0E0E5C754CF45F0F5C7D0F0E4D1
:1000E3007385C7F053F0CFD0E0C445F0F5C722D0F5
:1000F30083D082E5C7C45403C0E0E493C0E0740135
:1001030093C0E0740293C45430C0F0F5F0E5C754D3
:10011300CF45F0D0F0F5C7227901221200F2F103A6
:10012300001200F21B04001200F29F04001200F2FE
:100133003F05001200F25305001200F2A807001257
:1001430000F2FE06001200F20407001200F220077C
:10015300001200F26907001200F28905001200F292
:10016300C005001200F2E005001200F2F8050012CB
:1001730000F2BD06001200F2D107001200F2790767
:1001830000CAC0E0E6F0A308DAFAD0E0FA222518A4
:1001930010AF08F518400215198008F5184002152C
:1001A30019D2AF22C0D0251810AF08F51850020598
:1001B300198008F51850020519D2AFD0D02225189E
:1001C300F58210AF08F518400215198008F518409C
:1001D300021519D2AF851983222518F582E4351942
:1001E300F583222518C582C0E0E51934FFC583C015
:1001F300E0E518C3958224F8F8E4C5A8858319853A
:100203008218C5A8E8CEF0A3E520F0A37810E6088D
:10021300F0A3DEFAEFF0A3E58124FAF8E608F0A3F1
:10022300E608F0A3E608F0A30808E608F0A3E6084A
:10023300F0A315811581D0E0FED0E0F8158115817A
:100243001581E8C0E0EEC0E022851983851882E0BD
:10025300A3FEE0A3F5207810E0A3F608DFFAE0A3FD
:10026300FFE0A3C0E0E0A3C0E0E0A3C0E0E0A3C0E0
:10027300E0E0A3C0E0E4C5A8858218858319C5A87A
:10028300D083D0820200E4C0D02518C582C0E0E547
:100293001934FFC583C0E0E518C3958224F310AF7A
:1002A300088583198582188008858319858218D269
:1002B300AFC8F0A3E9F0A3EAF0A3EBF0A37910E74A
:1002C30009F0A3D8FAECF0A3EDF0A3EEF0A3EFF05E
:1002D300A3D0E0F0A3D0E0F0A3D0E0F0A3E520F0BA
:1002E300A3E5F0F0A322851983851882E0C0E0A37B
:1002F300E0F9A3E0FAA3E0FBA37810E0F608A3DF9C
:10030300FAE0FCA3E0FDA3E0FEA3E0FFA3E0C0E06E
:10031300A3E0C0E0A3E0F5D0A3E0F520A3E0A3F5BC
:10032300F0E4C5A8858319858218C5A8D082D08337
:10033300D0E0F8D0E03274028000C0E0F40412018F
:10034300C1D0E012018422C0E0C0D075D008C082C1
:10035300C083C0F0A2E95029C2E9539AFB79017C1A
:10036300007D007A0C7B0F12012AE9600A900000DD
:10037300E0F5C174018001E4900F00F0439A04D2C8
:10038300AFD0F0D083D082D0D0D0E032C0E0C0D0A4
:10039300C082C083E5C1901712F024F5C3941050B6
:1003A300097401901713F0E48007E4901713F074B5
:1003B30001901714F080CCC0E074F212028AC2AF2D
:1003C300C2AFE5E9900F08F0E591900F09F075E9E8
:1003D30000759B00759100900F08E0A2E650031290
:1003E300016CD2AF7401900F0BF0FF0202E9C082DF
:1003F300C08312056FE4F0A3F0EA240212040FEAAB
:10040300240412040FD083D0820200E4F582EB347B
:1004130008F583E4F0A3F02274F41201E6E9FEEA9E
:100423002400F8EB3408F989138882F5838E1012BF
:10043300057E7F00505FEE604CECF8EDF9EA240492
:10044300FCEB3408FD88828983E0C0E08C828D83D5
:10045300E0F510A3E0F511EA2510F582EB3511F56F
:1004630083D0E012052B7004A3E0640870088C822B
:100473008D83E4F0A3F00F88828983A3A882A983E4
:10048300EFC39E40C08F108A82851383E02510F04E
:10049300A3E03400F0EFF97F0402024C74F212017E
:1004A300E6E9FE7F00ECF8EDF9EA2402FCEB340800
:1004B300FDEA2400EB3408F51180378C828D83E04C
:1004C300F512A3E0F513EA2512F582EB3513F58354
:1004D300E08882898312052B7004A3E06408700806
:1004E3008C828D83E4F0A3F00F88828983A3A88292
:1004F300A9838F82858212EFC39E50168A8285114B
:1005030083E0F514A3E0F515C3E5129514E49515FE
:1005130040A98A82851183C3E09512F0A3E0940079
:10052300F0EFF97F0602024CF08C828D83E0240108
:10053300F0A3E03400F08C828D83E022C082C0837C
:1005430012054EF8A3E0E8F9020408120573E0224D
:1005530074F61201E6E9FC12056F8C1012057E5049
:10056300047901800279007F0202024C1205732292
:10057300EA2400F582EB3408F58322E02510A3E09A
:100583003400C394082274F61201E675100C751139
:100593000078101203397C007D007A007B0F120172
:1005A3007E74021201A712017812014E7A0C7B0F9E
:1005B30012011E12013CD2AF7F0202024CC082C064
:1005C30083901712E0F912015475E1EC75E1E3D25F
:1005D300E9439A04D2AFD083D0820200E4C082C040
:1005E30083C2E9539AFB75E1EF75E1EC7A0C7B0F5B
:1005F30012011E80DC74F41201E6747C1201917AFC
:1006030001E5D9A2E750011AC2E7FE600F74041294
:1006130001DCEEFFE5D9F0A31FEF70F8EA700302E7
:1006230006B374042EF510F97A0C7B0F120136E928
:10063300607E8E1274041201DCE5822512F8E583D4
:100643003400F974FF28F58274FF39F583E0A2E7DB
:10065300505E75120475130078121203397C007D05
:100663000074021201DCAA82AB8312017E740212AF
:1006730001A7851882851983E510F074011201DC46
:10068300E4F074021201DCE4F0A3F079048518822B
:10069300851983AC82AD837A0C7B0F120124EEF9AA
:1006A30074041201DCAC82AD837A0C7B0F1201243B
:1006B30074841201A77F0402024CC082C083901786
:1006C30014E06008120166E4901714F0901713E029
:1006D3006008120160E4901713F07A0C7B0F12018B
:1006E300307A0C7B0F120130E9600A900F00E07042
:1006F30004D2E980038587870205D953C67F0200A8
:10070300E4748055C6FA53BEFBE59DA2E550FAE5B5
:100713009DA2E240F48AC643BE040200E4C082C044
:1007230083906189E0D2E6F090618AE0C2E1F074DF
:10073300099061FAF074159061B2F0E49061AEF043
:100743009061A3E0D2E6F0439A01E4906180F074F3
:1007530078906181F0E4906182F0D2AF8001F0D0B3
:1007630083D0820200E4C082C08375F005E9A4242B
:10077300D490618F80E874F71201E674091201DCEA
:10078300E0F8A3E0F98A828B838003ECF0A3E8FE10
:10079300E9FF74FF2E1874FF3FF9EE7001EF70EB61
:1007A3007F0102024C53FFF3E5FF53F1FE43F30CC9
:1007B300E5F353F2F3E5F275868075C48075C2D80C
:1007C30075C50B75C402438640D2AA0200E4C082F9
:1007D300C08343E40CE5E475E54453AFFEC2B912AC
:1007E3000142120148D2B9D083D0820200E412013F
:0607F3005A12017280FBA6
:04000005000000BA3D
:00000001FF
